{"abi":[{"inputs":[{"internalType":"uint256","name":"","type":"uint256"}],"name":"collegesRatings","outputs":[{"internalType":"string","name":"collegeName","type":"string"},{"internalType":"string","name":"studentName","type":"string"},{"internalType":"string","name":"star","type":"string"},{"internalType":"string","name":"feedback","type":"string"}],"stateMutability":"view","type":"function"},{"inputs":[],"name":"getCollegesRatings","outputs":[{"components":[{"internalType":"string","name":"collegeName","type":"string"},{"internalType":"string","name":"studentName","type":"string"},{"internalType":"string","name":"star","type":"string"},{"internalType":"string","name":"feedback","type":"string"}],"internalType":"struct CollegeRating.Feedback[]","name":"","type":"tuple[]"}],"stateMutability":"view","type":"function"},{"inputs":[{"internalType":"string","name":"collegeName","type":"string"},{"internalType":"string","name":"studentName","type":"string"},{"internalType":"string","name":"star","type":"string"},{"internalType":"string","name":"feedback","type":"string"}],"name":"giveRating","outputs":[],"stateMutability":"nonpayable","type":"function"},{"inputs":[],"name":"totalRatings","outputs":[{"internalType":"uint256","name":"","type":"uint256"}],"stateMutability":"view","type":"function"}],"devdoc":{"kind":"dev","methods":{},"version":1},"evm":{"assembly":"    /* \"CollegeRating.sol\":63:1128  contract CollegeRating {... */\n  mstore(0x40, 0x80)\n    /* \"CollegeRating.sol\":355:356  0 */\n  0x00\n    /* \"CollegeRating.sol\":328:356  uint public totalRatings = 0 */\n  0x01\n  sstore\n    /* \"CollegeRating.sol\":63:1128  contract CollegeRating {... */\n  callvalue\n  dup1\n  iszero\n  tag_1\n  jumpi\n  0x00\n  dup1\n  revert\ntag_1:\n  pop\n  dataSize(sub_0)\n  dup1\n  dataOffset(sub_0)\n  0x00\n  codecopy\n  0x00\n  return\nstop\n\nsub_0: assembly {\n        /* \"CollegeRating.sol\":63:1128  contract CollegeRating {... */\n      mstore(0x40, 0x80)\n      callvalue\n      dup1\n      iszero\n      tag_1\n      jumpi\n      0x00\n      dup1\n      revert\n    tag_1:\n      pop\n      jumpi(tag_2, lt(calldatasize, 0x04))\n      shr(0xe0, calldataload(0x00))\n      dup1\n      0x06981aa3\n      eq\n      tag_3\n      jumpi\n      dup1\n      0x2826f6a5\n      eq\n      tag_4\n      jumpi\n      dup1\n      0x4bd81175\n      eq\n      tag_5\n      jumpi\n      dup1\n      0xff782542\n      eq\n      tag_6\n      jumpi\n    tag_2:\n      0x00\n      dup1\n      revert\n        /* \"CollegeRating.sol\":365:858  function giveRating(... */\n    tag_3:\n      tag_7\n      0x04\n      dup1\n      calldatasize\n      sub\n      dup2\n      add\n      swap1\n      tag_8\n      swap2\n      swap1\n      tag_9\n      jump\t// in\n    tag_8:\n      tag_10\n      jump\t// in\n    tag_7:\n      stop\n        /* \"CollegeRating.sol\":328:356  uint public totalRatings = 0 */\n    tag_4:\n      tag_11\n      tag_12\n      jump\t// in\n    tag_11:\n      mload(0x40)\n      tag_13\n      swap2\n      swap1\n      tag_14\n      jump\t// in\n    tag_13:\n      mload(0x40)\n      dup1\n      swap2\n      sub\n      swap1\n      return\n        /* \"CollegeRating.sol\":288:321  Feedback[] public collegesRatings */\n    tag_5:\n      tag_15\n      0x04\n      dup1\n      calldatasize\n      sub\n      dup2\n      add\n      swap1\n      tag_16\n      swap2\n      swap1\n      tag_17\n      jump\t// in\n    tag_16:\n      tag_18\n      jump\t// in\n    tag_15:\n      mload(0x40)\n      tag_19\n      swap5\n      swap4\n      swap3\n      swap2\n      swap1\n      tag_20\n      jump\t// in\n    tag_19:\n      mload(0x40)\n      dup1\n      swap2\n      sub\n      swap1\n      return\n        /* \"CollegeRating.sol\":1014:1123  function getCollegesRatings() public view returns(Feedback[] memory){... */\n    tag_6:\n      tag_21\n      tag_22\n      jump\t// in\n    tag_21:\n      mload(0x40)\n      tag_23\n      swap2\n      swap1\n      tag_24\n      jump\t// in\n    tag_23:\n      mload(0x40)\n      dup1\n      swap2\n      sub\n      swap1\n      return\n        /* \"CollegeRating.sol\":365:858  function giveRating(... */\n    tag_10:\n        /* \"CollegeRating.sol\":543:570  Feedback memory newFeedback */\n      0x00\n        /* \"CollegeRating.sol\":573:730  Feedback({... */\n      mload(0x40)\n      dup1\n      0x80\n      add\n      0x40\n      mstore\n      dup1\n        /* \"CollegeRating.sol\":610:621  collegeName */\n      dup7\n        /* \"CollegeRating.sol\":573:730  Feedback({... */\n      dup2\n      mstore\n      0x20\n      add\n        /* \"CollegeRating.sol\":649:660  studentName */\n      dup6\n        /* \"CollegeRating.sol\":573:730  Feedback({... */\n      dup2\n      mstore\n      0x20\n      add\n        /* \"CollegeRating.sol\":681:685  star */\n      dup5\n        /* \"CollegeRating.sol\":573:730  Feedback({... */\n      dup2\n      mstore\n      0x20\n      add\n        /* \"CollegeRating.sol\":710:718  feedback */\n      dup4\n        /* \"CollegeRating.sol\":573:730  Feedback({... */\n      dup2\n      mstore\n      pop\n        /* \"CollegeRating.sol\":543:730  Feedback memory newFeedback = Feedback({... */\n      swap1\n      pop\n        /* \"CollegeRating.sol\":792:807  collegesRatings */\n      0x00\n        /* \"CollegeRating.sol\":813:824  newFeedback */\n      dup2\n        /* \"CollegeRating.sol\":792:825  collegesRatings.push(newFeedback) */\n      swap1\n      dup1\n      0x01\n      dup2\n      sload\n      add\n      dup1\n      dup3\n      sstore\n      dup1\n      swap2\n      pop\n      pop\n      0x01\n      swap1\n      sub\n      swap1\n      0x00\n      mstore\n      keccak256(0x00, 0x20)\n      swap1\n      0x04\n      mul\n      add\n      0x00\n      swap1\n      swap2\n      swap1\n      swap2\n      swap1\n      swap2\n      pop\n      0x00\n      dup3\n      add\n      mload\n      dup2\n      0x00\n      add\n      swap1\n      dup1\n      mload\n      swap1\n      0x20\n      add\n      swap1\n      tag_27\n      swap3\n      swap2\n      swap1\n      tag_28\n      jump\t// in\n    tag_27:\n      pop\n      0x20\n      dup3\n      add\n      mload\n      dup2\n      0x01\n      add\n      swap1\n      dup1\n      mload\n      swap1\n      0x20\n      add\n      swap1\n      tag_29\n      swap3\n      swap2\n      swap1\n      tag_28\n      jump\t// in\n    tag_29:\n      pop\n      0x40\n      dup3\n      add\n      mload\n      dup2\n      0x02\n      add\n      swap1\n      dup1\n      mload\n      swap1\n      0x20\n      add\n      swap1\n      tag_30\n      swap3\n      swap2\n      swap1\n      tag_28\n      jump\t// in\n    tag_30:\n      pop\n      0x60\n      dup3\n      add\n      mload\n      dup2\n      0x03\n      add\n      swap1\n      dup1\n      mload\n      swap1\n      0x20\n      add\n      swap1\n      tag_31\n      swap3\n      swap2\n      swap1\n      tag_28\n      jump\t// in\n    tag_31:\n      pop\n      pop\n      pop\n        /* \"CollegeRating.sol\":836:848  totalRatings */\n      0x01\n      0x00\n        /* \"CollegeRating.sol\":836:850  totalRatings++ */\n      dup2\n      sload\n      dup1\n      swap3\n      swap2\n      swap1\n      tag_32\n      swap1\n      tag_33\n      jump\t// in\n    tag_32:\n      swap2\n      swap1\n      pop\n      sstore\n      pop\n        /* \"CollegeRating.sol\":532:858  {... */\n      pop\n        /* \"CollegeRating.sol\":365:858  function giveRating(... */\n      pop\n      pop\n      pop\n      pop\n      jump\t// out\n        /* \"CollegeRating.sol\":328:356  uint public totalRatings = 0 */\n    tag_12:\n      sload(0x01)\n      dup2\n      jump\t// out\n        /* \"CollegeRating.sol\":288:321  Feedback[] public collegesRatings */\n    tag_18:\n      0x00\n      dup2\n      dup2\n      sload\n      dup2\n      lt\n      tag_34\n      jumpi\n      0x00\n      dup1\n      revert\n    tag_34:\n      swap1\n      0x00\n      mstore\n      keccak256(0x00, 0x20)\n      swap1\n      0x04\n      mul\n      add\n      0x00\n      swap2\n      pop\n      swap1\n      pop\n      dup1\n      0x00\n      add\n      dup1\n      sload\n      tag_36\n      swap1\n      tag_37\n      jump\t// in\n    tag_36:\n      dup1\n      0x1f\n      add\n      0x20\n      dup1\n      swap2\n      div\n      mul\n      0x20\n      add\n      mload(0x40)\n      swap1\n      dup2\n      add\n      0x40\n      mstore\n      dup1\n      swap3\n      swap2\n      swap1\n      dup2\n      dup2\n      mstore\n      0x20\n      add\n      dup3\n      dup1\n      sload\n      tag_38\n      swap1\n      tag_37\n      jump\t// in\n    tag_38:\n      dup1\n      iszero\n      tag_39\n      jumpi\n      dup1\n      0x1f\n      lt\n      tag_40\n      jumpi\n      0x0100\n      dup1\n      dup4\n      sload\n      div\n      mul\n      dup4\n      mstore\n      swap2\n      0x20\n      add\n      swap2\n      jump(tag_39)\n    tag_40:\n      dup3\n      add\n      swap2\n      swap1\n      0x00\n      mstore\n      keccak256(0x00, 0x20)\n      swap1\n    tag_41:\n      dup2\n      sload\n      dup2\n      mstore\n      swap1\n      0x01\n      add\n      swap1\n      0x20\n      add\n      dup1\n      dup4\n      gt\n      tag_41\n      jumpi\n      dup3\n      swap1\n      sub\n      0x1f\n      and\n      dup3\n      add\n      swap2\n    tag_39:\n      pop\n      pop\n      pop\n      pop\n      pop\n      swap1\n      dup1\n      0x01\n      add\n      dup1\n      sload\n      tag_42\n      swap1\n      tag_37\n      jump\t// in\n    tag_42:\n      dup1\n      0x1f\n      add\n      0x20\n      dup1\n      swap2\n      div\n      mul\n      0x20\n      add\n      mload(0x40)\n      swap1\n      dup2\n      add\n      0x40\n      mstore\n      dup1\n      swap3\n      swap2\n      swap1\n      dup2\n      dup2\n      mstore\n      0x20\n      add\n      dup3\n      dup1\n      sload\n      tag_43\n      swap1\n      tag_37\n      jump\t// in\n    tag_43:\n      dup1\n      iszero\n      tag_44\n      jumpi\n      dup1\n      0x1f\n      lt\n      tag_45\n      jumpi\n      0x0100\n      dup1\n      dup4\n      sload\n      div\n      mul\n      dup4\n      mstore\n      swap2\n      0x20\n      add\n      swap2\n      jump(tag_44)\n    tag_45:\n      dup3\n      add\n      swap2\n      swap1\n      0x00\n      mstore\n      keccak256(0x00, 0x20)\n      swap1\n    tag_46:\n      dup2\n      sload\n      dup2\n      mstore\n      swap1\n      0x01\n      add\n      swap1\n      0x20\n      add\n      dup1\n      dup4\n      gt\n      tag_46\n      jumpi\n      dup3\n      swap1\n      sub\n      0x1f\n      and\n      dup3\n      add\n      swap2\n    tag_44:\n      pop\n      pop\n      pop\n      pop\n      pop\n      swap1\n      dup1\n      0x02\n      add\n      dup1\n      sload\n      tag_47\n      swap1\n      tag_37\n      jump\t// in\n    tag_47:\n      dup1\n      0x1f\n      add\n      0x20\n      dup1\n      swap2\n      div\n      mul\n      0x20\n      add\n      mload(0x40)\n      swap1\n      dup2\n      add\n      0x40\n      mstore\n      dup1\n      swap3\n      swap2\n      swap1\n      dup2\n      dup2\n      mstore\n      0x20\n      add\n      dup3\n      dup1\n      sload\n      tag_48\n      swap1\n      tag_37\n      jump\t// in\n    tag_48:\n      dup1\n      iszero\n      tag_49\n      jumpi\n      dup1\n      0x1f\n      lt\n      tag_50\n      jumpi\n      0x0100\n      dup1\n      dup4\n      sload\n      div\n      mul\n      dup4\n      mstore\n      swap2\n      0x20\n      add\n      swap2\n      jump(tag_49)\n    tag_50:\n      dup3\n      add\n      swap2\n      swap1\n      0x00\n      mstore\n      keccak256(0x00, 0x20)\n      swap1\n    tag_51:\n      dup2\n      sload\n      dup2\n      mstore\n      swap1\n      0x01\n      add\n      swap1\n      0x20\n      add\n      dup1\n      dup4\n      gt\n      tag_51\n      jumpi\n      dup3\n      swap1\n      sub\n      0x1f\n      and\n      dup3\n      add\n      swap2\n    tag_49:\n      pop\n      pop\n      pop\n      pop\n      pop\n      swap1\n      dup1\n      0x03\n      add\n      dup1\n      sload\n      tag_52\n      swap1\n      tag_37\n      jump\t// in\n    tag_52:\n      dup1\n      0x1f\n      add\n      0x20\n      dup1\n      swap2\n      div\n      mul\n      0x20\n      add\n      mload(0x40)\n      swap1\n      dup2\n      add\n      0x40\n      mstore\n      dup1\n      swap3\n      swap2\n      swap1\n      dup2\n      dup2\n      mstore\n      0x20\n      add\n      dup3\n      dup1\n      sload\n      tag_53\n      swap1\n      tag_37\n      jump\t// in\n    tag_53:\n      dup1\n      iszero\n      tag_54\n      jumpi\n      dup1\n      0x1f\n      lt\n      tag_55\n      jumpi\n      0x0100\n      dup1\n      dup4\n      sload\n      div\n      mul\n      dup4\n      mstore\n      swap2\n      0x20\n      add\n      swap2\n      jump(tag_54)\n    tag_55:\n      dup3\n      add\n      swap2\n      swap1\n      0x00\n      mstore\n      keccak256(0x00, 0x20)\n      swap1\n    tag_56:\n      dup2\n      sload\n      dup2\n      mstore\n      swap1\n      0x01\n      add\n      swap1\n      0x20\n      add\n      dup1\n      dup4\n      gt\n      tag_56\n      jumpi\n      dup3\n      swap1\n      sub\n      0x1f\n      and\n      dup3\n      add\n      swap2\n    tag_54:\n      pop\n      pop\n      pop\n      pop\n      pop\n      swap1\n      pop\n      dup5\n      jump\t// out\n        /* \"CollegeRating.sol\":1014:1123  function getCollegesRatings() public view returns(Feedback[] memory){... */\n    tag_22:\n        /* \"CollegeRating.sol\":1064:1081  Feedback[] memory */\n      0x60\n        /* \"CollegeRating.sol\":1100:1115  collegesRatings */\n      0x00\n        /* \"CollegeRating.sol\":1093:1115  return collegesRatings */\n      dup1\n      sload\n      dup1\n      0x20\n      mul\n      0x20\n      add\n      mload(0x40)\n      swap1\n      dup2\n      add\n      0x40\n      mstore\n      dup1\n      swap3\n      swap2\n      swap1\n      dup2\n      dup2\n      mstore\n      0x20\n      add\n      0x00\n      swap1\n    tag_58:\n      dup3\n      dup3\n      lt\n      iszero\n      tag_59\n      jumpi\n      dup4\n      dup3\n      swap1\n      0x00\n      mstore\n      keccak256(0x00, 0x20)\n      swap1\n      0x04\n      mul\n      add\n      mload(0x40)\n      dup1\n      0x80\n      add\n      0x40\n      mstore\n      swap1\n      dup2\n      0x00\n      dup3\n      add\n      dup1\n      sload\n      tag_61\n      swap1\n      tag_37\n      jump\t// in\n    tag_61:\n      dup1\n      0x1f\n      add\n      0x20\n      dup1\n      swap2\n      div\n      mul\n      0x20\n      add\n      mload(0x40)\n      swap1\n      dup2\n      add\n      0x40\n      mstore\n      dup1\n      swap3\n      swap2\n      swap1\n      dup2\n      dup2\n      mstore\n      0x20\n      add\n      dup3\n      dup1\n      sload\n      tag_62\n      swap1\n      tag_37\n      jump\t// in\n    tag_62:\n      dup1\n      iszero\n      tag_63\n      jumpi\n      dup1\n      0x1f\n      lt\n      tag_64\n      jumpi\n      0x0100\n      dup1\n      dup4\n      sload\n      div\n      mul\n      dup4\n      mstore\n      swap2\n      0x20\n      add\n      swap2\n      jump(tag_63)\n    tag_64:\n      dup3\n      add\n      swap2\n      swap1\n      0x00\n      mstore\n      keccak256(0x00, 0x20)\n      swap1\n    tag_65:\n      dup2\n      sload\n      dup2\n      mstore\n      swap1\n      0x01\n      add\n      swap1\n      0x20\n      add\n      dup1\n      dup4\n      gt\n      tag_65\n      jumpi\n      dup3\n      swap1\n      sub\n      0x1f\n      and\n      dup3\n      add\n      swap2\n    tag_63:\n      pop\n      pop\n      pop\n      pop\n      pop\n      dup2\n      mstore\n      0x20\n      add\n      0x01\n      dup3\n      add\n      dup1\n      sload\n      tag_66\n      swap1\n      tag_37\n      jump\t// in\n    tag_66:\n      dup1\n      0x1f\n      add\n      0x20\n      dup1\n      swap2\n      div\n      mul\n      0x20\n      add\n      mload(0x40)\n      swap1\n      dup2\n      add\n      0x40\n      mstore\n      dup1\n      swap3\n      swap2\n      swap1\n      dup2\n      dup2\n      mstore\n      0x20\n      add\n      dup3\n      dup1\n      sload\n      tag_67\n      swap1\n      tag_37\n      jump\t// in\n    tag_67:\n      dup1\n      iszero\n      tag_68\n      jumpi\n      dup1\n      0x1f\n      lt\n      tag_69\n      jumpi\n      0x0100\n      dup1\n      dup4\n      sload\n      div\n      mul\n      dup4\n      mstore\n      swap2\n      0x20\n      add\n      swap2\n      jump(tag_68)\n    tag_69:\n      dup3\n      add\n      swap2\n      swap1\n      0x00\n      mstore\n      keccak256(0x00, 0x20)\n      swap1\n    tag_70:\n      dup2\n      sload\n      dup2\n      mstore\n      swap1\n      0x01\n      add\n      swap1\n      0x20\n      add\n      dup1\n      dup4\n      gt\n      tag_70\n      jumpi\n      dup3\n      swap1\n      sub\n      0x1f\n      and\n      dup3\n      add\n      swap2\n    tag_68:\n      pop\n      pop\n      pop\n      pop\n      pop\n      dup2\n      mstore\n      0x20\n      add\n      0x02\n      dup3\n      add\n      dup1\n      sload\n      tag_71\n      swap1\n      tag_37\n      jump\t// in\n    tag_71:\n      dup1\n      0x1f\n      add\n      0x20\n      dup1\n      swap2\n      div\n      mul\n      0x20\n      add\n      mload(0x40)\n      swap1\n      dup2\n      add\n      0x40\n      mstore\n      dup1\n      swap3\n      swap2\n      swap1\n      dup2\n      dup2\n      mstore\n      0x20\n      add\n      dup3\n      dup1\n      sload\n      tag_72\n      swap1\n      tag_37\n      jump\t// in\n    tag_72:\n      dup1\n      iszero\n      tag_73\n      jumpi\n      dup1\n      0x1f\n      lt\n      tag_74\n      jumpi\n      0x0100\n      dup1\n      dup4\n      sload\n      div\n      mul\n      dup4\n      mstore\n      swap2\n      0x20\n      add\n      swap2\n      jump(tag_73)\n    tag_74:\n      dup3\n      add\n      swap2\n      swap1\n      0x00\n      mstore\n      keccak256(0x00, 0x20)\n      swap1\n    tag_75:\n      dup2\n      sload\n      dup2\n      mstore\n      swap1\n      0x01\n      add\n      swap1\n      0x20\n      add\n      dup1\n      dup4\n      gt\n      tag_75\n      jumpi\n      dup3\n      swap1\n      sub\n      0x1f\n      and\n      dup3\n      add\n      swap2\n    tag_73:\n      pop\n      pop\n      pop\n      pop\n      pop\n      dup2\n      mstore\n      0x20\n      add\n      0x03\n      dup3\n      add\n      dup1\n      sload\n      tag_76\n      swap1\n      tag_37\n      jump\t// in\n    tag_76:\n      dup1\n      0x1f\n      add\n      0x20\n      dup1\n      swap2\n      div\n      mul\n      0x20\n      add\n      mload(0x40)\n      swap1\n      dup2\n      add\n      0x40\n      mstore\n      dup1\n      swap3\n      swap2\n      swap1\n      dup2\n      dup2\n      mstore\n      0x20\n      add\n      dup3\n      dup1\n      sload\n      tag_77\n      swap1\n      tag_37\n      jump\t// in\n    tag_77:\n      dup1\n      iszero\n      tag_78\n      jumpi\n      dup1\n      0x1f\n      lt\n      tag_79\n      jumpi\n      0x0100\n      dup1\n      dup4\n      sload\n      div\n      mul\n      dup4\n      mstore\n      swap2\n      0x20\n      add\n      swap2\n      jump(tag_78)\n    tag_79:\n      dup3\n      add\n      swap2\n      swap1\n      0x00\n      mstore\n      keccak256(0x00, 0x20)\n      swap1\n    tag_80:\n      dup2\n      sload\n      dup2\n      mstore\n      swap1\n      0x01\n      add\n      swap1\n      0x20\n      add\n      dup1\n      dup4\n      gt\n      tag_80\n      jumpi\n      dup3\n      swap1\n      sub\n      0x1f\n      and\n      dup3\n      add\n      swap2\n    tag_78:\n      pop\n      pop\n      pop\n      pop\n      pop\n      dup2\n      mstore\n      pop\n      pop\n      dup2\n      mstore\n      0x20\n      add\n      swap1\n      0x01\n      add\n      swap1\n      jump(tag_58)\n    tag_59:\n      pop\n      pop\n      pop\n      pop\n      swap1\n      pop\n        /* \"CollegeRating.sol\":1014:1123  function getCollegesRatings() public view returns(Feedback[] memory){... */\n      swap1\n      jump\t// out\n    tag_28:\n      dup3\n      dup1\n      sload\n      tag_81\n      swap1\n      tag_37\n      jump\t// in\n    tag_81:\n      swap1\n      0x00\n      mstore\n      keccak256(0x00, 0x20)\n      swap1\n      0x1f\n      add\n      0x20\n      swap1\n      div\n      dup2\n      add\n      swap3\n      dup3\n      tag_83\n      jumpi\n      0x00\n      dup6\n      sstore\n      jump(tag_82)\n    tag_83:\n      dup3\n      0x1f\n      lt\n      tag_84\n      jumpi\n      dup1\n      mload\n      not(0xff)\n      and\n      dup4\n      dup1\n      add\n      or\n      dup6\n      sstore\n      jump(tag_82)\n    tag_84:\n      dup3\n      dup1\n      add\n      0x01\n      add\n      dup6\n      sstore\n      dup3\n      iszero\n      tag_82\n      jumpi\n      swap2\n      dup3\n      add\n    tag_85:\n      dup3\n      dup2\n      gt\n      iszero\n      tag_86\n      jumpi\n      dup3\n      mload\n      dup3\n      sstore\n      swap2\n      0x20\n      add\n      swap2\n      swap1\n      0x01\n      add\n      swap1\n      jump(tag_85)\n    tag_86:\n    tag_82:\n      pop\n      swap1\n      pop\n      tag_87\n      swap2\n      swap1\n      tag_88\n      jump\t// in\n    tag_87:\n      pop\n      swap1\n      jump\t// out\n    tag_88:\n    tag_89:\n      dup1\n      dup3\n      gt\n      iszero\n      tag_90\n      jumpi\n      0x00\n      dup2\n      0x00\n      swap1\n      sstore\n      pop\n      0x01\n      add\n      jump(tag_89)\n    tag_90:\n      pop\n      swap1\n      jump\t// out\n        /* \"#utility.yul\":7:82   */\n    tag_91:\n        /* \"#utility.yul\":40:46   */\n      0x00\n        /* \"#utility.yul\":73:75   */\n      0x40\n        /* \"#utility.yul\":67:76   */\n      mload\n        /* \"#utility.yul\":57:76   */\n      swap1\n      pop\n        /* \"#utility.yul\":7:82   */\n      swap1\n      jump\t// out\n        /* \"#utility.yul\":88:205   */\n    tag_92:\n        /* \"#utility.yul\":197:198   */\n      0x00\n        /* \"#utility.yul\":194:195   */\n      dup1\n        /* \"#utility.yul\":187:199   */\n      revert\n        /* \"#utility.yul\":211:328   */\n    tag_93:\n        /* \"#utility.yul\":320:321   */\n      0x00\n        /* \"#utility.yul\":317:318   */\n      dup1\n        /* \"#utility.yul\":310:322   */\n      revert\n        /* \"#utility.yul\":334:451   */\n    tag_94:\n        /* \"#utility.yul\":443:444   */\n      0x00\n        /* \"#utility.yul\":440:441   */\n      dup1\n        /* \"#utility.yul\":433:445   */\n      revert\n        /* \"#utility.yul\":457:574   */\n    tag_95:\n        /* \"#utility.yul\":566:567   */\n      0x00\n        /* \"#utility.yul\":563:564   */\n      dup1\n        /* \"#utility.yul\":556:568   */\n      revert\n        /* \"#utility.yul\":580:682   */\n    tag_96:\n        /* \"#utility.yul\":621:627   */\n      0x00\n        /* \"#utility.yul\":672:674   */\n      0x1f\n        /* \"#utility.yul\":668:675   */\n      not\n        /* \"#utility.yul\":663:665   */\n      0x1f\n        /* \"#utility.yul\":656:661   */\n      dup4\n        /* \"#utility.yul\":652:666   */\n      add\n        /* \"#utility.yul\":648:676   */\n      and\n        /* \"#utility.yul\":638:676   */\n      swap1\n      pop\n        /* \"#utility.yul\":580:682   */\n      swap2\n      swap1\n      pop\n      jump\t// out\n        /* \"#utility.yul\":688:868   */\n    tag_97:\n        /* \"#utility.yul\":736:813   */\n      0x4e487b7100000000000000000000000000000000000000000000000000000000\n        /* \"#utility.yul\":733:734   */\n      0x00\n        /* \"#utility.yul\":726:814   */\n      mstore\n        /* \"#utility.yul\":833:837   */\n      0x41\n        /* \"#utility.yul\":830:831   */\n      0x04\n        /* \"#utility.yul\":823:838   */\n      mstore\n        /* \"#utility.yul\":857:861   */\n      0x24\n        /* \"#utility.yul\":854:855   */\n      0x00\n        /* \"#utility.yul\":847:862   */\n      revert\n        /* \"#utility.yul\":874:1155   */\n    tag_98:\n        /* \"#utility.yul\":957:984   */\n      tag_132\n        /* \"#utility.yul\":979:983   */\n      dup3\n        /* \"#utility.yul\":957:984   */\n      tag_96\n      jump\t// in\n    tag_132:\n        /* \"#utility.yul\":949:955   */\n      dup2\n        /* \"#utility.yul\":945:985   */\n      add\n        /* \"#utility.yul\":1087:1093   */\n      dup2\n        /* \"#utility.yul\":1075:1085   */\n      dup2\n        /* \"#utility.yul\":1072:1094   */\n      lt\n        /* \"#utility.yul\":1051:1069   */\n      0xffffffffffffffff\n        /* \"#utility.yul\":1039:1049   */\n      dup3\n        /* \"#utility.yul\":1036:1070   */\n      gt\n        /* \"#utility.yul\":1033:1095   */\n      or\n        /* \"#utility.yul\":1030:1118   */\n      iszero\n      tag_133\n      jumpi\n        /* \"#utility.yul\":1098:1116   */\n      tag_134\n      tag_97\n      jump\t// in\n    tag_134:\n        /* \"#utility.yul\":1030:1118   */\n    tag_133:\n        /* \"#utility.yul\":1138:1148   */\n      dup1\n        /* \"#utility.yul\":1134:1136   */\n      0x40\n        /* \"#utility.yul\":1127:1149   */\n      mstore\n        /* \"#utility.yul\":917:1155   */\n      pop\n        /* \"#utility.yul\":874:1155   */\n      pop\n      pop\n      jump\t// out\n        /* \"#utility.yul\":1161:1290   */\n    tag_99:\n        /* \"#utility.yul\":1195:1201   */\n      0x00\n        /* \"#utility.yul\":1222:1242   */\n      tag_136\n      tag_91\n      jump\t// in\n    tag_136:\n        /* \"#utility.yul\":1212:1242   */\n      swap1\n      pop\n        /* \"#utility.yul\":1251:1284   */\n      tag_137\n        /* \"#utility.yul\":1279:1283   */\n      dup3\n        /* \"#utility.yul\":1271:1277   */\n      dup3\n        /* \"#utility.yul\":1251:1284   */\n      tag_98\n      jump\t// in\n    tag_137:\n        /* \"#utility.yul\":1161:1290   */\n      swap2\n      swap1\n      pop\n      jump\t// out\n        /* \"#utility.yul\":1296:1604   */\n    tag_100:\n        /* \"#utility.yul\":1358:1362   */\n      0x00\n        /* \"#utility.yul\":1448:1466   */\n      0xffffffffffffffff\n        /* \"#utility.yul\":1440:1446   */\n      dup3\n        /* \"#utility.yul\":1437:1467   */\n      gt\n        /* \"#utility.yul\":1434:1490   */\n      iszero\n      tag_139\n      jumpi\n        /* \"#utility.yul\":1470:1488   */\n      tag_140\n      tag_97\n      jump\t// in\n    tag_140:\n        /* \"#utility.yul\":1434:1490   */\n    tag_139:\n        /* \"#utility.yul\":1508:1537   */\n      tag_141\n        /* \"#utility.yul\":1530:1536   */\n      dup3\n        /* \"#utility.yul\":1508:1537   */\n      tag_96\n      jump\t// in\n    tag_141:\n        /* \"#utility.yul\":1500:1537   */\n      swap1\n      pop\n        /* \"#utility.yul\":1592:1596   */\n      0x20\n        /* \"#utility.yul\":1586:1590   */\n      dup2\n        /* \"#utility.yul\":1582:1597   */\n      add\n        /* \"#utility.yul\":1574:1597   */\n      swap1\n      pop\n        /* \"#utility.yul\":1296:1604   */\n      swap2\n      swap1\n      pop\n      jump\t// out\n        /* \"#utility.yul\":1610:1764   */\n    tag_101:\n        /* \"#utility.yul\":1694:1700   */\n      dup3\n        /* \"#utility.yul\":1689:1692   */\n      dup2\n        /* \"#utility.yul\":1684:1687   */\n      dup4\n        /* \"#utility.yul\":1671:1701   */\n      calldatacopy\n        /* \"#utility.yul\":1756:1757   */\n      0x00\n        /* \"#utility.yul\":1747:1753   */\n      dup4\n        /* \"#utility.yul\":1742:1745   */\n      dup4\n        /* \"#utility.yul\":1738:1754   */\n      add\n        /* \"#utility.yul\":1731:1758   */\n      mstore\n        /* \"#utility.yul\":1610:1764   */\n      pop\n      pop\n      pop\n      jump\t// out\n        /* \"#utility.yul\":1770:2182   */\n    tag_102:\n        /* \"#utility.yul\":1848:1853   */\n      0x00\n        /* \"#utility.yul\":1873:1939   */\n      tag_144\n        /* \"#utility.yul\":1889:1938   */\n      tag_145\n        /* \"#utility.yul\":1931:1937   */\n      dup5\n        /* \"#utility.yul\":1889:1938   */\n      tag_100\n      jump\t// in\n    tag_145:\n        /* \"#utility.yul\":1873:1939   */\n      tag_99\n      jump\t// in\n    tag_144:\n        /* \"#utility.yul\":1864:1939   */\n      swap1\n      pop\n        /* \"#utility.yul\":1962:1968   */\n      dup3\n        /* \"#utility.yul\":1955:1960   */\n      dup2\n        /* \"#utility.yul\":1948:1969   */\n      mstore\n        /* \"#utility.yul\":2000:2004   */\n      0x20\n        /* \"#utility.yul\":1993:1998   */\n      dup2\n        /* \"#utility.yul\":1989:2005   */\n      add\n        /* \"#utility.yul\":2038:2041   */\n      dup5\n        /* \"#utility.yul\":2029:2035   */\n      dup5\n        /* \"#utility.yul\":2024:2027   */\n      dup5\n        /* \"#utility.yul\":2020:2036   */\n      add\n        /* \"#utility.yul\":2017:2042   */\n      gt\n        /* \"#utility.yul\":2014:2126   */\n      iszero\n      tag_146\n      jumpi\n        /* \"#utility.yul\":2045:2124   */\n      tag_147\n      tag_95\n      jump\t// in\n    tag_147:\n        /* \"#utility.yul\":2014:2126   */\n    tag_146:\n        /* \"#utility.yul\":2135:2176   */\n      tag_148\n        /* \"#utility.yul\":2169:2175   */\n      dup5\n        /* \"#utility.yul\":2164:2167   */\n      dup3\n        /* \"#utility.yul\":2159:2162   */\n      dup6\n        /* \"#utility.yul\":2135:2176   */\n      tag_101\n      jump\t// in\n    tag_148:\n        /* \"#utility.yul\":1854:2182   */\n      pop\n        /* \"#utility.yul\":1770:2182   */\n      swap4\n      swap3\n      pop\n      pop\n      pop\n      jump\t// out\n        /* \"#utility.yul\":2202:2542   */\n    tag_103:\n        /* \"#utility.yul\":2258:2263   */\n      0x00\n        /* \"#utility.yul\":2307:2310   */\n      dup3\n        /* \"#utility.yul\":2300:2304   */\n      0x1f\n        /* \"#utility.yul\":2292:2298   */\n      dup4\n        /* \"#utility.yul\":2288:2305   */\n      add\n        /* \"#utility.yul\":2284:2311   */\n      slt\n        /* \"#utility.yul\":2274:2396   */\n      tag_150\n      jumpi\n        /* \"#utility.yul\":2315:2394   */\n      tag_151\n      tag_94\n      jump\t// in\n    tag_151:\n        /* \"#utility.yul\":2274:2396   */\n    tag_150:\n        /* \"#utility.yul\":2432:2438   */\n      dup2\n        /* \"#utility.yul\":2419:2439   */\n      calldataload\n        /* \"#utility.yul\":2457:2536   */\n      tag_152\n        /* \"#utility.yul\":2532:2535   */\n      dup5\n        /* \"#utility.yul\":2524:2530   */\n      dup3\n        /* \"#utility.yul\":2517:2521   */\n      0x20\n        /* \"#utility.yul\":2509:2515   */\n      dup7\n        /* \"#utility.yul\":2505:2522   */\n      add\n        /* \"#utility.yul\":2457:2536   */\n      tag_102\n      jump\t// in\n    tag_152:\n        /* \"#utility.yul\":2448:2536   */\n      swap2\n      pop\n        /* \"#utility.yul\":2264:2542   */\n      pop\n        /* \"#utility.yul\":2202:2542   */\n      swap3\n      swap2\n      pop\n      pop\n      jump\t// out\n        /* \"#utility.yul\":2548:4033   */\n    tag_9:\n        /* \"#utility.yul\":2674:2680   */\n      0x00\n        /* \"#utility.yul\":2682:2688   */\n      dup1\n        /* \"#utility.yul\":2690:2696   */\n      0x00\n        /* \"#utility.yul\":2698:2704   */\n      dup1\n        /* \"#utility.yul\":2747:2750   */\n      0x80\n        /* \"#utility.yul\":2735:2744   */\n      dup6\n        /* \"#utility.yul\":2726:2733   */\n      dup8\n        /* \"#utility.yul\":2722:2745   */\n      sub\n        /* \"#utility.yul\":2718:2751   */\n      slt\n        /* \"#utility.yul\":2715:2835   */\n      iszero\n      tag_154\n      jumpi\n        /* \"#utility.yul\":2754:2833   */\n      tag_155\n      tag_92\n      jump\t// in\n    tag_155:\n        /* \"#utility.yul\":2715:2835   */\n    tag_154:\n        /* \"#utility.yul\":2902:2903   */\n      0x00\n        /* \"#utility.yul\":2891:2900   */\n      dup6\n        /* \"#utility.yul\":2887:2904   */\n      add\n        /* \"#utility.yul\":2874:2905   */\n      calldataload\n        /* \"#utility.yul\":2932:2950   */\n      0xffffffffffffffff\n        /* \"#utility.yul\":2924:2930   */\n      dup2\n        /* \"#utility.yul\":2921:2951   */\n      gt\n        /* \"#utility.yul\":2918:3035   */\n      iszero\n      tag_156\n      jumpi\n        /* \"#utility.yul\":2954:3033   */\n      tag_157\n      tag_93\n      jump\t// in\n    tag_157:\n        /* \"#utility.yul\":2918:3035   */\n    tag_156:\n        /* \"#utility.yul\":3059:3122   */\n      tag_158\n        /* \"#utility.yul\":3114:3121   */\n      dup8\n        /* \"#utility.yul\":3105:3111   */\n      dup3\n        /* \"#utility.yul\":3094:3103   */\n      dup9\n        /* \"#utility.yul\":3090:3112   */\n      add\n        /* \"#utility.yul\":3059:3122   */\n      tag_103\n      jump\t// in\n    tag_158:\n        /* \"#utility.yul\":3049:3122   */\n      swap5\n      pop\n        /* \"#utility.yul\":2845:3132   */\n      pop\n        /* \"#utility.yul\":3199:3201   */\n      0x20\n        /* \"#utility.yul\":3188:3197   */\n      dup6\n        /* \"#utility.yul\":3184:3202   */\n      add\n        /* \"#utility.yul\":3171:3203   */\n      calldataload\n        /* \"#utility.yul\":3230:3248   */\n      0xffffffffffffffff\n        /* \"#utility.yul\":3222:3228   */\n      dup2\n        /* \"#utility.yul\":3219:3249   */\n      gt\n        /* \"#utility.yul\":3216:3333   */\n      iszero\n      tag_159\n      jumpi\n        /* \"#utility.yul\":3252:3331   */\n      tag_160\n      tag_93\n      jump\t// in\n    tag_160:\n        /* \"#utility.yul\":3216:3333   */\n    tag_159:\n        /* \"#utility.yul\":3357:3420   */\n      tag_161\n        /* \"#utility.yul\":3412:3419   */\n      dup8\n        /* \"#utility.yul\":3403:3409   */\n      dup3\n        /* \"#utility.yul\":3392:3401   */\n      dup9\n        /* \"#utility.yul\":3388:3410   */\n      add\n        /* \"#utility.yul\":3357:3420   */\n      tag_103\n      jump\t// in\n    tag_161:\n        /* \"#utility.yul\":3347:3420   */\n      swap4\n      pop\n        /* \"#utility.yul\":3142:3430   */\n      pop\n        /* \"#utility.yul\":3497:3499   */\n      0x40\n        /* \"#utility.yul\":3486:3495   */\n      dup6\n        /* \"#utility.yul\":3482:3500   */\n      add\n        /* \"#utility.yul\":3469:3501   */\n      calldataload\n        /* \"#utility.yul\":3528:3546   */\n      0xffffffffffffffff\n        /* \"#utility.yul\":3520:3526   */\n      dup2\n        /* \"#utility.yul\":3517:3547   */\n      gt\n        /* \"#utility.yul\":3514:3631   */\n      iszero\n      tag_162\n      jumpi\n        /* \"#utility.yul\":3550:3629   */\n      tag_163\n      tag_93\n      jump\t// in\n    tag_163:\n        /* \"#utility.yul\":3514:3631   */\n    tag_162:\n        /* \"#utility.yul\":3655:3718   */\n      tag_164\n        /* \"#utility.yul\":3710:3717   */\n      dup8\n        /* \"#utility.yul\":3701:3707   */\n      dup3\n        /* \"#utility.yul\":3690:3699   */\n      dup9\n        /* \"#utility.yul\":3686:3708   */\n      add\n        /* \"#utility.yul\":3655:3718   */\n      tag_103\n      jump\t// in\n    tag_164:\n        /* \"#utility.yul\":3645:3718   */\n      swap3\n      pop\n        /* \"#utility.yul\":3440:3728   */\n      pop\n        /* \"#utility.yul\":3795:3797   */\n      0x60\n        /* \"#utility.yul\":3784:3793   */\n      dup6\n        /* \"#utility.yul\":3780:3798   */\n      add\n        /* \"#utility.yul\":3767:3799   */\n      calldataload\n        /* \"#utility.yul\":3826:3844   */\n      0xffffffffffffffff\n        /* \"#utility.yul\":3818:3824   */\n      dup2\n        /* \"#utility.yul\":3815:3845   */\n      gt\n        /* \"#utility.yul\":3812:3929   */\n      iszero\n      tag_165\n      jumpi\n        /* \"#utility.yul\":3848:3927   */\n      tag_166\n      tag_93\n      jump\t// in\n    tag_166:\n        /* \"#utility.yul\":3812:3929   */\n    tag_165:\n        /* \"#utility.yul\":3953:4016   */\n      tag_167\n        /* \"#utility.yul\":4008:4015   */\n      dup8\n        /* \"#utility.yul\":3999:4005   */\n      dup3\n        /* \"#utility.yul\":3988:3997   */\n      dup9\n        /* \"#utility.yul\":3984:4006   */\n      add\n        /* \"#utility.yul\":3953:4016   */\n      tag_103\n      jump\t// in\n    tag_167:\n        /* \"#utility.yul\":3943:4016   */\n      swap2\n      pop\n        /* \"#utility.yul\":3738:4026   */\n      pop\n        /* \"#utility.yul\":2548:4033   */\n      swap3\n      swap6\n      swap2\n      swap5\n      pop\n      swap3\n      pop\n      jump\t// out\n        /* \"#utility.yul\":4039:4116   */\n    tag_104:\n        /* \"#utility.yul\":4076:4083   */\n      0x00\n        /* \"#utility.yul\":4105:4110   */\n      dup2\n        /* \"#utility.yul\":4094:4110   */\n      swap1\n      pop\n        /* \"#utility.yul\":4039:4116   */\n      swap2\n      swap1\n      pop\n      jump\t// out\n        /* \"#utility.yul\":4122:4240   */\n    tag_105:\n        /* \"#utility.yul\":4209:4233   */\n      tag_170\n        /* \"#utility.yul\":4227:4232   */\n      dup2\n        /* \"#utility.yul\":4209:4233   */\n      tag_104\n      jump\t// in\n    tag_170:\n        /* \"#utility.yul\":4204:4207   */\n      dup3\n        /* \"#utility.yul\":4197:4234   */\n      mstore\n        /* \"#utility.yul\":4122:4240   */\n      pop\n      pop\n      jump\t// out\n        /* \"#utility.yul\":4246:4468   */\n    tag_14:\n        /* \"#utility.yul\":4339:4343   */\n      0x00\n        /* \"#utility.yul\":4377:4379   */\n      0x20\n        /* \"#utility.yul\":4366:4375   */\n      dup3\n        /* \"#utility.yul\":4362:4380   */\n      add\n        /* \"#utility.yul\":4354:4380   */\n      swap1\n      pop\n        /* \"#utility.yul\":4390:4461   */\n      tag_172\n        /* \"#utility.yul\":4458:4459   */\n      0x00\n        /* \"#utility.yul\":4447:4456   */\n      dup4\n        /* \"#utility.yul\":4443:4460   */\n      add\n        /* \"#utility.yul\":4434:4440   */\n      dup5\n        /* \"#utility.yul\":4390:4461   */\n      tag_105\n      jump\t// in\n    tag_172:\n        /* \"#utility.yul\":4246:4468   */\n      swap3\n      swap2\n      pop\n      pop\n      jump\t// out\n        /* \"#utility.yul\":4474:4596   */\n    tag_106:\n        /* \"#utility.yul\":4547:4571   */\n      tag_174\n        /* \"#utility.yul\":4565:4570   */\n      dup2\n        /* \"#utility.yul\":4547:4571   */\n      tag_104\n      jump\t// in\n    tag_174:\n        /* \"#utility.yul\":4540:4545   */\n      dup2\n        /* \"#utility.yul\":4537:4572   */\n      eq\n        /* \"#utility.yul\":4527:4590   */\n      tag_175\n      jumpi\n        /* \"#utility.yul\":4586:4587   */\n      0x00\n        /* \"#utility.yul\":4583:4584   */\n      dup1\n        /* \"#utility.yul\":4576:4588   */\n      revert\n        /* \"#utility.yul\":4527:4590   */\n    tag_175:\n        /* \"#utility.yul\":4474:4596   */\n      pop\n      jump\t// out\n        /* \"#utility.yul\":4602:4741   */\n    tag_107:\n        /* \"#utility.yul\":4648:4653   */\n      0x00\n        /* \"#utility.yul\":4686:4692   */\n      dup2\n        /* \"#utility.yul\":4673:4693   */\n      calldataload\n        /* \"#utility.yul\":4664:4693   */\n      swap1\n      pop\n        /* \"#utility.yul\":4702:4735   */\n      tag_177\n        /* \"#utility.yul\":4729:4734   */\n      dup2\n        /* \"#utility.yul\":4702:4735   */\n      tag_106\n      jump\t// in\n    tag_177:\n        /* \"#utility.yul\":4602:4741   */\n      swap3\n      swap2\n      pop\n      pop\n      jump\t// out\n        /* \"#utility.yul\":4747:5076   */\n    tag_17:\n        /* \"#utility.yul\":4806:4812   */\n      0x00\n        /* \"#utility.yul\":4855:4857   */\n      0x20\n        /* \"#utility.yul\":4843:4852   */\n      dup3\n        /* \"#utility.yul\":4834:4841   */\n      dup5\n        /* \"#utility.yul\":4830:4853   */\n      sub\n        /* \"#utility.yul\":4826:4858   */\n      slt\n        /* \"#utility.yul\":4823:4942   */\n      iszero\n      tag_179\n      jumpi\n        /* \"#utility.yul\":4861:4940   */\n      tag_180\n      tag_92\n      jump\t// in\n    tag_180:\n        /* \"#utility.yul\":4823:4942   */\n    tag_179:\n        /* \"#utility.yul\":4981:4982   */\n      0x00\n        /* \"#utility.yul\":5006:5059   */\n      tag_181\n        /* \"#utility.yul\":5051:5058   */\n      dup5\n        /* \"#utility.yul\":5042:5048   */\n      dup3\n        /* \"#utility.yul\":5031:5040   */\n      dup6\n        /* \"#utility.yul\":5027:5049   */\n      add\n        /* \"#utility.yul\":5006:5059   */\n      tag_107\n      jump\t// in\n    tag_181:\n        /* \"#utility.yul\":4996:5059   */\n      swap2\n      pop\n        /* \"#utility.yul\":4952:5069   */\n      pop\n        /* \"#utility.yul\":4747:5076   */\n      swap3\n      swap2\n      pop\n      pop\n      jump\t// out\n        /* \"#utility.yul\":5082:5181   */\n    tag_108:\n        /* \"#utility.yul\":5134:5140   */\n      0x00\n        /* \"#utility.yul\":5168:5173   */\n      dup2\n        /* \"#utility.yul\":5162:5174   */\n      mload\n        /* \"#utility.yul\":5152:5174   */\n      swap1\n      pop\n        /* \"#utility.yul\":5082:5181   */\n      swap2\n      swap1\n      pop\n      jump\t// out\n        /* \"#utility.yul\":5187:5356   */\n    tag_109:\n        /* \"#utility.yul\":5271:5282   */\n      0x00\n        /* \"#utility.yul\":5305:5311   */\n      dup3\n        /* \"#utility.yul\":5300:5303   */\n      dup3\n        /* \"#utility.yul\":5293:5312   */\n      mstore\n        /* \"#utility.yul\":5345:5349   */\n      0x20\n        /* \"#utility.yul\":5340:5343   */\n      dup3\n        /* \"#utility.yul\":5336:5350   */\n      add\n        /* \"#utility.yul\":5321:5350   */\n      swap1\n      pop\n        /* \"#utility.yul\":5187:5356   */\n      swap3\n      swap2\n      pop\n      pop\n      jump\t// out\n        /* \"#utility.yul\":5362:5669   */\n    tag_110:\n        /* \"#utility.yul\":5430:5431   */\n      0x00\n        /* \"#utility.yul\":5440:5553   */\n    tag_185:\n        /* \"#utility.yul\":5454:5460   */\n      dup4\n        /* \"#utility.yul\":5451:5452   */\n      dup2\n        /* \"#utility.yul\":5448:5461   */\n      lt\n        /* \"#utility.yul\":5440:5553   */\n      iszero\n      tag_187\n      jumpi\n        /* \"#utility.yul\":5539:5540   */\n      dup1\n        /* \"#utility.yul\":5534:5537   */\n      dup3\n        /* \"#utility.yul\":5530:5541   */\n      add\n        /* \"#utility.yul\":5524:5542   */\n      mload\n        /* \"#utility.yul\":5520:5521   */\n      dup2\n        /* \"#utility.yul\":5515:5518   */\n      dup5\n        /* \"#utility.yul\":5511:5522   */\n      add\n        /* \"#utility.yul\":5504:5543   */\n      mstore\n        /* \"#utility.yul\":5476:5478   */\n      0x20\n        /* \"#utility.yul\":5473:5474   */\n      dup2\n        /* \"#utility.yul\":5469:5479   */\n      add\n        /* \"#utility.yul\":5464:5479   */\n      swap1\n      pop\n        /* \"#utility.yul\":5440:5553   */\n      jump(tag_185)\n    tag_187:\n        /* \"#utility.yul\":5571:5577   */\n      dup4\n        /* \"#utility.yul\":5568:5569   */\n      dup2\n        /* \"#utility.yul\":5565:5578   */\n      gt\n        /* \"#utility.yul\":5562:5663   */\n      iszero\n      tag_188\n      jumpi\n        /* \"#utility.yul\":5651:5652   */\n      0x00\n        /* \"#utility.yul\":5642:5648   */\n      dup5\n        /* \"#utility.yul\":5637:5640   */\n      dup5\n        /* \"#utility.yul\":5633:5649   */\n      add\n        /* \"#utility.yul\":5626:5653   */\n      mstore\n        /* \"#utility.yul\":5562:5663   */\n    tag_188:\n        /* \"#utility.yul\":5411:5669   */\n      pop\n        /* \"#utility.yul\":5362:5669   */\n      pop\n      pop\n      pop\n      jump\t// out\n        /* \"#utility.yul\":5675:6039   */\n    tag_111:\n        /* \"#utility.yul\":5763:5766   */\n      0x00\n        /* \"#utility.yul\":5791:5830   */\n      tag_190\n        /* \"#utility.yul\":5824:5829   */\n      dup3\n        /* \"#utility.yul\":5791:5830   */\n      tag_108\n      jump\t// in\n    tag_190:\n        /* \"#utility.yul\":5846:5917   */\n      tag_191\n        /* \"#utility.yul\":5910:5916   */\n      dup2\n        /* \"#utility.yul\":5905:5908   */\n      dup6\n        /* \"#utility.yul\":5846:5917   */\n      tag_109\n      jump\t// in\n    tag_191:\n        /* \"#utility.yul\":5839:5917   */\n      swap4\n      pop\n        /* \"#utility.yul\":5926:5978   */\n      tag_192\n        /* \"#utility.yul\":5971:5977   */\n      dup2\n        /* \"#utility.yul\":5966:5969   */\n      dup6\n        /* \"#utility.yul\":5959:5963   */\n      0x20\n        /* \"#utility.yul\":5952:5957   */\n      dup7\n        /* \"#utility.yul\":5948:5964   */\n      add\n        /* \"#utility.yul\":5926:5978   */\n      tag_110\n      jump\t// in\n    tag_192:\n        /* \"#utility.yul\":6003:6032   */\n      tag_193\n        /* \"#utility.yul\":6025:6031   */\n      dup2\n        /* \"#utility.yul\":6003:6032   */\n      tag_96\n      jump\t// in\n    tag_193:\n        /* \"#utility.yul\":5998:6001   */\n      dup5\n        /* \"#utility.yul\":5994:6033   */\n      add\n        /* \"#utility.yul\":5987:6033   */\n      swap2\n      pop\n        /* \"#utility.yul\":5767:6039   */\n      pop\n        /* \"#utility.yul\":5675:6039   */\n      swap3\n      swap2\n      pop\n      pop\n      jump\t// out\n        /* \"#utility.yul\":6045:6962   */\n    tag_20:\n        /* \"#utility.yul\":6302:6306   */\n      0x00\n        /* \"#utility.yul\":6340:6343   */\n      0x80\n        /* \"#utility.yul\":6329:6338   */\n      dup3\n        /* \"#utility.yul\":6325:6344   */\n      add\n        /* \"#utility.yul\":6317:6344   */\n      swap1\n      pop\n        /* \"#utility.yul\":6390:6399   */\n      dup2\n        /* \"#utility.yul\":6384:6388   */\n      dup2\n        /* \"#utility.yul\":6380:6400   */\n      sub\n        /* \"#utility.yul\":6376:6377   */\n      0x00\n        /* \"#utility.yul\":6365:6374   */\n      dup4\n        /* \"#utility.yul\":6361:6378   */\n      add\n        /* \"#utility.yul\":6354:6401   */\n      mstore\n        /* \"#utility.yul\":6418:6496   */\n      tag_195\n        /* \"#utility.yul\":6491:6495   */\n      dup2\n        /* \"#utility.yul\":6482:6488   */\n      dup8\n        /* \"#utility.yul\":6418:6496   */\n      tag_111\n      jump\t// in\n    tag_195:\n        /* \"#utility.yul\":6410:6496   */\n      swap1\n      pop\n        /* \"#utility.yul\":6543:6552   */\n      dup2\n        /* \"#utility.yul\":6537:6541   */\n      dup2\n        /* \"#utility.yul\":6533:6553   */\n      sub\n        /* \"#utility.yul\":6528:6530   */\n      0x20\n        /* \"#utility.yul\":6517:6526   */\n      dup4\n        /* \"#utility.yul\":6513:6531   */\n      add\n        /* \"#utility.yul\":6506:6554   */\n      mstore\n        /* \"#utility.yul\":6571:6649   */\n      tag_196\n        /* \"#utility.yul\":6644:6648   */\n      dup2\n        /* \"#utility.yul\":6635:6641   */\n      dup7\n        /* \"#utility.yul\":6571:6649   */\n      tag_111\n      jump\t// in\n    tag_196:\n        /* \"#utility.yul\":6563:6649   */\n      swap1\n      pop\n        /* \"#utility.yul\":6696:6705   */\n      dup2\n        /* \"#utility.yul\":6690:6694   */\n      dup2\n        /* \"#utility.yul\":6686:6706   */\n      sub\n        /* \"#utility.yul\":6681:6683   */\n      0x40\n        /* \"#utility.yul\":6670:6679   */\n      dup4\n        /* \"#utility.yul\":6666:6684   */\n      add\n        /* \"#utility.yul\":6659:6707   */\n      mstore\n        /* \"#utility.yul\":6724:6802   */\n      tag_197\n        /* \"#utility.yul\":6797:6801   */\n      dup2\n        /* \"#utility.yul\":6788:6794   */\n      dup6\n        /* \"#utility.yul\":6724:6802   */\n      tag_111\n      jump\t// in\n    tag_197:\n        /* \"#utility.yul\":6716:6802   */\n      swap1\n      pop\n        /* \"#utility.yul\":6849:6858   */\n      dup2\n        /* \"#utility.yul\":6843:6847   */\n      dup2\n        /* \"#utility.yul\":6839:6859   */\n      sub\n        /* \"#utility.yul\":6834:6836   */\n      0x60\n        /* \"#utility.yul\":6823:6832   */\n      dup4\n        /* \"#utility.yul\":6819:6837   */\n      add\n        /* \"#utility.yul\":6812:6860   */\n      mstore\n        /* \"#utility.yul\":6877:6955   */\n      tag_198\n        /* \"#utility.yul\":6950:6954   */\n      dup2\n        /* \"#utility.yul\":6941:6947   */\n      dup5\n        /* \"#utility.yul\":6877:6955   */\n      tag_111\n      jump\t// in\n    tag_198:\n        /* \"#utility.yul\":6869:6955   */\n      swap1\n      pop\n        /* \"#utility.yul\":6045:6962   */\n      swap6\n      swap5\n      pop\n      pop\n      pop\n      pop\n      pop\n      jump\t// out\n        /* \"#utility.yul\":6968:7106   */\n    tag_112:\n        /* \"#utility.yul\":7059:7065   */\n      0x00\n        /* \"#utility.yul\":7093:7098   */\n      dup2\n        /* \"#utility.yul\":7087:7099   */\n      mload\n        /* \"#utility.yul\":7077:7099   */\n      swap1\n      pop\n        /* \"#utility.yul\":6968:7106   */\n      swap2\n      swap1\n      pop\n      jump\t// out\n        /* \"#utility.yul\":7112:7320   */\n    tag_113:\n        /* \"#utility.yul\":7235:7246   */\n      0x00\n        /* \"#utility.yul\":7269:7275   */\n      dup3\n        /* \"#utility.yul\":7264:7267   */\n      dup3\n        /* \"#utility.yul\":7257:7276   */\n      mstore\n        /* \"#utility.yul\":7309:7313   */\n      0x20\n        /* \"#utility.yul\":7304:7307   */\n      dup3\n        /* \"#utility.yul\":7300:7314   */\n      add\n        /* \"#utility.yul\":7285:7314   */\n      swap1\n      pop\n        /* \"#utility.yul\":7112:7320   */\n      swap3\n      swap2\n      pop\n      pop\n      jump\t// out\n        /* \"#utility.yul\":7326:7482   */\n    tag_114:\n        /* \"#utility.yul\":7417:7421   */\n      0x00\n        /* \"#utility.yul\":7440:7443   */\n      dup2\n        /* \"#utility.yul\":7432:7443   */\n      swap1\n      pop\n        /* \"#utility.yul\":7470:7474   */\n      0x20\n        /* \"#utility.yul\":7465:7468   */\n      dup3\n        /* \"#utility.yul\":7461:7475   */\n      add\n        /* \"#utility.yul\":7453:7475   */\n      swap1\n      pop\n        /* \"#utility.yul\":7326:7482   */\n      swap2\n      swap1\n      pop\n      jump\t// out\n        /* \"#utility.yul\":7488:7647   */\n    tag_115:\n        /* \"#utility.yul\":7562:7573   */\n      0x00\n        /* \"#utility.yul\":7596:7602   */\n      dup3\n        /* \"#utility.yul\":7591:7594   */\n      dup3\n        /* \"#utility.yul\":7584:7603   */\n      mstore\n        /* \"#utility.yul\":7636:7640   */\n      0x20\n        /* \"#utility.yul\":7631:7634   */\n      dup3\n        /* \"#utility.yul\":7627:7641   */\n      add\n        /* \"#utility.yul\":7612:7641   */\n      swap1\n      pop\n        /* \"#utility.yul\":7488:7647   */\n      swap3\n      swap2\n      pop\n      pop\n      jump\t// out\n        /* \"#utility.yul\":7653:7997   */\n    tag_116:\n        /* \"#utility.yul\":7731:7734   */\n      0x00\n        /* \"#utility.yul\":7759:7798   */\n      tag_204\n        /* \"#utility.yul\":7792:7797   */\n      dup3\n        /* \"#utility.yul\":7759:7798   */\n      tag_108\n      jump\t// in\n    tag_204:\n        /* \"#utility.yul\":7814:7875   */\n      tag_205\n        /* \"#utility.yul\":7868:7874   */\n      dup2\n        /* \"#utility.yul\":7863:7866   */\n      dup6\n        /* \"#utility.yul\":7814:7875   */\n      tag_115\n      jump\t// in\n    tag_205:\n        /* \"#utility.yul\":7807:7875   */\n      swap4\n      pop\n        /* \"#utility.yul\":7884:7936   */\n      tag_206\n        /* \"#utility.yul\":7929:7935   */\n      dup2\n        /* \"#utility.yul\":7924:7927   */\n      dup6\n        /* \"#utility.yul\":7917:7921   */\n      0x20\n        /* \"#utility.yul\":7910:7915   */\n      dup7\n        /* \"#utility.yul\":7906:7922   */\n      add\n        /* \"#utility.yul\":7884:7936   */\n      tag_110\n      jump\t// in\n    tag_206:\n        /* \"#utility.yul\":7961:7990   */\n      tag_207\n        /* \"#utility.yul\":7983:7989   */\n      dup2\n        /* \"#utility.yul\":7961:7990   */\n      tag_96\n      jump\t// in\n    tag_207:\n        /* \"#utility.yul\":7956:7959   */\n      dup5\n        /* \"#utility.yul\":7952:7991   */\n      add\n        /* \"#utility.yul\":7945:7991   */\n      swap2\n      pop\n        /* \"#utility.yul\":7735:7997   */\n      pop\n        /* \"#utility.yul\":7653:7997   */\n      swap3\n      swap2\n      pop\n      pop\n      jump\t// out\n        /* \"#utility.yul\":8073:9246   */\n    tag_117:\n        /* \"#utility.yul\":8180:8183   */\n      0x00\n        /* \"#utility.yul\":8216:8220   */\n      0x80\n        /* \"#utility.yul\":8211:8214   */\n      dup4\n        /* \"#utility.yul\":8207:8221   */\n      add\n        /* \"#utility.yul\":8310:8314   */\n      0x00\n        /* \"#utility.yul\":8303:8308   */\n      dup4\n        /* \"#utility.yul\":8299:8315   */\n      add\n        /* \"#utility.yul\":8293:8316   */\n      mload\n        /* \"#utility.yul\":8363:8366   */\n      dup5\n        /* \"#utility.yul\":8357:8361   */\n      dup3\n        /* \"#utility.yul\":8353:8367   */\n      sub\n        /* \"#utility.yul\":8346:8350   */\n      0x00\n        /* \"#utility.yul\":8341:8344   */\n      dup7\n        /* \"#utility.yul\":8337:8351   */\n      add\n        /* \"#utility.yul\":8330:8368   */\n      mstore\n        /* \"#utility.yul\":8389:8462   */\n      tag_209\n        /* \"#utility.yul\":8457:8461   */\n      dup3\n        /* \"#utility.yul\":8443:8455   */\n      dup3\n        /* \"#utility.yul\":8389:8462   */\n      tag_116\n      jump\t// in\n    tag_209:\n        /* \"#utility.yul\":8381:8462   */\n      swap2\n      pop\n        /* \"#utility.yul\":8231:8473   */\n      pop\n        /* \"#utility.yul\":8562:8566   */\n      0x20\n        /* \"#utility.yul\":8555:8560   */\n      dup4\n        /* \"#utility.yul\":8551:8567   */\n      add\n        /* \"#utility.yul\":8545:8568   */\n      mload\n        /* \"#utility.yul\":8615:8618   */\n      dup5\n        /* \"#utility.yul\":8609:8613   */\n      dup3\n        /* \"#utility.yul\":8605:8619   */\n      sub\n        /* \"#utility.yul\":8598:8602   */\n      0x20\n        /* \"#utility.yul\":8593:8596   */\n      dup7\n        /* \"#utility.yul\":8589:8603   */\n      add\n        /* \"#utility.yul\":8582:8620   */\n      mstore\n        /* \"#utility.yul\":8641:8714   */\n      tag_210\n        /* \"#utility.yul\":8709:8713   */\n      dup3\n        /* \"#utility.yul\":8695:8707   */\n      dup3\n        /* \"#utility.yul\":8641:8714   */\n      tag_116\n      jump\t// in\n    tag_210:\n        /* \"#utility.yul\":8633:8714   */\n      swap2\n      pop\n        /* \"#utility.yul\":8483:8725   */\n      pop\n        /* \"#utility.yul\":8807:8811   */\n      0x40\n        /* \"#utility.yul\":8800:8805   */\n      dup4\n        /* \"#utility.yul\":8796:8812   */\n      add\n        /* \"#utility.yul\":8790:8813   */\n      mload\n        /* \"#utility.yul\":8860:8863   */\n      dup5\n        /* \"#utility.yul\":8854:8858   */\n      dup3\n        /* \"#utility.yul\":8850:8864   */\n      sub\n        /* \"#utility.yul\":8843:8847   */\n      0x40\n        /* \"#utility.yul\":8838:8841   */\n      dup7\n        /* \"#utility.yul\":8834:8848   */\n      add\n        /* \"#utility.yul\":8827:8865   */\n      mstore\n        /* \"#utility.yul\":8886:8959   */\n      tag_211\n        /* \"#utility.yul\":8954:8958   */\n      dup3\n        /* \"#utility.yul\":8940:8952   */\n      dup3\n        /* \"#utility.yul\":8886:8959   */\n      tag_116\n      jump\t// in\n    tag_211:\n        /* \"#utility.yul\":8878:8959   */\n      swap2\n      pop\n        /* \"#utility.yul\":8735:8970   */\n      pop\n        /* \"#utility.yul\":9056:9060   */\n      0x60\n        /* \"#utility.yul\":9049:9054   */\n      dup4\n        /* \"#utility.yul\":9045:9061   */\n      add\n        /* \"#utility.yul\":9039:9062   */\n      mload\n        /* \"#utility.yul\":9109:9112   */\n      dup5\n        /* \"#utility.yul\":9103:9107   */\n      dup3\n        /* \"#utility.yul\":9099:9113   */\n      sub\n        /* \"#utility.yul\":9092:9096   */\n      0x60\n        /* \"#utility.yul\":9087:9090   */\n      dup7\n        /* \"#utility.yul\":9083:9097   */\n      add\n        /* \"#utility.yul\":9076:9114   */\n      mstore\n        /* \"#utility.yul\":9135:9208   */\n      tag_212\n        /* \"#utility.yul\":9203:9207   */\n      dup3\n        /* \"#utility.yul\":9189:9201   */\n      dup3\n        /* \"#utility.yul\":9135:9208   */\n      tag_116\n      jump\t// in\n    tag_212:\n        /* \"#utility.yul\":9127:9208   */\n      swap2\n      pop\n        /* \"#utility.yul\":8980:9219   */\n      pop\n        /* \"#utility.yul\":9236:9240   */\n      dup1\n        /* \"#utility.yul\":9229:9240   */\n      swap2\n      pop\n        /* \"#utility.yul\":8185:9246   */\n      pop\n        /* \"#utility.yul\":8073:9246   */\n      swap3\n      swap2\n      pop\n      pop\n      jump\t// out\n        /* \"#utility.yul\":9252:9504   */\n    tag_118:\n        /* \"#utility.yul\":9369:9379   */\n      0x00\n        /* \"#utility.yul\":9404:9498   */\n      tag_214\n        /* \"#utility.yul\":9494:9497   */\n      dup4\n        /* \"#utility.yul\":9486:9492   */\n      dup4\n        /* \"#utility.yul\":9404:9498   */\n      tag_117\n      jump\t// in\n    tag_214:\n        /* \"#utility.yul\":9390:9498   */\n      swap1\n      pop\n        /* \"#utility.yul\":9252:9504   */\n      swap3\n      swap2\n      pop\n      pop\n      jump\t// out\n        /* \"#utility.yul\":9510:9647   */\n    tag_119:\n        /* \"#utility.yul\":9604:9608   */\n      0x00\n        /* \"#utility.yul\":9636:9640   */\n      0x20\n        /* \"#utility.yul\":9631:9634   */\n      dup3\n        /* \"#utility.yul\":9627:9641   */\n      add\n        /* \"#utility.yul\":9619:9641   */\n      swap1\n      pop\n        /* \"#utility.yul\":9510:9647   */\n      swap2\n      swap1\n      pop\n      jump\t// out\n        /* \"#utility.yul\":9727:10830   */\n    tag_120:\n        /* \"#utility.yul\":9894:9897   */\n      0x00\n        /* \"#utility.yul\":9923:10001   */\n      tag_217\n        /* \"#utility.yul\":9995:10000   */\n      dup3\n        /* \"#utility.yul\":9923:10001   */\n      tag_112\n      jump\t// in\n    tag_217:\n        /* \"#utility.yul\":10017:10127   */\n      tag_218\n        /* \"#utility.yul\":10120:10126   */\n      dup2\n        /* \"#utility.yul\":10115:10118   */\n      dup6\n        /* \"#utility.yul\":10017:10127   */\n      tag_113\n      jump\t// in\n    tag_218:\n        /* \"#utility.yul\":10010:10127   */\n      swap4\n      pop\n        /* \"#utility.yul\":10153:10156   */\n      dup4\n        /* \"#utility.yul\":10198:10202   */\n      0x20\n        /* \"#utility.yul\":10190:10196   */\n      dup3\n        /* \"#utility.yul\":10186:10203   */\n      mul\n        /* \"#utility.yul\":10181:10184   */\n      dup6\n        /* \"#utility.yul\":10177:10204   */\n      add\n        /* \"#utility.yul\":10228:10308   */\n      tag_219\n        /* \"#utility.yul\":10302:10307   */\n      dup6\n        /* \"#utility.yul\":10228:10308   */\n      tag_114\n      jump\t// in\n    tag_219:\n        /* \"#utility.yul\":10331:10338   */\n      dup1\n        /* \"#utility.yul\":10362:10363   */\n      0x00\n        /* \"#utility.yul\":10347:10785   */\n    tag_220:\n        /* \"#utility.yul\":10372:10378   */\n      dup6\n        /* \"#utility.yul\":10369:10370   */\n      dup2\n        /* \"#utility.yul\":10366:10379   */\n      lt\n        /* \"#utility.yul\":10347:10785   */\n      iszero\n      tag_222\n      jumpi\n        /* \"#utility.yul\":10443:10452   */\n      dup5\n        /* \"#utility.yul\":10437:10441   */\n      dup5\n        /* \"#utility.yul\":10433:10453   */\n      sub\n        /* \"#utility.yul\":10428:10431   */\n      dup10\n        /* \"#utility.yul\":10421:10454   */\n      mstore\n        /* \"#utility.yul\":10494:10500   */\n      dup2\n        /* \"#utility.yul\":10488:10501   */\n      mload\n        /* \"#utility.yul\":10522:10634   */\n      tag_223\n        /* \"#utility.yul\":10629:10633   */\n      dup6\n        /* \"#utility.yul\":10614:10627   */\n      dup3\n        /* \"#utility.yul\":10522:10634   */\n      tag_118\n      jump\t// in\n    tag_223:\n        /* \"#utility.yul\":10514:10634   */\n      swap5\n      pop\n        /* \"#utility.yul\":10657:10741   */\n      tag_224\n        /* \"#utility.yul\":10734:10740   */\n      dup4\n        /* \"#utility.yul\":10657:10741   */\n      tag_119\n      jump\t// in\n    tag_224:\n        /* \"#utility.yul\":10647:10741   */\n      swap3\n      pop\n        /* \"#utility.yul\":10770:10774   */\n      0x20\n        /* \"#utility.yul\":10765:10768   */\n      dup11\n        /* \"#utility.yul\":10761:10775   */\n      add\n        /* \"#utility.yul\":10754:10775   */\n      swap10\n      pop\n        /* \"#utility.yul\":10407:10785   */\n      pop\n        /* \"#utility.yul\":10394:10395   */\n      0x01\n        /* \"#utility.yul\":10391:10392   */\n      dup2\n        /* \"#utility.yul\":10387:10396   */\n      add\n        /* \"#utility.yul\":10382:10396   */\n      swap1\n      pop\n        /* \"#utility.yul\":10347:10785   */\n      jump(tag_220)\n    tag_222:\n        /* \"#utility.yul\":10351:10365   */\n      pop\n        /* \"#utility.yul\":10801:10805   */\n      dup3\n        /* \"#utility.yul\":10794:10805   */\n      swap8\n      pop\n        /* \"#utility.yul\":10821:10824   */\n      dup8\n        /* \"#utility.yul\":10814:10824   */\n      swap6\n      pop\n        /* \"#utility.yul\":9899:10830   */\n      pop\n      pop\n      pop\n      pop\n      pop\n        /* \"#utility.yul\":9727:10830   */\n      swap3\n      swap2\n      pop\n      pop\n      jump\t// out\n        /* \"#utility.yul\":10836:11305   */\n    tag_24:\n        /* \"#utility.yul\":11027:11031   */\n      0x00\n        /* \"#utility.yul\":11065:11067   */\n      0x20\n        /* \"#utility.yul\":11054:11063   */\n      dup3\n        /* \"#utility.yul\":11050:11068   */\n      add\n        /* \"#utility.yul\":11042:11068   */\n      swap1\n      pop\n        /* \"#utility.yul\":11114:11123   */\n      dup2\n        /* \"#utility.yul\":11108:11112   */\n      dup2\n        /* \"#utility.yul\":11104:11124   */\n      sub\n        /* \"#utility.yul\":11100:11101   */\n      0x00\n        /* \"#utility.yul\":11089:11098   */\n      dup4\n        /* \"#utility.yul\":11085:11102   */\n      add\n        /* \"#utility.yul\":11078:11125   */\n      mstore\n        /* \"#utility.yul\":11142:11298   */\n      tag_226\n        /* \"#utility.yul\":11293:11297   */\n      dup2\n        /* \"#utility.yul\":11284:11290   */\n      dup5\n        /* \"#utility.yul\":11142:11298   */\n      tag_120\n      jump\t// in\n    tag_226:\n        /* \"#utility.yul\":11134:11298   */\n      swap1\n      pop\n        /* \"#utility.yul\":10836:11305   */\n      swap3\n      swap2\n      pop\n      pop\n      jump\t// out\n        /* \"#utility.yul\":11311:11491   */\n    tag_121:\n        /* \"#utility.yul\":11359:11436   */\n      0x4e487b7100000000000000000000000000000000000000000000000000000000\n        /* \"#utility.yul\":11356:11357   */\n      0x00\n        /* \"#utility.yul\":11349:11437   */\n      mstore\n        /* \"#utility.yul\":11456:11460   */\n      0x11\n        /* \"#utility.yul\":11453:11454   */\n      0x04\n        /* \"#utility.yul\":11446:11461   */\n      mstore\n        /* \"#utility.yul\":11480:11484   */\n      0x24\n        /* \"#utility.yul\":11477:11478   */\n      0x00\n        /* \"#utility.yul\":11470:11485   */\n      revert\n        /* \"#utility.yul\":11497:11730   */\n    tag_33:\n        /* \"#utility.yul\":11536:11539   */\n      0x00\n        /* \"#utility.yul\":11559:11583   */\n      tag_229\n        /* \"#utility.yul\":11577:11582   */\n      dup3\n        /* \"#utility.yul\":11559:11583   */\n      tag_104\n      jump\t// in\n    tag_229:\n        /* \"#utility.yul\":11550:11583   */\n      swap2\n      pop\n        /* \"#utility.yul\":11605:11671   */\n      0xffffffffffffffffffffffffffffffffffffffffffffffffffffffffffffffff\n        /* \"#utility.yul\":11598:11603   */\n      dup3\n        /* \"#utility.yul\":11595:11672   */\n      eq\n        /* \"#utility.yul\":11592:11695   */\n      iszero\n      tag_230\n      jumpi\n        /* \"#utility.yul\":11675:11693   */\n      tag_231\n      tag_121\n      jump\t// in\n    tag_231:\n        /* \"#utility.yul\":11592:11695   */\n    tag_230:\n        /* \"#utility.yul\":11722:11723   */\n      0x01\n        /* \"#utility.yul\":11715:11720   */\n      dup3\n        /* \"#utility.yul\":11711:11724   */\n      add\n        /* \"#utility.yul\":11704:11724   */\n      swap1\n      pop\n        /* \"#utility.yul\":11497:11730   */\n      swap2\n      swap1\n      pop\n      jump\t// out\n        /* \"#utility.yul\":11736:11916   */\n    tag_122:\n        /* \"#utility.yul\":11784:11861   */\n      0x4e487b7100000000000000000000000000000000000000000000000000000000\n        /* \"#utility.yul\":11781:11782   */\n      0x00\n        /* \"#utility.yul\":11774:11862   */\n      mstore\n        /* \"#utility.yul\":11881:11885   */\n      0x22\n        /* \"#utility.yul\":11878:11879   */\n      0x04\n        /* \"#utility.yul\":11871:11886   */\n      mstore\n        /* \"#utility.yul\":11905:11909   */\n      0x24\n        /* \"#utility.yul\":11902:11903   */\n      0x00\n        /* \"#utility.yul\":11895:11910   */\n      revert\n        /* \"#utility.yul\":11922:12242   */\n    tag_37:\n        /* \"#utility.yul\":11966:11972   */\n      0x00\n        /* \"#utility.yul\":12003:12004   */\n      0x02\n        /* \"#utility.yul\":11997:12001   */\n      dup3\n        /* \"#utility.yul\":11993:12005   */\n      div\n        /* \"#utility.yul\":11983:12005   */\n      swap1\n      pop\n        /* \"#utility.yul\":12050:12051   */\n      0x01\n        /* \"#utility.yul\":12044:12048   */\n      dup3\n        /* \"#utility.yul\":12040:12052   */\n      and\n        /* \"#utility.yul\":12071:12089   */\n      dup1\n        /* \"#utility.yul\":12061:12142   */\n      tag_234\n      jumpi\n        /* \"#utility.yul\":12127:12131   */\n      0x7f\n        /* \"#utility.yul\":12119:12125   */\n      dup3\n        /* \"#utility.yul\":12115:12132   */\n      and\n        /* \"#utility.yul\":12105:12132   */\n      swap2\n      pop\n        /* \"#utility.yul\":12061:12142   */\n    tag_234:\n        /* \"#utility.yul\":12189:12191   */\n      0x20\n        /* \"#utility.yul\":12181:12187   */\n      dup3\n        /* \"#utility.yul\":12178:12192   */\n      lt\n        /* \"#utility.yul\":12158:12176   */\n      dup2\n        /* \"#utility.yul\":12155:12193   */\n      eq\n        /* \"#utility.yul\":12152:12236   */\n      iszero\n      tag_235\n      jumpi\n        /* \"#utility.yul\":12208:12226   */\n      tag_236\n      tag_122\n      jump\t// in\n    tag_236:\n        /* \"#utility.yul\":12152:12236   */\n    tag_235:\n        /* \"#utility.yul\":11973:12242   */\n      pop\n        /* \"#utility.yul\":11922:12242   */\n      swap2\n      swap1\n      pop\n      jump\t// out\n\n    auxdata: 0xa2646970667358221220f0c7b5c3050ad4b529f03ee40df42ce1e3984562c074fe61291c96177d263b7864736f6c63430008090033\n}\n","bytecode":{"linkReferences":{},"object":"6080604052600060015534801561001557600080fd5b50610dce806100256000396000f3fe608060405234801561001057600080fd5b506004361061004c5760003560e01c806306981aa3146100515780632826f6a51461006d5780634bd811751461008b578063ff782542146100be575b600080fd5b61006b600480360381019061006691906108cc565b6100dc565b005b6100756101c2565b60405161008291906109bc565b60405180910390f35b6100a560048036038101906100a09190610a03565b6101c8565b6040516100b59493929190610ab8565b60405180910390f35b6100c6610428565b6040516100d39190610c9d565b60405180910390f35b60006040518060800160405280868152602001858152602001848152602001838152509050600081908060018154018082558091505060019003906000526020600020906004020160009091909190915060008201518160000190805190602001906101499291906106cf565b5060208201518160010190805190602001906101669291906106cf565b5060408201518160020190805190602001906101839291906106cf565b5060608201518160030190805190602001906101a09291906106cf565b505050600160008154809291906101b690610cee565b91905055505050505050565b60015481565b600081815481106101d857600080fd5b90600052602060002090600402016000915090508060000180546101fb90610d66565b80601f016020809104026020016040519081016040528092919081815260200182805461022790610d66565b80156102745780601f1061024957610100808354040283529160200191610274565b820191906000526020600020905b81548152906001019060200180831161025757829003601f168201915b50505050509080600101805461028990610d66565b80601f01602080910402602001604051908101604052809291908181526020018280546102b590610d66565b80156103025780601f106102d757610100808354040283529160200191610302565b820191906000526020600020905b8154815290600101906020018083116102e557829003601f168201915b50505050509080600201805461031790610d66565b80601f016020809104026020016040519081016040528092919081815260200182805461034390610d66565b80156103905780601f1061036557610100808354040283529160200191610390565b820191906000526020600020905b81548152906001019060200180831161037357829003601f168201915b5050505050908060030180546103a590610d66565b80601f01602080910402602001604051908101604052809291908181526020018280546103d190610d66565b801561041e5780601f106103f35761010080835404028352916020019161041e565b820191906000526020600020905b81548152906001019060200180831161040157829003601f168201915b5050505050905084565b60606000805480602002602001604051908101604052809291908181526020016000905b828210156106c6578382906000526020600020906004020160405180608001604052908160008201805461047f90610d66565b80601f01602080910402602001604051908101604052809291908181526020018280546104ab90610d66565b80156104f85780601f106104cd576101008083540402835291602001916104f8565b820191906000526020600020905b8154815290600101906020018083116104db57829003601f168201915b5050505050815260200160018201805461051190610d66565b80601f016020809104026020016040519081016040528092919081815260200182805461053d90610d66565b801561058a5780601f1061055f5761010080835404028352916020019161058a565b820191906000526020600020905b81548152906001019060200180831161056d57829003601f168201915b505050505081526020016002820180546105a390610d66565b80601f01602080910402602001604051908101604052809291908181526020018280546105cf90610d66565b801561061c5780601f106105f15761010080835404028352916020019161061c565b820191906000526020600020905b8154815290600101906020018083116105ff57829003601f168201915b5050505050815260200160038201805461063590610d66565b80601f016020809104026020016040519081016040528092919081815260200182805461066190610d66565b80156106ae5780601f10610683576101008083540402835291602001916106ae565b820191906000526020600020905b81548152906001019060200180831161069157829003601f168201915b5050505050815250508152602001906001019061044c565b50505050905090565b8280546106db90610d66565b90600052602060002090601f0160209004810192826106fd5760008555610744565b82601f1061071657805160ff1916838001178555610744565b82800160010185558215610744579182015b82811115610743578251825591602001919060010190610728565b5b5090506107519190610755565b5090565b5b8082111561076e576000816000905550600101610756565b5090565b6000604051905090565b600080fd5b600080fd5b600080fd5b600080fd5b6000601f19601f8301169050919050565b7f4e487b7100000000000000000000000000000000000000000000000000000000600052604160045260246000fd5b6107d982610790565b810181811067ffffffffffffffff821117156107f8576107f76107a1565b5b80604052505050565b600061080b610772565b905061081782826107d0565b919050565b600067ffffffffffffffff821115610837576108366107a1565b5b61084082610790565b9050602081019050919050565b82818337600083830152505050565b600061086f61086a8461081c565b610801565b90508281526020810184848401111561088b5761088a61078b565b5b61089684828561084d565b509392505050565b600082601f8301126108b3576108b2610786565b5b81356108c384826020860161085c565b91505092915050565b600080600080608085870312156108e6576108e561077c565b5b600085013567ffffffffffffffff81111561090457610903610781565b5b6109108782880161089e565b945050602085013567ffffffffffffffff81111561093157610930610781565b5b61093d8782880161089e565b935050604085013567ffffffffffffffff81111561095e5761095d610781565b5b61096a8782880161089e565b925050606085013567ffffffffffffffff81111561098b5761098a610781565b5b6109978782880161089e565b91505092959194509250565b6000819050919050565b6109b6816109a3565b82525050565b60006020820190506109d160008301846109ad565b92915050565b6109e0816109a3565b81146109eb57600080fd5b50565b6000813590506109fd816109d7565b92915050565b600060208284031215610a1957610a1861077c565b5b6000610a27848285016109ee565b91505092915050565b600081519050919050565b600082825260208201905092915050565b60005b83811015610a6a578082015181840152602081019050610a4f565b83811115610a79576000848401525b50505050565b6000610a8a82610a30565b610a948185610a3b565b9350610aa4818560208601610a4c565b610aad81610790565b840191505092915050565b60006080820190508181036000830152610ad28187610a7f565b90508181036020830152610ae68186610a7f565b90508181036040830152610afa8185610a7f565b90508181036060830152610b0e8184610a7f565b905095945050505050565b600081519050919050565b600082825260208201905092915050565b6000819050602082019050919050565b600082825260208201905092915050565b6000610b6182610a30565b610b6b8185610b45565b9350610b7b818560208601610a4c565b610b8481610790565b840191505092915050565b60006080830160008301518482036000860152610bac8282610b56565b91505060208301518482036020860152610bc68282610b56565b91505060408301518482036040860152610be08282610b56565b91505060608301518482036060860152610bfa8282610b56565b9150508091505092915050565b6000610c138383610b8f565b905092915050565b6000602082019050919050565b6000610c3382610b19565b610c3d8185610b24565b935083602082028501610c4f85610b35565b8060005b85811015610c8b5784840389528151610c6c8582610c07565b9450610c7783610c1b565b925060208a01995050600181019050610c53565b50829750879550505050505092915050565b60006020820190508181036000830152610cb78184610c28565b905092915050565b7f4e487b7100000000000000000000000000000000000000000000000000000000600052601160045260246000fd5b6000610cf9826109a3565b91507fffffffffffffffffffffffffffffffffffffffffffffffffffffffffffffffff821415610d2c57610d2b610cbf565b5b600182019050919050565b7f4e487b7100000000000000000000000000000000000000000000000000000000600052602260045260246000fd5b60006002820490506001821680610d7e57607f821691505b60208210811415610d9257610d91610d37565b5b5091905056fea2646970667358221220f0c7b5c3050ad4b529f03ee40df42ce1e3984562c074fe61291c96177d263b7864736f6c63430008090033","opcodes":"PUSH1 0x80 PUSH1 0x40 MSTORE PUSH1 0x0 PUSH1 0x1 SSTORE CALLVALUE DUP1 ISZERO PUSH2 0x15 JUMPI PUSH1 0x0 DUP1 REVERT JUMPDEST POP PUSH2 0xDCE DUP1 PUSH2 0x25 PUSH1 0x0 CODECOPY PUSH1 0x0 RETURN INVALID PUSH1 0x80 PUSH1 0x40 MSTORE CALLVALUE DUP1 ISZERO PUSH2 0x10 JUMPI PUSH1 0x0 DUP1 REVERT JUMPDEST POP PUSH1 0x4 CALLDATASIZE LT PUSH2 0x4C JUMPI PUSH1 0x0 CALLDATALOAD PUSH1 0xE0 SHR DUP1 PUSH4 0x6981AA3 EQ PUSH2 0x51 JUMPI DUP1 PUSH4 0x2826F6A5 EQ PUSH2 0x6D JUMPI DUP1 PUSH4 0x4BD81175 EQ PUSH2 0x8B JUMPI DUP1 PUSH4 0xFF782542 EQ PUSH2 0xBE JUMPI JUMPDEST PUSH1 0x0 DUP1 REVERT JUMPDEST PUSH2 0x6B PUSH1 0x4 DUP1 CALLDATASIZE SUB DUP2 ADD SWAP1 PUSH2 0x66 SWAP2 SWAP1 PUSH2 0x8CC JUMP JUMPDEST PUSH2 0xDC JUMP JUMPDEST STOP JUMPDEST PUSH2 0x75 PUSH2 0x1C2 JUMP JUMPDEST PUSH1 0x40 MLOAD PUSH2 0x82 SWAP2 SWAP1 PUSH2 0x9BC JUMP JUMPDEST PUSH1 0x40 MLOAD DUP1 SWAP2 SUB SWAP1 RETURN JUMPDEST PUSH2 0xA5 PUSH1 0x4 DUP1 CALLDATASIZE SUB DUP2 ADD SWAP1 PUSH2 0xA0 SWAP2 SWAP1 PUSH2 0xA03 JUMP JUMPDEST PUSH2 0x1C8 JUMP JUMPDEST PUSH1 0x40 MLOAD PUSH2 0xB5 SWAP5 SWAP4 SWAP3 SWAP2 SWAP1 PUSH2 0xAB8 JUMP JUMPDEST PUSH1 0x40 MLOAD DUP1 SWAP2 SUB SWAP1 RETURN JUMPDEST PUSH2 0xC6 PUSH2 0x428 JUMP JUMPDEST PUSH1 0x40 MLOAD PUSH2 0xD3 SWAP2 SWAP1 PUSH2 0xC9D JUMP JUMPDEST PUSH1 0x40 MLOAD DUP1 SWAP2 SUB SWAP1 RETURN JUMPDEST PUSH1 0x0 PUSH1 0x40 MLOAD DUP1 PUSH1 0x80 ADD PUSH1 0x40 MSTORE DUP1 DUP7 DUP2 MSTORE PUSH1 0x20 ADD DUP6 DUP2 MSTORE PUSH1 0x20 ADD DUP5 DUP2 MSTORE PUSH1 0x20 ADD DUP4 DUP2 MSTORE POP SWAP1 POP PUSH1 0x0 DUP2 SWAP1 DUP1 PUSH1 0x1 DUP2 SLOAD ADD DUP1 DUP3 SSTORE DUP1 SWAP2 POP POP PUSH1 0x1 SWAP1 SUB SWAP1 PUSH1 0x0 MSTORE PUSH1 0x20 PUSH1 0x0 KECCAK256 SWAP1 PUSH1 0x4 MUL ADD PUSH1 0x0 SWAP1 SWAP2 SWAP1 SWAP2 SWAP1 SWAP2 POP PUSH1 0x0 DUP3 ADD MLOAD DUP2 PUSH1 0x0 ADD SWAP1 DUP1 MLOAD SWAP1 PUSH1 0x20 ADD SWAP1 PUSH2 0x149 SWAP3 SWAP2 SWAP1 PUSH2 0x6CF JUMP JUMPDEST POP PUSH1 0x20 DUP3 ADD MLOAD DUP2 PUSH1 0x1 ADD SWAP1 DUP1 MLOAD SWAP1 PUSH1 0x20 ADD SWAP1 PUSH2 0x166 SWAP3 SWAP2 SWAP1 PUSH2 0x6CF JUMP JUMPDEST POP PUSH1 0x40 DUP3 ADD MLOAD DUP2 PUSH1 0x2 ADD SWAP1 DUP1 MLOAD SWAP1 PUSH1 0x20 ADD SWAP1 PUSH2 0x183 SWAP3 SWAP2 SWAP1 PUSH2 0x6CF JUMP JUMPDEST POP PUSH1 0x60 DUP3 ADD MLOAD DUP2 PUSH1 0x3 ADD SWAP1 DUP1 MLOAD SWAP1 PUSH1 0x20 ADD SWAP1 PUSH2 0x1A0 SWAP3 SWAP2 SWAP1 PUSH2 0x6CF JUMP JUMPDEST POP POP POP PUSH1 0x1 PUSH1 0x0 DUP2 SLOAD DUP1 SWAP3 SWAP2 SWAP1 PUSH2 0x1B6 SWAP1 PUSH2 0xCEE JUMP JUMPDEST SWAP2 SWAP1 POP SSTORE POP POP POP POP POP POP JUMP JUMPDEST PUSH1 0x1 SLOAD DUP2 JUMP JUMPDEST PUSH1 0x0 DUP2 DUP2 SLOAD DUP2 LT PUSH2 0x1D8 JUMPI PUSH1 0x0 DUP1 REVERT JUMPDEST SWAP1 PUSH1 0x0 MSTORE PUSH1 0x20 PUSH1 0x0 KECCAK256 SWAP1 PUSH1 0x4 MUL ADD PUSH1 0x0 SWAP2 POP SWAP1 POP DUP1 PUSH1 0x0 ADD DUP1 SLOAD PUSH2 0x1FB SWAP1 PUSH2 0xD66 JUMP JUMPDEST DUP1 PUSH1 0x1F ADD PUSH1 0x20 DUP1 SWAP2 DIV MUL PUSH1 0x20 ADD PUSH1 0x40 MLOAD SWAP1 DUP2 ADD PUSH1 0x40 MSTORE DUP1 SWAP3 SWAP2 SWAP1 DUP2 DUP2 MSTORE PUSH1 0x20 ADD DUP3 DUP1 SLOAD PUSH2 0x227 SWAP1 PUSH2 0xD66 JUMP JUMPDEST DUP1 ISZERO PUSH2 0x274 JUMPI DUP1 PUSH1 0x1F LT PUSH2 0x249 JUMPI PUSH2 0x100 DUP1 DUP4 SLOAD DIV MUL DUP4 MSTORE SWAP2 PUSH1 0x20 ADD SWAP2 PUSH2 0x274 JUMP JUMPDEST DUP3 ADD SWAP2 SWAP1 PUSH1 0x0 MSTORE PUSH1 0x20 PUSH1 0x0 KECCAK256 SWAP1 JUMPDEST DUP2 SLOAD DUP2 MSTORE SWAP1 PUSH1 0x1 ADD SWAP1 PUSH1 0x20 ADD DUP1 DUP4 GT PUSH2 0x257 JUMPI DUP3 SWAP1 SUB PUSH1 0x1F AND DUP3 ADD SWAP2 JUMPDEST POP POP POP POP POP SWAP1 DUP1 PUSH1 0x1 ADD DUP1 SLOAD PUSH2 0x289 SWAP1 PUSH2 0xD66 JUMP JUMPDEST DUP1 PUSH1 0x1F ADD PUSH1 0x20 DUP1 SWAP2 DIV MUL PUSH1 0x20 ADD PUSH1 0x40 MLOAD SWAP1 DUP2 ADD PUSH1 0x40 MSTORE DUP1 SWAP3 SWAP2 SWAP1 DUP2 DUP2 MSTORE PUSH1 0x20 ADD DUP3 DUP1 SLOAD PUSH2 0x2B5 SWAP1 PUSH2 0xD66 JUMP JUMPDEST DUP1 ISZERO PUSH2 0x302 JUMPI DUP1 PUSH1 0x1F LT PUSH2 0x2D7 JUMPI PUSH2 0x100 DUP1 DUP4 SLOAD DIV MUL DUP4 MSTORE SWAP2 PUSH1 0x20 ADD SWAP2 PUSH2 0x302 JUMP JUMPDEST DUP3 ADD SWAP2 SWAP1 PUSH1 0x0 MSTORE PUSH1 0x20 PUSH1 0x0 KECCAK256 SWAP1 JUMPDEST DUP2 SLOAD DUP2 MSTORE SWAP1 PUSH1 0x1 ADD SWAP1 PUSH1 0x20 ADD DUP1 DUP4 GT PUSH2 0x2E5 JUMPI DUP3 SWAP1 SUB PUSH1 0x1F AND DUP3 ADD SWAP2 JUMPDEST POP POP POP POP POP SWAP1 DUP1 PUSH1 0x2 ADD DUP1 SLOAD PUSH2 0x317 SWAP1 PUSH2 0xD66 JUMP JUMPDEST DUP1 PUSH1 0x1F ADD PUSH1 0x20 DUP1 SWAP2 DIV MUL PUSH1 0x20 ADD PUSH1 0x40 MLOAD SWAP1 DUP2 ADD PUSH1 0x40 MSTORE DUP1 SWAP3 SWAP2 SWAP1 DUP2 DUP2 MSTORE PUSH1 0x20 ADD DUP3 DUP1 SLOAD PUSH2 0x343 SWAP1 PUSH2 0xD66 JUMP JUMPDEST DUP1 ISZERO PUSH2 0x390 JUMPI DUP1 PUSH1 0x1F LT PUSH2 0x365 JUMPI PUSH2 0x100 DUP1 DUP4 SLOAD DIV MUL DUP4 MSTORE SWAP2 PUSH1 0x20 ADD SWAP2 PUSH2 0x390 JUMP JUMPDEST DUP3 ADD SWAP2 SWAP1 PUSH1 0x0 MSTORE PUSH1 0x20 PUSH1 0x0 KECCAK256 SWAP1 JUMPDEST DUP2 SLOAD DUP2 MSTORE SWAP1 PUSH1 0x1 ADD SWAP1 PUSH1 0x20 ADD DUP1 DUP4 GT PUSH2 0x373 JUMPI DUP3 SWAP1 SUB PUSH1 0x1F AND DUP3 ADD SWAP2 JUMPDEST POP POP POP POP POP SWAP1 DUP1 PUSH1 0x3 ADD DUP1 SLOAD PUSH2 0x3A5 SWAP1 PUSH2 0xD66 JUMP JUMPDEST DUP1 PUSH1 0x1F ADD PUSH1 0x20 DUP1 SWAP2 DIV MUL PUSH1 0x20 ADD PUSH1 0x40 MLOAD SWAP1 DUP2 ADD PUSH1 0x40 MSTORE DUP1 SWAP3 SWAP2 SWAP1 DUP2 DUP2 MSTORE PUSH1 0x20 ADD DUP3 DUP1 SLOAD PUSH2 0x3D1 SWAP1 PUSH2 0xD66 JUMP JUMPDEST DUP1 ISZERO PUSH2 0x41E JUMPI DUP1 PUSH1 0x1F LT PUSH2 0x3F3 JUMPI PUSH2 0x100 DUP1 DUP4 SLOAD DIV MUL DUP4 MSTORE SWAP2 PUSH1 0x20 ADD SWAP2 PUSH2 0x41E JUMP JUMPDEST DUP3 ADD SWAP2 SWAP1 PUSH1 0x0 MSTORE PUSH1 0x20 PUSH1 0x0 KECCAK256 SWAP1 JUMPDEST DUP2 SLOAD DUP2 MSTORE SWAP1 PUSH1 0x1 ADD SWAP1 PUSH1 0x20 ADD DUP1 DUP4 GT PUSH2 0x401 JUMPI DUP3 SWAP1 SUB PUSH1 0x1F AND DUP3 ADD SWAP2 JUMPDEST POP POP POP POP POP SWAP1 POP DUP5 JUMP JUMPDEST PUSH1 0x60 PUSH1 0x0 DUP1 SLOAD DUP1 PUSH1 0x20 MUL PUSH1 0x20 ADD PUSH1 0x40 MLOAD SWAP1 DUP2 ADD PUSH1 0x40 MSTORE DUP1 SWAP3 SWAP2 SWAP1 DUP2 DUP2 MSTORE PUSH1 0x20 ADD PUSH1 0x0 SWAP1 JUMPDEST DUP3 DUP3 LT ISZERO PUSH2 0x6C6 JUMPI DUP4 DUP3 SWAP1 PUSH1 0x0 MSTORE PUSH1 0x20 PUSH1 0x0 KECCAK256 SWAP1 PUSH1 0x4 MUL ADD PUSH1 0x40 MLOAD DUP1 PUSH1 0x80 ADD PUSH1 0x40 MSTORE SWAP1 DUP2 PUSH1 0x0 DUP3 ADD DUP1 SLOAD PUSH2 0x47F SWAP1 PUSH2 0xD66 JUMP JUMPDEST DUP1 PUSH1 0x1F ADD PUSH1 0x20 DUP1 SWAP2 DIV MUL PUSH1 0x20 ADD PUSH1 0x40 MLOAD SWAP1 DUP2 ADD PUSH1 0x40 MSTORE DUP1 SWAP3 SWAP2 SWAP1 DUP2 DUP2 MSTORE PUSH1 0x20 ADD DUP3 DUP1 SLOAD PUSH2 0x4AB SWAP1 PUSH2 0xD66 JUMP JUMPDEST DUP1 ISZERO PUSH2 0x4F8 JUMPI DUP1 PUSH1 0x1F LT PUSH2 0x4CD JUMPI PUSH2 0x100 DUP1 DUP4 SLOAD DIV MUL DUP4 MSTORE SWAP2 PUSH1 0x20 ADD SWAP2 PUSH2 0x4F8 JUMP JUMPDEST DUP3 ADD SWAP2 SWAP1 PUSH1 0x0 MSTORE PUSH1 0x20 PUSH1 0x0 KECCAK256 SWAP1 JUMPDEST DUP2 SLOAD DUP2 MSTORE SWAP1 PUSH1 0x1 ADD SWAP1 PUSH1 0x20 ADD DUP1 DUP4 GT PUSH2 0x4DB JUMPI DUP3 SWAP1 SUB PUSH1 0x1F AND DUP3 ADD SWAP2 JUMPDEST POP POP POP POP POP DUP2 MSTORE PUSH1 0x20 ADD PUSH1 0x1 DUP3 ADD DUP1 SLOAD PUSH2 0x511 SWAP1 PUSH2 0xD66 JUMP JUMPDEST DUP1 PUSH1 0x1F ADD PUSH1 0x20 DUP1 SWAP2 DIV MUL PUSH1 0x20 ADD PUSH1 0x40 MLOAD SWAP1 DUP2 ADD PUSH1 0x40 MSTORE DUP1 SWAP3 SWAP2 SWAP1 DUP2 DUP2 MSTORE PUSH1 0x20 ADD DUP3 DUP1 SLOAD PUSH2 0x53D SWAP1 PUSH2 0xD66 JUMP JUMPDEST DUP1 ISZERO PUSH2 0x58A JUMPI DUP1 PUSH1 0x1F LT PUSH2 0x55F JUMPI PUSH2 0x100 DUP1 DUP4 SLOAD DIV MUL DUP4 MSTORE SWAP2 PUSH1 0x20 ADD SWAP2 PUSH2 0x58A JUMP JUMPDEST DUP3 ADD SWAP2 SWAP1 PUSH1 0x0 MSTORE PUSH1 0x20 PUSH1 0x0 KECCAK256 SWAP1 JUMPDEST DUP2 SLOAD DUP2 MSTORE SWAP1 PUSH1 0x1 ADD SWAP1 PUSH1 0x20 ADD DUP1 DUP4 GT PUSH2 0x56D JUMPI DUP3 SWAP1 SUB PUSH1 0x1F AND DUP3 ADD SWAP2 JUMPDEST POP POP POP POP POP DUP2 MSTORE PUSH1 0x20 ADD PUSH1 0x2 DUP3 ADD DUP1 SLOAD PUSH2 0x5A3 SWAP1 PUSH2 0xD66 JUMP JUMPDEST DUP1 PUSH1 0x1F ADD PUSH1 0x20 DUP1 SWAP2 DIV MUL PUSH1 0x20 ADD PUSH1 0x40 MLOAD SWAP1 DUP2 ADD PUSH1 0x40 MSTORE DUP1 SWAP3 SWAP2 SWAP1 DUP2 DUP2 MSTORE PUSH1 0x20 ADD DUP3 DUP1 SLOAD PUSH2 0x5CF SWAP1 PUSH2 0xD66 JUMP JUMPDEST DUP1 ISZERO PUSH2 0x61C JUMPI DUP1 PUSH1 0x1F LT PUSH2 0x5F1 JUMPI PUSH2 0x100 DUP1 DUP4 SLOAD DIV MUL DUP4 MSTORE SWAP2 PUSH1 0x20 ADD SWAP2 PUSH2 0x61C JUMP JUMPDEST DUP3 ADD SWAP2 SWAP1 PUSH1 0x0 MSTORE PUSH1 0x20 PUSH1 0x0 KECCAK256 SWAP1 JUMPDEST DUP2 SLOAD DUP2 MSTORE SWAP1 PUSH1 0x1 ADD SWAP1 PUSH1 0x20 ADD DUP1 DUP4 GT PUSH2 0x5FF JUMPI DUP3 SWAP1 SUB PUSH1 0x1F AND DUP3 ADD SWAP2 JUMPDEST POP POP POP POP POP DUP2 MSTORE PUSH1 0x20 ADD PUSH1 0x3 DUP3 ADD DUP1 SLOAD PUSH2 0x635 SWAP1 PUSH2 0xD66 JUMP JUMPDEST DUP1 PUSH1 0x1F ADD PUSH1 0x20 DUP1 SWAP2 DIV MUL PUSH1 0x20 ADD PUSH1 0x40 MLOAD SWAP1 DUP2 ADD PUSH1 0x40 MSTORE DUP1 SWAP3 SWAP2 SWAP1 DUP2 DUP2 MSTORE PUSH1 0x20 ADD DUP3 DUP1 SLOAD PUSH2 0x661 SWAP1 PUSH2 0xD66 JUMP JUMPDEST DUP1 ISZERO PUSH2 0x6AE JUMPI DUP1 PUSH1 0x1F LT PUSH2 0x683 JUMPI PUSH2 0x100 DUP1 DUP4 SLOAD DIV MUL DUP4 MSTORE SWAP2 PUSH1 0x20 ADD SWAP2 PUSH2 0x6AE JUMP JUMPDEST DUP3 ADD SWAP2 SWAP1 PUSH1 0x0 MSTORE PUSH1 0x20 PUSH1 0x0 KECCAK256 SWAP1 JUMPDEST DUP2 SLOAD DUP2 MSTORE SWAP1 PUSH1 0x1 ADD SWAP1 PUSH1 0x20 ADD DUP1 DUP4 GT PUSH2 0x691 JUMPI DUP3 SWAP1 SUB PUSH1 0x1F AND DUP3 ADD SWAP2 JUMPDEST POP POP POP POP POP DUP2 MSTORE POP POP DUP2 MSTORE PUSH1 0x20 ADD SWAP1 PUSH1 0x1 ADD SWAP1 PUSH2 0x44C JUMP JUMPDEST POP POP POP POP SWAP1 POP SWAP1 JUMP JUMPDEST DUP3 DUP1 SLOAD PUSH2 0x6DB SWAP1 PUSH2 0xD66 JUMP JUMPDEST SWAP1 PUSH1 0x0 MSTORE PUSH1 0x20 PUSH1 0x0 KECCAK256 SWAP1 PUSH1 0x1F ADD PUSH1 0x20 SWAP1 DIV DUP2 ADD SWAP3 DUP3 PUSH2 0x6FD JUMPI PUSH1 0x0 DUP6 SSTORE PUSH2 0x744 JUMP JUMPDEST DUP3 PUSH1 0x1F LT PUSH2 0x716 JUMPI DUP1 MLOAD PUSH1 0xFF NOT AND DUP4 DUP1 ADD OR DUP6 SSTORE PUSH2 0x744 JUMP JUMPDEST DUP3 DUP1 ADD PUSH1 0x1 ADD DUP6 SSTORE DUP3 ISZERO PUSH2 0x744 JUMPI SWAP2 DUP3 ADD JUMPDEST DUP3 DUP2 GT ISZERO PUSH2 0x743 JUMPI DUP3 MLOAD DUP3 SSTORE SWAP2 PUSH1 0x20 ADD SWAP2 SWAP1 PUSH1 0x1 ADD SWAP1 PUSH2 0x728 JUMP JUMPDEST JUMPDEST POP SWAP1 POP PUSH2 0x751 SWAP2 SWAP1 PUSH2 0x755 JUMP JUMPDEST POP SWAP1 JUMP JUMPDEST JUMPDEST DUP1 DUP3 GT ISZERO PUSH2 0x76E JUMPI PUSH1 0x0 DUP2 PUSH1 0x0 SWAP1 SSTORE POP PUSH1 0x1 ADD PUSH2 0x756 JUMP JUMPDEST POP SWAP1 JUMP JUMPDEST PUSH1 0x0 PUSH1 0x40 MLOAD SWAP1 POP SWAP1 JUMP JUMPDEST PUSH1 0x0 DUP1 REVERT JUMPDEST PUSH1 0x0 DUP1 REVERT JUMPDEST PUSH1 0x0 DUP1 REVERT JUMPDEST PUSH1 0x0 DUP1 REVERT JUMPDEST PUSH1 0x0 PUSH1 0x1F NOT PUSH1 0x1F DUP4 ADD AND SWAP1 POP SWAP2 SWAP1 POP JUMP JUMPDEST PUSH32 0x4E487B7100000000000000000000000000000000000000000000000000000000 PUSH1 0x0 MSTORE PUSH1 0x41 PUSH1 0x4 MSTORE PUSH1 0x24 PUSH1 0x0 REVERT JUMPDEST PUSH2 0x7D9 DUP3 PUSH2 0x790 JUMP JUMPDEST DUP2 ADD DUP2 DUP2 LT PUSH8 0xFFFFFFFFFFFFFFFF DUP3 GT OR ISZERO PUSH2 0x7F8 JUMPI PUSH2 0x7F7 PUSH2 0x7A1 JUMP JUMPDEST JUMPDEST DUP1 PUSH1 0x40 MSTORE POP POP POP JUMP JUMPDEST PUSH1 0x0 PUSH2 0x80B PUSH2 0x772 JUMP JUMPDEST SWAP1 POP PUSH2 0x817 DUP3 DUP3 PUSH2 0x7D0 JUMP JUMPDEST SWAP2 SWAP1 POP JUMP JUMPDEST PUSH1 0x0 PUSH8 0xFFFFFFFFFFFFFFFF DUP3 GT ISZERO PUSH2 0x837 JUMPI PUSH2 0x836 PUSH2 0x7A1 JUMP JUMPDEST JUMPDEST PUSH2 0x840 DUP3 PUSH2 0x790 JUMP JUMPDEST SWAP1 POP PUSH1 0x20 DUP2 ADD SWAP1 POP SWAP2 SWAP1 POP JUMP JUMPDEST DUP3 DUP2 DUP4 CALLDATACOPY PUSH1 0x0 DUP4 DUP4 ADD MSTORE POP POP POP JUMP JUMPDEST PUSH1 0x0 PUSH2 0x86F PUSH2 0x86A DUP5 PUSH2 0x81C JUMP JUMPDEST PUSH2 0x801 JUMP JUMPDEST SWAP1 POP DUP3 DUP2 MSTORE PUSH1 0x20 DUP2 ADD DUP5 DUP5 DUP5 ADD GT ISZERO PUSH2 0x88B JUMPI PUSH2 0x88A PUSH2 0x78B JUMP JUMPDEST JUMPDEST PUSH2 0x896 DUP5 DUP3 DUP6 PUSH2 0x84D JUMP JUMPDEST POP SWAP4 SWAP3 POP POP POP JUMP JUMPDEST PUSH1 0x0 DUP3 PUSH1 0x1F DUP4 ADD SLT PUSH2 0x8B3 JUMPI PUSH2 0x8B2 PUSH2 0x786 JUMP JUMPDEST JUMPDEST DUP2 CALLDATALOAD PUSH2 0x8C3 DUP5 DUP3 PUSH1 0x20 DUP7 ADD PUSH2 0x85C JUMP JUMPDEST SWAP2 POP POP SWAP3 SWAP2 POP POP JUMP JUMPDEST PUSH1 0x0 DUP1 PUSH1 0x0 DUP1 PUSH1 0x80 DUP6 DUP8 SUB SLT ISZERO PUSH2 0x8E6 JUMPI PUSH2 0x8E5 PUSH2 0x77C JUMP JUMPDEST JUMPDEST PUSH1 0x0 DUP6 ADD CALLDATALOAD PUSH8 0xFFFFFFFFFFFFFFFF DUP2 GT ISZERO PUSH2 0x904 JUMPI PUSH2 0x903 PUSH2 0x781 JUMP JUMPDEST JUMPDEST PUSH2 0x910 DUP8 DUP3 DUP9 ADD PUSH2 0x89E JUMP JUMPDEST SWAP5 POP POP PUSH1 0x20 DUP6 ADD CALLDATALOAD PUSH8 0xFFFFFFFFFFFFFFFF DUP2 GT ISZERO PUSH2 0x931 JUMPI PUSH2 0x930 PUSH2 0x781 JUMP JUMPDEST JUMPDEST PUSH2 0x93D DUP8 DUP3 DUP9 ADD PUSH2 0x89E JUMP JUMPDEST SWAP4 POP POP PUSH1 0x40 DUP6 ADD CALLDATALOAD PUSH8 0xFFFFFFFFFFFFFFFF DUP2 GT ISZERO PUSH2 0x95E JUMPI PUSH2 0x95D PUSH2 0x781 JUMP JUMPDEST JUMPDEST PUSH2 0x96A DUP8 DUP3 DUP9 ADD PUSH2 0x89E JUMP JUMPDEST SWAP3 POP POP PUSH1 0x60 DUP6 ADD CALLDATALOAD PUSH8 0xFFFFFFFFFFFFFFFF DUP2 GT ISZERO PUSH2 0x98B JUMPI PUSH2 0x98A PUSH2 0x781 JUMP JUMPDEST JUMPDEST PUSH2 0x997 DUP8 DUP3 DUP9 ADD PUSH2 0x89E JUMP JUMPDEST SWAP2 POP POP SWAP3 SWAP6 SWAP2 SWAP5 POP SWAP3 POP JUMP JUMPDEST PUSH1 0x0 DUP2 SWAP1 POP SWAP2 SWAP1 POP JUMP JUMPDEST PUSH2 0x9B6 DUP2 PUSH2 0x9A3 JUMP JUMPDEST DUP3 MSTORE POP POP JUMP JUMPDEST PUSH1 0x0 PUSH1 0x20 DUP3 ADD SWAP1 POP PUSH2 0x9D1 PUSH1 0x0 DUP4 ADD DUP5 PUSH2 0x9AD JUMP JUMPDEST SWAP3 SWAP2 POP POP JUMP JUMPDEST PUSH2 0x9E0 DUP2 PUSH2 0x9A3 JUMP JUMPDEST DUP2 EQ PUSH2 0x9EB JUMPI PUSH1 0x0 DUP1 REVERT JUMPDEST POP JUMP JUMPDEST PUSH1 0x0 DUP2 CALLDATALOAD SWAP1 POP PUSH2 0x9FD DUP2 PUSH2 0x9D7 JUMP JUMPDEST SWAP3 SWAP2 POP POP JUMP JUMPDEST PUSH1 0x0 PUSH1 0x20 DUP3 DUP5 SUB SLT ISZERO PUSH2 0xA19 JUMPI PUSH2 0xA18 PUSH2 0x77C JUMP JUMPDEST JUMPDEST PUSH1 0x0 PUSH2 0xA27 DUP5 DUP3 DUP6 ADD PUSH2 0x9EE JUMP JUMPDEST SWAP2 POP POP SWAP3 SWAP2 POP POP JUMP JUMPDEST PUSH1 0x0 DUP2 MLOAD SWAP1 POP SWAP2 SWAP1 POP JUMP JUMPDEST PUSH1 0x0 DUP3 DUP3 MSTORE PUSH1 0x20 DUP3 ADD SWAP1 POP SWAP3 SWAP2 POP POP JUMP JUMPDEST PUSH1 0x0 JUMPDEST DUP4 DUP2 LT ISZERO PUSH2 0xA6A JUMPI DUP1 DUP3 ADD MLOAD DUP2 DUP5 ADD MSTORE PUSH1 0x20 DUP2 ADD SWAP1 POP PUSH2 0xA4F JUMP JUMPDEST DUP4 DUP2 GT ISZERO PUSH2 0xA79 JUMPI PUSH1 0x0 DUP5 DUP5 ADD MSTORE JUMPDEST POP POP POP POP JUMP JUMPDEST PUSH1 0x0 PUSH2 0xA8A DUP3 PUSH2 0xA30 JUMP JUMPDEST PUSH2 0xA94 DUP2 DUP6 PUSH2 0xA3B JUMP JUMPDEST SWAP4 POP PUSH2 0xAA4 DUP2 DUP6 PUSH1 0x20 DUP7 ADD PUSH2 0xA4C JUMP JUMPDEST PUSH2 0xAAD DUP2 PUSH2 0x790 JUMP JUMPDEST DUP5 ADD SWAP2 POP POP SWAP3 SWAP2 POP POP JUMP JUMPDEST PUSH1 0x0 PUSH1 0x80 DUP3 ADD SWAP1 POP DUP2 DUP2 SUB PUSH1 0x0 DUP4 ADD MSTORE PUSH2 0xAD2 DUP2 DUP8 PUSH2 0xA7F JUMP JUMPDEST SWAP1 POP DUP2 DUP2 SUB PUSH1 0x20 DUP4 ADD MSTORE PUSH2 0xAE6 DUP2 DUP7 PUSH2 0xA7F JUMP JUMPDEST SWAP1 POP DUP2 DUP2 SUB PUSH1 0x40 DUP4 ADD MSTORE PUSH2 0xAFA DUP2 DUP6 PUSH2 0xA7F JUMP JUMPDEST SWAP1 POP DUP2 DUP2 SUB PUSH1 0x60 DUP4 ADD MSTORE PUSH2 0xB0E DUP2 DUP5 PUSH2 0xA7F JUMP JUMPDEST SWAP1 POP SWAP6 SWAP5 POP POP POP POP POP JUMP JUMPDEST PUSH1 0x0 DUP2 MLOAD SWAP1 POP SWAP2 SWAP1 POP JUMP JUMPDEST PUSH1 0x0 DUP3 DUP3 MSTORE PUSH1 0x20 DUP3 ADD SWAP1 POP SWAP3 SWAP2 POP POP JUMP JUMPDEST PUSH1 0x0 DUP2 SWAP1 POP PUSH1 0x20 DUP3 ADD SWAP1 POP SWAP2 SWAP1 POP JUMP JUMPDEST PUSH1 0x0 DUP3 DUP3 MSTORE PUSH1 0x20 DUP3 ADD SWAP1 POP SWAP3 SWAP2 POP POP JUMP JUMPDEST PUSH1 0x0 PUSH2 0xB61 DUP3 PUSH2 0xA30 JUMP JUMPDEST PUSH2 0xB6B DUP2 DUP6 PUSH2 0xB45 JUMP JUMPDEST SWAP4 POP PUSH2 0xB7B DUP2 DUP6 PUSH1 0x20 DUP7 ADD PUSH2 0xA4C JUMP JUMPDEST PUSH2 0xB84 DUP2 PUSH2 0x790 JUMP JUMPDEST DUP5 ADD SWAP2 POP POP SWAP3 SWAP2 POP POP JUMP JUMPDEST PUSH1 0x0 PUSH1 0x80 DUP4 ADD PUSH1 0x0 DUP4 ADD MLOAD DUP5 DUP3 SUB PUSH1 0x0 DUP7 ADD MSTORE PUSH2 0xBAC DUP3 DUP3 PUSH2 0xB56 JUMP JUMPDEST SWAP2 POP POP PUSH1 0x20 DUP4 ADD MLOAD DUP5 DUP3 SUB PUSH1 0x20 DUP7 ADD MSTORE PUSH2 0xBC6 DUP3 DUP3 PUSH2 0xB56 JUMP JUMPDEST SWAP2 POP POP PUSH1 0x40 DUP4 ADD MLOAD DUP5 DUP3 SUB PUSH1 0x40 DUP7 ADD MSTORE PUSH2 0xBE0 DUP3 DUP3 PUSH2 0xB56 JUMP JUMPDEST SWAP2 POP POP PUSH1 0x60 DUP4 ADD MLOAD DUP5 DUP3 SUB PUSH1 0x60 DUP7 ADD MSTORE PUSH2 0xBFA DUP3 DUP3 PUSH2 0xB56 JUMP JUMPDEST SWAP2 POP POP DUP1 SWAP2 POP POP SWAP3 SWAP2 POP POP JUMP JUMPDEST PUSH1 0x0 PUSH2 0xC13 DUP4 DUP4 PUSH2 0xB8F JUMP JUMPDEST SWAP1 POP SWAP3 SWAP2 POP POP JUMP JUMPDEST PUSH1 0x0 PUSH1 0x20 DUP3 ADD SWAP1 POP SWAP2 SWAP1 POP JUMP JUMPDEST PUSH1 0x0 PUSH2 0xC33 DUP3 PUSH2 0xB19 JUMP JUMPDEST PUSH2 0xC3D DUP2 DUP6 PUSH2 0xB24 JUMP JUMPDEST SWAP4 POP DUP4 PUSH1 0x20 DUP3 MUL DUP6 ADD PUSH2 0xC4F DUP6 PUSH2 0xB35 JUMP JUMPDEST DUP1 PUSH1 0x0 JUMPDEST DUP6 DUP2 LT ISZERO PUSH2 0xC8B JUMPI DUP5 DUP5 SUB DUP10 MSTORE DUP2 MLOAD PUSH2 0xC6C DUP6 DUP3 PUSH2 0xC07 JUMP JUMPDEST SWAP5 POP PUSH2 0xC77 DUP4 PUSH2 0xC1B JUMP JUMPDEST SWAP3 POP PUSH1 0x20 DUP11 ADD SWAP10 POP POP PUSH1 0x1 DUP2 ADD SWAP1 POP PUSH2 0xC53 JUMP JUMPDEST POP DUP3 SWAP8 POP DUP8 SWAP6 POP POP POP POP POP POP SWAP3 SWAP2 POP POP JUMP JUMPDEST PUSH1 0x0 PUSH1 0x20 DUP3 ADD SWAP1 POP DUP2 DUP2 SUB PUSH1 0x0 DUP4 ADD MSTORE PUSH2 0xCB7 DUP2 DUP5 PUSH2 0xC28 JUMP JUMPDEST SWAP1 POP SWAP3 SWAP2 POP POP JUMP JUMPDEST PUSH32 0x4E487B7100000000000000000000000000000000000000000000000000000000 PUSH1 0x0 MSTORE PUSH1 0x11 PUSH1 0x4 MSTORE PUSH1 0x24 PUSH1 0x0 REVERT JUMPDEST PUSH1 0x0 PUSH2 0xCF9 DUP3 PUSH2 0x9A3 JUMP JUMPDEST SWAP2 POP PUSH32 0xFFFFFFFFFFFFFFFFFFFFFFFFFFFFFFFFFFFFFFFFFFFFFFFFFFFFFFFFFFFFFFFF DUP3 EQ ISZERO PUSH2 0xD2C JUMPI PUSH2 0xD2B PUSH2 0xCBF JUMP JUMPDEST JUMPDEST PUSH1 0x1 DUP3 ADD SWAP1 POP SWAP2 SWAP1 POP JUMP JUMPDEST PUSH32 0x4E487B7100000000000000000000000000000000000000000000000000000000 PUSH1 0x0 MSTORE PUSH1 0x22 PUSH1 0x4 MSTORE PUSH1 0x24 PUSH1 0x0 REVERT JUMPDEST PUSH1 0x0 PUSH1 0x2 DUP3 DIV SWAP1 POP PUSH1 0x1 DUP3 AND DUP1 PUSH2 0xD7E JUMPI PUSH1 0x7F DUP3 AND SWAP2 POP JUMPDEST PUSH1 0x20 DUP3 LT DUP2 EQ ISZERO PUSH2 0xD92 JUMPI PUSH2 0xD91 PUSH2 0xD37 JUMP JUMPDEST JUMPDEST POP SWAP2 SWAP1 POP JUMP INVALID LOG2 PUSH5 0x6970667358 0x22 SLT KECCAK256 CREATE 0xC7 0xB5 0xC3 SDIV EXP 0xD4 0xB5 0x29 CREATE RETURNDATACOPY 0xE4 0xD DELEGATECALL 0x2C 0xE1 0xE3 SWAP9 GASLIMIT PUSH3 0xC074FE PUSH2 0x291C SWAP7 OR PUSH30 0x263B7864736F6C6343000809003300000000000000000000000000000000 "},"gasEstimates":{"creation":{"codeDepositCost":"706800","executionCost":"5747","totalCost":"712547"},"external":{"collegesRatings(uint256)":"infinite","getCollegesRatings()":"infinite","giveRating(string,string,string,string)":"infinite","totalRatings()":"2429"}},"methodIdentifiers":{"collegesRatings(uint256)":"4bd81175","getCollegesRatings()":"ff782542","giveRating(string,string,string,string)":"06981aa3","totalRatings()":"2826f6a5"}},"storageLayout":{"storage":[{"astId":14,"contract":"CollegeRating.sol:CollegeRating","label":"collegesRatings","offset":0,"slot":"0","type":"t_array(t_struct(Feedback)10_storage)dyn_storage"},{"astId":17,"contract":"CollegeRating.sol:CollegeRating","label":"totalRatings","offset":0,"slot":"1","type":"t_uint256"}],"types":{"t_array(t_struct(Feedback)10_storage)dyn_storage":{"base":"t_struct(Feedback)10_storage","encoding":"dynamic_array","label":"struct CollegeRating.Feedback[]","numberOfBytes":"32"},"t_string_storage":{"encoding":"bytes","label":"string","numberOfBytes":"32"},"t_struct(Feedback)10_storage":{"encoding":"inplace","label":"struct CollegeRating.Feedback","members":[{"astId":3,"contract":"CollegeRating.sol:CollegeRating","label":"collegeName","offset":0,"slot":"0","type":"t_string_storage"},{"astId":5,"contract":"CollegeRating.sol:CollegeRating","label":"studentName","offset":0,"slot":"1","type":"t_string_storage"},{"astId":7,"contract":"CollegeRating.sol:CollegeRating","label":"star","offset":0,"slot":"2","type":"t_string_storage"},{"astId":9,"contract":"CollegeRating.sol:CollegeRating","label":"feedback","offset":0,"slot":"3","type":"t_string_storage"}],"numberOfBytes":"128"},"t_uint256":{"encoding":"inplace","label":"uint256","numberOfBytes":"32"}}},"userdoc":{"kind":"user","methods":{},"version":1}}