{"abi":[{"inputs":[{"internalType":"string","name":"collegeName","type":"string"}],"name":"getRatings","outputs":[{"components":[{"internalType":"string","name":"studentName","type":"string"},{"internalType":"string","name":"star","type":"string"},{"internalType":"string","name":"feedback","type":"string"}],"internalType":"struct CollegeRating.Feedback[]","name":"","type":"tuple[]"}],"stateMutability":"view","type":"function"},{"inputs":[{"internalType":"string","name":"collegeName","type":"string"},{"internalType":"string","name":"studentName","type":"string"},{"internalType":"string","name":"star","type":"string"},{"internalType":"string","name":"feedback","type":"string"}],"name":"giveRating","outputs":[],"stateMutability":"nonpayable","type":"function"},{"inputs":[{"internalType":"string","name":"","type":"string"},{"internalType":"uint256","name":"","type":"uint256"}],"name":"rating","outputs":[{"internalType":"string","name":"studentName","type":"string"},{"internalType":"string","name":"star","type":"string"},{"internalType":"string","name":"feedback","type":"string"}],"stateMutability":"view","type":"function"}],"devdoc":{"kind":"dev","methods":{},"version":1},"evm":{"assembly":"    /* \"CollegeRating.sol\":63:782  contract CollegeRating {... */\n  mstore(0x40, 0x80)\n  callvalue\n  dup1\n  iszero\n  tag_1\n  jumpi\n  0x00\n  dup1\n  revert\ntag_1:\n  pop\n  dataSize(sub_0)\n  dup1\n  dataOffset(sub_0)\n  0x00\n  codecopy\n  0x00\n  return\nstop\n\nsub_0: assembly {\n        /* \"CollegeRating.sol\":63:782  contract CollegeRating {... */\n      mstore(0x40, 0x80)\n      callvalue\n      dup1\n      iszero\n      tag_1\n      jumpi\n      0x00\n      dup1\n      revert\n    tag_1:\n      pop\n      jumpi(tag_2, lt(calldatasize, 0x04))\n      shr(0xe0, calldataload(0x00))\n      dup1\n      0x0615f1bd\n      eq\n      tag_3\n      jumpi\n      dup1\n      0x06981aa3\n      eq\n      tag_4\n      jumpi\n      dup1\n      0xf5accb8e\n      eq\n      tag_5\n      jumpi\n    tag_2:\n      0x00\n      dup1\n      revert\n        /* \"CollegeRating.sol\":646:777  function getRatings(string memory collegeName) public view returns (Feedback[] memory){... */\n    tag_3:\n      tag_6\n      0x04\n      dup1\n      calldatasize\n      sub\n      dup2\n      add\n      swap1\n      tag_7\n      swap2\n      swap1\n      tag_8\n      jump\t// in\n    tag_7:\n      tag_9\n      jump\t// in\n    tag_6:\n      mload(0x40)\n      tag_10\n      swap2\n      swap1\n      tag_11\n      jump\t// in\n    tag_10:\n      mload(0x40)\n      dup1\n      swap2\n      sub\n      swap1\n      return\n        /* \"CollegeRating.sol\":256:638  function giveRating(... */\n    tag_4:\n      tag_12\n      0x04\n      dup1\n      calldatasize\n      sub\n      dup2\n      add\n      swap1\n      tag_13\n      swap2\n      swap1\n      tag_14\n      jump\t// in\n    tag_13:\n      tag_15\n      jump\t// in\n    tag_12:\n      stop\n        /* \"CollegeRating.sol\":203:247  mapping (string => Feedback[]) public rating */\n    tag_5:\n      tag_16\n      0x04\n      dup1\n      calldatasize\n      sub\n      dup2\n      add\n      swap1\n      tag_17\n      swap2\n      swap1\n      tag_18\n      jump\t// in\n    tag_17:\n      tag_19\n      jump\t// in\n    tag_16:\n      mload(0x40)\n      tag_20\n      swap4\n      swap3\n      swap2\n      swap1\n      tag_21\n      jump\t// in\n    tag_20:\n      mload(0x40)\n      dup1\n      swap2\n      sub\n      swap1\n      return\n        /* \"CollegeRating.sol\":646:777  function getRatings(string memory collegeName) public view returns (Feedback[] memory){... */\n    tag_9:\n        /* \"CollegeRating.sol\":714:731  Feedback[] memory */\n      0x60\n        /* \"CollegeRating.sol\":750:756  rating */\n      0x00\n        /* \"CollegeRating.sol\":757:768  collegeName */\n      dup3\n        /* \"CollegeRating.sol\":750:769  rating[collegeName] */\n      mload(0x40)\n      tag_23\n      swap2\n      swap1\n      tag_24\n      jump\t// in\n    tag_23:\n      swap1\n      dup2\n      mstore\n      0x20\n      add\n      mload(0x40)\n      dup1\n      swap2\n      sub\n      swap1\n      keccak256\n        /* \"CollegeRating.sol\":743:769  return rating[collegeName] */\n      dup1\n      sload\n      dup1\n      0x20\n      mul\n      0x20\n      add\n      mload(0x40)\n      swap1\n      dup2\n      add\n      0x40\n      mstore\n      dup1\n      swap3\n      swap2\n      swap1\n      dup2\n      dup2\n      mstore\n      0x20\n      add\n      0x00\n      swap1\n    tag_25:\n      dup3\n      dup3\n      lt\n      iszero\n      tag_26\n      jumpi\n      dup4\n      dup3\n      swap1\n      0x00\n      mstore\n      keccak256(0x00, 0x20)\n      swap1\n      0x03\n      mul\n      add\n      mload(0x40)\n      dup1\n      0x60\n      add\n      0x40\n      mstore\n      swap1\n      dup2\n      0x00\n      dup3\n      add\n      dup1\n      sload\n      tag_28\n      swap1\n      tag_29\n      jump\t// in\n    tag_28:\n      dup1\n      0x1f\n      add\n      0x20\n      dup1\n      swap2\n      div\n      mul\n      0x20\n      add\n      mload(0x40)\n      swap1\n      dup2\n      add\n      0x40\n      mstore\n      dup1\n      swap3\n      swap2\n      swap1\n      dup2\n      dup2\n      mstore\n      0x20\n      add\n      dup3\n      dup1\n      sload\n      tag_30\n      swap1\n      tag_29\n      jump\t// in\n    tag_30:\n      dup1\n      iszero\n      tag_31\n      jumpi\n      dup1\n      0x1f\n      lt\n      tag_32\n      jumpi\n      0x0100\n      dup1\n      dup4\n      sload\n      div\n      mul\n      dup4\n      mstore\n      swap2\n      0x20\n      add\n      swap2\n      jump(tag_31)\n    tag_32:\n      dup3\n      add\n      swap2\n      swap1\n      0x00\n      mstore\n      keccak256(0x00, 0x20)\n      swap1\n    tag_33:\n      dup2\n      sload\n      dup2\n      mstore\n      swap1\n      0x01\n      add\n      swap1\n      0x20\n      add\n      dup1\n      dup4\n      gt\n      tag_33\n      jumpi\n      dup3\n      swap1\n      sub\n      0x1f\n      and\n      dup3\n      add\n      swap2\n    tag_31:\n      pop\n      pop\n      pop\n      pop\n      pop\n      dup2\n      mstore\n      0x20\n      add\n      0x01\n      dup3\n      add\n      dup1\n      sload\n      tag_34\n      swap1\n      tag_29\n      jump\t// in\n    tag_34:\n      dup1\n      0x1f\n      add\n      0x20\n      dup1\n      swap2\n      div\n      mul\n      0x20\n      add\n      mload(0x40)\n      swap1\n      dup2\n      add\n      0x40\n      mstore\n      dup1\n      swap3\n      swap2\n      swap1\n      dup2\n      dup2\n      mstore\n      0x20\n      add\n      dup3\n      dup1\n      sload\n      tag_35\n      swap1\n      tag_29\n      jump\t// in\n    tag_35:\n      dup1\n      iszero\n      tag_36\n      jumpi\n      dup1\n      0x1f\n      lt\n      tag_37\n      jumpi\n      0x0100\n      dup1\n      dup4\n      sload\n      div\n      mul\n      dup4\n      mstore\n      swap2\n      0x20\n      add\n      swap2\n      jump(tag_36)\n    tag_37:\n      dup3\n      add\n      swap2\n      swap1\n      0x00\n      mstore\n      keccak256(0x00, 0x20)\n      swap1\n    tag_38:\n      dup2\n      sload\n      dup2\n      mstore\n      swap1\n      0x01\n      add\n      swap1\n      0x20\n      add\n      dup1\n      dup4\n      gt\n      tag_38\n      jumpi\n      dup3\n      swap1\n      sub\n      0x1f\n      and\n      dup3\n      add\n      swap2\n    tag_36:\n      pop\n      pop\n      pop\n      pop\n      pop\n      dup2\n      mstore\n      0x20\n      add\n      0x02\n      dup3\n      add\n      dup1\n      sload\n      tag_39\n      swap1\n      tag_29\n      jump\t// in\n    tag_39:\n      dup1\n      0x1f\n      add\n      0x20\n      dup1\n      swap2\n      div\n      mul\n      0x20\n      add\n      mload(0x40)\n      swap1\n      dup2\n      add\n      0x40\n      mstore\n      dup1\n      swap3\n      swap2\n      swap1\n      dup2\n      dup2\n      mstore\n      0x20\n      add\n      dup3\n      dup1\n      sload\n      tag_40\n      swap1\n      tag_29\n      jump\t// in\n    tag_40:\n      dup1\n      iszero\n      tag_41\n      jumpi\n      dup1\n      0x1f\n      lt\n      tag_42\n      jumpi\n      0x0100\n      dup1\n      dup4\n      sload\n      div\n      mul\n      dup4\n      mstore\n      swap2\n      0x20\n      add\n      swap2\n      jump(tag_41)\n    tag_42:\n      dup3\n      add\n      swap2\n      swap1\n      0x00\n      mstore\n      keccak256(0x00, 0x20)\n      swap1\n    tag_43:\n      dup2\n      sload\n      dup2\n      mstore\n      swap1\n      0x01\n      add\n      swap1\n      0x20\n      add\n      dup1\n      dup4\n      gt\n      tag_43\n      jumpi\n      dup3\n      swap1\n      sub\n      0x1f\n      and\n      dup3\n      add\n      swap2\n    tag_41:\n      pop\n      pop\n      pop\n      pop\n      pop\n      dup2\n      mstore\n      pop\n      pop\n      dup2\n      mstore\n      0x20\n      add\n      swap1\n      0x01\n      add\n      swap1\n      jump(tag_25)\n    tag_26:\n      pop\n      pop\n      pop\n      pop\n      swap1\n      pop\n        /* \"CollegeRating.sol\":646:777  function getRatings(string memory collegeName) public view returns (Feedback[] memory){... */\n      swap2\n      swap1\n      pop\n      jump\t// out\n        /* \"CollegeRating.sol\":256:638  function giveRating(... */\n    tag_15:\n        /* \"CollegeRating.sol\":434:461  Feedback memory newFeedback */\n      0x00\n        /* \"CollegeRating.sol\":464:582  Feedback({... */\n      mload(0x40)\n      dup1\n      0x60\n      add\n      0x40\n      mstore\n      dup1\n        /* \"CollegeRating.sol\":501:512  studentName */\n      dup6\n        /* \"CollegeRating.sol\":464:582  Feedback({... */\n      dup2\n      mstore\n      0x20\n      add\n        /* \"CollegeRating.sol\":533:537  star */\n      dup5\n        /* \"CollegeRating.sol\":464:582  Feedback({... */\n      dup2\n      mstore\n      0x20\n      add\n        /* \"CollegeRating.sol\":562:570  feedback */\n      dup4\n        /* \"CollegeRating.sol\":464:582  Feedback({... */\n      dup2\n      mstore\n      pop\n        /* \"CollegeRating.sol\":434:582  Feedback memory newFeedback = Feedback({... */\n      swap1\n      pop\n        /* \"CollegeRating.sol\":593:599  rating */\n      0x00\n        /* \"CollegeRating.sol\":600:611  collegeName */\n      dup6\n        /* \"CollegeRating.sol\":593:612  rating[collegeName] */\n      mload(0x40)\n      tag_45\n      swap2\n      swap1\n      tag_24\n      jump\t// in\n    tag_45:\n      swap1\n      dup2\n      mstore\n      0x20\n      add\n      mload(0x40)\n      dup1\n      swap2\n      sub\n      swap1\n      keccak256\n        /* \"CollegeRating.sol\":618:629  newFeedback */\n      dup2\n        /* \"CollegeRating.sol\":593:630  rating[collegeName].push(newFeedback) */\n      swap1\n      dup1\n      0x01\n      dup2\n      sload\n      add\n      dup1\n      dup3\n      sstore\n      dup1\n      swap2\n      pop\n      pop\n      0x01\n      swap1\n      sub\n      swap1\n      0x00\n      mstore\n      keccak256(0x00, 0x20)\n      swap1\n      0x03\n      mul\n      add\n      0x00\n      swap1\n      swap2\n      swap1\n      swap2\n      swap1\n      swap2\n      pop\n      0x00\n      dup3\n      add\n      mload\n      dup2\n      0x00\n      add\n      swap1\n      dup1\n      mload\n      swap1\n      0x20\n      add\n      swap1\n      tag_47\n      swap3\n      swap2\n      swap1\n      tag_48\n      jump\t// in\n    tag_47:\n      pop\n      0x20\n      dup3\n      add\n      mload\n      dup2\n      0x01\n      add\n      swap1\n      dup1\n      mload\n      swap1\n      0x20\n      add\n      swap1\n      tag_49\n      swap3\n      swap2\n      swap1\n      tag_48\n      jump\t// in\n    tag_49:\n      pop\n      0x40\n      dup3\n      add\n      mload\n      dup2\n      0x02\n      add\n      swap1\n      dup1\n      mload\n      swap1\n      0x20\n      add\n      swap1\n      tag_50\n      swap3\n      swap2\n      swap1\n      tag_48\n      jump\t// in\n    tag_50:\n      pop\n      pop\n      pop\n        /* \"CollegeRating.sol\":423:638  {... */\n      pop\n        /* \"CollegeRating.sol\":256:638  function giveRating(... */\n      pop\n      pop\n      pop\n      pop\n      jump\t// out\n        /* \"CollegeRating.sol\":203:247  mapping (string => Feedback[]) public rating */\n    tag_19:\n      0x00\n      dup3\n      dup1\n      mload\n      0x20\n      dup2\n      add\n      dup3\n      add\n      dup1\n      mload\n      dup5\n      dup3\n      mstore\n      0x20\n      dup4\n      add\n      0x20\n      dup6\n      add\n      keccak256\n      dup2\n      dup4\n      mstore\n      dup1\n      swap6\n      pop\n      pop\n      pop\n      pop\n      pop\n      pop\n      dup2\n      dup2\n      sload\n      dup2\n      lt\n      tag_51\n      jumpi\n      0x00\n      dup1\n      revert\n    tag_51:\n      swap1\n      0x00\n      mstore\n      keccak256(0x00, 0x20)\n      swap1\n      0x03\n      mul\n      add\n      0x00\n      swap2\n      pop\n      swap2\n      pop\n      pop\n      dup1\n      0x00\n      add\n      dup1\n      sload\n      tag_53\n      swap1\n      tag_29\n      jump\t// in\n    tag_53:\n      dup1\n      0x1f\n      add\n      0x20\n      dup1\n      swap2\n      div\n      mul\n      0x20\n      add\n      mload(0x40)\n      swap1\n      dup2\n      add\n      0x40\n      mstore\n      dup1\n      swap3\n      swap2\n      swap1\n      dup2\n      dup2\n      mstore\n      0x20\n      add\n      dup3\n      dup1\n      sload\n      tag_54\n      swap1\n      tag_29\n      jump\t// in\n    tag_54:\n      dup1\n      iszero\n      tag_55\n      jumpi\n      dup1\n      0x1f\n      lt\n      tag_56\n      jumpi\n      0x0100\n      dup1\n      dup4\n      sload\n      div\n      mul\n      dup4\n      mstore\n      swap2\n      0x20\n      add\n      swap2\n      jump(tag_55)\n    tag_56:\n      dup3\n      add\n      swap2\n      swap1\n      0x00\n      mstore\n      keccak256(0x00, 0x20)\n      swap1\n    tag_57:\n      dup2\n      sload\n      dup2\n      mstore\n      swap1\n      0x01\n      add\n      swap1\n      0x20\n      add\n      dup1\n      dup4\n      gt\n      tag_57\n      jumpi\n      dup3\n      swap1\n      sub\n      0x1f\n      and\n      dup3\n      add\n      swap2\n    tag_55:\n      pop\n      pop\n      pop\n      pop\n      pop\n      swap1\n      dup1\n      0x01\n      add\n      dup1\n      sload\n      tag_58\n      swap1\n      tag_29\n      jump\t// in\n    tag_58:\n      dup1\n      0x1f\n      add\n      0x20\n      dup1\n      swap2\n      div\n      mul\n      0x20\n      add\n      mload(0x40)\n      swap1\n      dup2\n      add\n      0x40\n      mstore\n      dup1\n      swap3\n      swap2\n      swap1\n      dup2\n      dup2\n      mstore\n      0x20\n      add\n      dup3\n      dup1\n      sload\n      tag_59\n      swap1\n      tag_29\n      jump\t// in\n    tag_59:\n      dup1\n      iszero\n      tag_60\n      jumpi\n      dup1\n      0x1f\n      lt\n      tag_61\n      jumpi\n      0x0100\n      dup1\n      dup4\n      sload\n      div\n      mul\n      dup4\n      mstore\n      swap2\n      0x20\n      add\n      swap2\n      jump(tag_60)\n    tag_61:\n      dup3\n      add\n      swap2\n      swap1\n      0x00\n      mstore\n      keccak256(0x00, 0x20)\n      swap1\n    tag_62:\n      dup2\n      sload\n      dup2\n      mstore\n      swap1\n      0x01\n      add\n      swap1\n      0x20\n      add\n      dup1\n      dup4\n      gt\n      tag_62\n      jumpi\n      dup3\n      swap1\n      sub\n      0x1f\n      and\n      dup3\n      add\n      swap2\n    tag_60:\n      pop\n      pop\n      pop\n      pop\n      pop\n      swap1\n      dup1\n      0x02\n      add\n      dup1\n      sload\n      tag_63\n      swap1\n      tag_29\n      jump\t// in\n    tag_63:\n      dup1\n      0x1f\n      add\n      0x20\n      dup1\n      swap2\n      div\n      mul\n      0x20\n      add\n      mload(0x40)\n      swap1\n      dup2\n      add\n      0x40\n      mstore\n      dup1\n      swap3\n      swap2\n      swap1\n      dup2\n      dup2\n      mstore\n      0x20\n      add\n      dup3\n      dup1\n      sload\n      tag_64\n      swap1\n      tag_29\n      jump\t// in\n    tag_64:\n      dup1\n      iszero\n      tag_65\n      jumpi\n      dup1\n      0x1f\n      lt\n      tag_66\n      jumpi\n      0x0100\n      dup1\n      dup4\n      sload\n      div\n      mul\n      dup4\n      mstore\n      swap2\n      0x20\n      add\n      swap2\n      jump(tag_65)\n    tag_66:\n      dup3\n      add\n      swap2\n      swap1\n      0x00\n      mstore\n      keccak256(0x00, 0x20)\n      swap1\n    tag_67:\n      dup2\n      sload\n      dup2\n      mstore\n      swap1\n      0x01\n      add\n      swap1\n      0x20\n      add\n      dup1\n      dup4\n      gt\n      tag_67\n      jumpi\n      dup3\n      swap1\n      sub\n      0x1f\n      and\n      dup3\n      add\n      swap2\n    tag_65:\n      pop\n      pop\n      pop\n      pop\n      pop\n      swap1\n      pop\n      dup4\n      jump\t// out\n    tag_48:\n      dup3\n      dup1\n      sload\n      tag_68\n      swap1\n      tag_29\n      jump\t// in\n    tag_68:\n      swap1\n      0x00\n      mstore\n      keccak256(0x00, 0x20)\n      swap1\n      0x1f\n      add\n      0x20\n      swap1\n      div\n      dup2\n      add\n      swap3\n      dup3\n      tag_70\n      jumpi\n      0x00\n      dup6\n      sstore\n      jump(tag_69)\n    tag_70:\n      dup3\n      0x1f\n      lt\n      tag_71\n      jumpi\n      dup1\n      mload\n      not(0xff)\n      and\n      dup4\n      dup1\n      add\n      or\n      dup6\n      sstore\n      jump(tag_69)\n    tag_71:\n      dup3\n      dup1\n      add\n      0x01\n      add\n      dup6\n      sstore\n      dup3\n      iszero\n      tag_69\n      jumpi\n      swap2\n      dup3\n      add\n    tag_72:\n      dup3\n      dup2\n      gt\n      iszero\n      tag_73\n      jumpi\n      dup3\n      mload\n      dup3\n      sstore\n      swap2\n      0x20\n      add\n      swap2\n      swap1\n      0x01\n      add\n      swap1\n      jump(tag_72)\n    tag_73:\n    tag_69:\n      pop\n      swap1\n      pop\n      tag_74\n      swap2\n      swap1\n      tag_75\n      jump\t// in\n    tag_74:\n      pop\n      swap1\n      jump\t// out\n    tag_75:\n    tag_76:\n      dup1\n      dup3\n      gt\n      iszero\n      tag_77\n      jumpi\n      0x00\n      dup2\n      0x00\n      swap1\n      sstore\n      pop\n      0x01\n      add\n      jump(tag_76)\n    tag_77:\n      pop\n      swap1\n      jump\t// out\n        /* \"#utility.yul\":7:82   */\n    tag_78:\n        /* \"#utility.yul\":40:46   */\n      0x00\n        /* \"#utility.yul\":73:75   */\n      0x40\n        /* \"#utility.yul\":67:76   */\n      mload\n        /* \"#utility.yul\":57:76   */\n      swap1\n      pop\n        /* \"#utility.yul\":7:82   */\n      swap1\n      jump\t// out\n        /* \"#utility.yul\":88:205   */\n    tag_79:\n        /* \"#utility.yul\":197:198   */\n      0x00\n        /* \"#utility.yul\":194:195   */\n      dup1\n        /* \"#utility.yul\":187:199   */\n      revert\n        /* \"#utility.yul\":211:328   */\n    tag_80:\n        /* \"#utility.yul\":320:321   */\n      0x00\n        /* \"#utility.yul\":317:318   */\n      dup1\n        /* \"#utility.yul\":310:322   */\n      revert\n        /* \"#utility.yul\":334:451   */\n    tag_81:\n        /* \"#utility.yul\":443:444   */\n      0x00\n        /* \"#utility.yul\":440:441   */\n      dup1\n        /* \"#utility.yul\":433:445   */\n      revert\n        /* \"#utility.yul\":457:574   */\n    tag_82:\n        /* \"#utility.yul\":566:567   */\n      0x00\n        /* \"#utility.yul\":563:564   */\n      dup1\n        /* \"#utility.yul\":556:568   */\n      revert\n        /* \"#utility.yul\":580:682   */\n    tag_83:\n        /* \"#utility.yul\":621:627   */\n      0x00\n        /* \"#utility.yul\":672:674   */\n      0x1f\n        /* \"#utility.yul\":668:675   */\n      not\n        /* \"#utility.yul\":663:665   */\n      0x1f\n        /* \"#utility.yul\":656:661   */\n      dup4\n        /* \"#utility.yul\":652:666   */\n      add\n        /* \"#utility.yul\":648:676   */\n      and\n        /* \"#utility.yul\":638:676   */\n      swap1\n      pop\n        /* \"#utility.yul\":580:682   */\n      swap2\n      swap1\n      pop\n      jump\t// out\n        /* \"#utility.yul\":688:868   */\n    tag_84:\n        /* \"#utility.yul\":736:813   */\n      0x4e487b7100000000000000000000000000000000000000000000000000000000\n        /* \"#utility.yul\":733:734   */\n      0x00\n        /* \"#utility.yul\":726:814   */\n      mstore\n        /* \"#utility.yul\":833:837   */\n      0x41\n        /* \"#utility.yul\":830:831   */\n      0x04\n        /* \"#utility.yul\":823:838   */\n      mstore\n        /* \"#utility.yul\":857:861   */\n      0x24\n        /* \"#utility.yul\":854:855   */\n      0x00\n        /* \"#utility.yul\":847:862   */\n      revert\n        /* \"#utility.yul\":874:1155   */\n    tag_85:\n        /* \"#utility.yul\":957:984   */\n      tag_119\n        /* \"#utility.yul\":979:983   */\n      dup3\n        /* \"#utility.yul\":957:984   */\n      tag_83\n      jump\t// in\n    tag_119:\n        /* \"#utility.yul\":949:955   */\n      dup2\n        /* \"#utility.yul\":945:985   */\n      add\n        /* \"#utility.yul\":1087:1093   */\n      dup2\n        /* \"#utility.yul\":1075:1085   */\n      dup2\n        /* \"#utility.yul\":1072:1094   */\n      lt\n        /* \"#utility.yul\":1051:1069   */\n      0xffffffffffffffff\n        /* \"#utility.yul\":1039:1049   */\n      dup3\n        /* \"#utility.yul\":1036:1070   */\n      gt\n        /* \"#utility.yul\":1033:1095   */\n      or\n        /* \"#utility.yul\":1030:1118   */\n      iszero\n      tag_120\n      jumpi\n        /* \"#utility.yul\":1098:1116   */\n      tag_121\n      tag_84\n      jump\t// in\n    tag_121:\n        /* \"#utility.yul\":1030:1118   */\n    tag_120:\n        /* \"#utility.yul\":1138:1148   */\n      dup1\n        /* \"#utility.yul\":1134:1136   */\n      0x40\n        /* \"#utility.yul\":1127:1149   */\n      mstore\n        /* \"#utility.yul\":917:1155   */\n      pop\n        /* \"#utility.yul\":874:1155   */\n      pop\n      pop\n      jump\t// out\n        /* \"#utility.yul\":1161:1290   */\n    tag_86:\n        /* \"#utility.yul\":1195:1201   */\n      0x00\n        /* \"#utility.yul\":1222:1242   */\n      tag_123\n      tag_78\n      jump\t// in\n    tag_123:\n        /* \"#utility.yul\":1212:1242   */\n      swap1\n      pop\n        /* \"#utility.yul\":1251:1284   */\n      tag_124\n        /* \"#utility.yul\":1279:1283   */\n      dup3\n        /* \"#utility.yul\":1271:1277   */\n      dup3\n        /* \"#utility.yul\":1251:1284   */\n      tag_85\n      jump\t// in\n    tag_124:\n        /* \"#utility.yul\":1161:1290   */\n      swap2\n      swap1\n      pop\n      jump\t// out\n        /* \"#utility.yul\":1296:1604   */\n    tag_87:\n        /* \"#utility.yul\":1358:1362   */\n      0x00\n        /* \"#utility.yul\":1448:1466   */\n      0xffffffffffffffff\n        /* \"#utility.yul\":1440:1446   */\n      dup3\n        /* \"#utility.yul\":1437:1467   */\n      gt\n        /* \"#utility.yul\":1434:1490   */\n      iszero\n      tag_126\n      jumpi\n        /* \"#utility.yul\":1470:1488   */\n      tag_127\n      tag_84\n      jump\t// in\n    tag_127:\n        /* \"#utility.yul\":1434:1490   */\n    tag_126:\n        /* \"#utility.yul\":1508:1537   */\n      tag_128\n        /* \"#utility.yul\":1530:1536   */\n      dup3\n        /* \"#utility.yul\":1508:1537   */\n      tag_83\n      jump\t// in\n    tag_128:\n        /* \"#utility.yul\":1500:1537   */\n      swap1\n      pop\n        /* \"#utility.yul\":1592:1596   */\n      0x20\n        /* \"#utility.yul\":1586:1590   */\n      dup2\n        /* \"#utility.yul\":1582:1597   */\n      add\n        /* \"#utility.yul\":1574:1597   */\n      swap1\n      pop\n        /* \"#utility.yul\":1296:1604   */\n      swap2\n      swap1\n      pop\n      jump\t// out\n        /* \"#utility.yul\":1610:1764   */\n    tag_88:\n        /* \"#utility.yul\":1694:1700   */\n      dup3\n        /* \"#utility.yul\":1689:1692   */\n      dup2\n        /* \"#utility.yul\":1684:1687   */\n      dup4\n        /* \"#utility.yul\":1671:1701   */\n      calldatacopy\n        /* \"#utility.yul\":1756:1757   */\n      0x00\n        /* \"#utility.yul\":1747:1753   */\n      dup4\n        /* \"#utility.yul\":1742:1745   */\n      dup4\n        /* \"#utility.yul\":1738:1754   */\n      add\n        /* \"#utility.yul\":1731:1758   */\n      mstore\n        /* \"#utility.yul\":1610:1764   */\n      pop\n      pop\n      pop\n      jump\t// out\n        /* \"#utility.yul\":1770:2182   */\n    tag_89:\n        /* \"#utility.yul\":1848:1853   */\n      0x00\n        /* \"#utility.yul\":1873:1939   */\n      tag_131\n        /* \"#utility.yul\":1889:1938   */\n      tag_132\n        /* \"#utility.yul\":1931:1937   */\n      dup5\n        /* \"#utility.yul\":1889:1938   */\n      tag_87\n      jump\t// in\n    tag_132:\n        /* \"#utility.yul\":1873:1939   */\n      tag_86\n      jump\t// in\n    tag_131:\n        /* \"#utility.yul\":1864:1939   */\n      swap1\n      pop\n        /* \"#utility.yul\":1962:1968   */\n      dup3\n        /* \"#utility.yul\":1955:1960   */\n      dup2\n        /* \"#utility.yul\":1948:1969   */\n      mstore\n        /* \"#utility.yul\":2000:2004   */\n      0x20\n        /* \"#utility.yul\":1993:1998   */\n      dup2\n        /* \"#utility.yul\":1989:2005   */\n      add\n        /* \"#utility.yul\":2038:2041   */\n      dup5\n        /* \"#utility.yul\":2029:2035   */\n      dup5\n        /* \"#utility.yul\":2024:2027   */\n      dup5\n        /* \"#utility.yul\":2020:2036   */\n      add\n        /* \"#utility.yul\":2017:2042   */\n      gt\n        /* \"#utility.yul\":2014:2126   */\n      iszero\n      tag_133\n      jumpi\n        /* \"#utility.yul\":2045:2124   */\n      tag_134\n      tag_82\n      jump\t// in\n    tag_134:\n        /* \"#utility.yul\":2014:2126   */\n    tag_133:\n        /* \"#utility.yul\":2135:2176   */\n      tag_135\n        /* \"#utility.yul\":2169:2175   */\n      dup5\n        /* \"#utility.yul\":2164:2167   */\n      dup3\n        /* \"#utility.yul\":2159:2162   */\n      dup6\n        /* \"#utility.yul\":2135:2176   */\n      tag_88\n      jump\t// in\n    tag_135:\n        /* \"#utility.yul\":1854:2182   */\n      pop\n        /* \"#utility.yul\":1770:2182   */\n      swap4\n      swap3\n      pop\n      pop\n      pop\n      jump\t// out\n        /* \"#utility.yul\":2202:2542   */\n    tag_90:\n        /* \"#utility.yul\":2258:2263   */\n      0x00\n        /* \"#utility.yul\":2307:2310   */\n      dup3\n        /* \"#utility.yul\":2300:2304   */\n      0x1f\n        /* \"#utility.yul\":2292:2298   */\n      dup4\n        /* \"#utility.yul\":2288:2305   */\n      add\n        /* \"#utility.yul\":2284:2311   */\n      slt\n        /* \"#utility.yul\":2274:2396   */\n      tag_137\n      jumpi\n        /* \"#utility.yul\":2315:2394   */\n      tag_138\n      tag_81\n      jump\t// in\n    tag_138:\n        /* \"#utility.yul\":2274:2396   */\n    tag_137:\n        /* \"#utility.yul\":2432:2438   */\n      dup2\n        /* \"#utility.yul\":2419:2439   */\n      calldataload\n        /* \"#utility.yul\":2457:2536   */\n      tag_139\n        /* \"#utility.yul\":2532:2535   */\n      dup5\n        /* \"#utility.yul\":2524:2530   */\n      dup3\n        /* \"#utility.yul\":2517:2521   */\n      0x20\n        /* \"#utility.yul\":2509:2515   */\n      dup7\n        /* \"#utility.yul\":2505:2522   */\n      add\n        /* \"#utility.yul\":2457:2536   */\n      tag_89\n      jump\t// in\n    tag_139:\n        /* \"#utility.yul\":2448:2536   */\n      swap2\n      pop\n        /* \"#utility.yul\":2264:2542   */\n      pop\n        /* \"#utility.yul\":2202:2542   */\n      swap3\n      swap2\n      pop\n      pop\n      jump\t// out\n        /* \"#utility.yul\":2548:3057   */\n    tag_8:\n        /* \"#utility.yul\":2617:2623   */\n      0x00\n        /* \"#utility.yul\":2666:2668   */\n      0x20\n        /* \"#utility.yul\":2654:2663   */\n      dup3\n        /* \"#utility.yul\":2645:2652   */\n      dup5\n        /* \"#utility.yul\":2641:2664   */\n      sub\n        /* \"#utility.yul\":2637:2669   */\n      slt\n        /* \"#utility.yul\":2634:2753   */\n      iszero\n      tag_141\n      jumpi\n        /* \"#utility.yul\":2672:2751   */\n      tag_142\n      tag_79\n      jump\t// in\n    tag_142:\n        /* \"#utility.yul\":2634:2753   */\n    tag_141:\n        /* \"#utility.yul\":2820:2821   */\n      0x00\n        /* \"#utility.yul\":2809:2818   */\n      dup3\n        /* \"#utility.yul\":2805:2822   */\n      add\n        /* \"#utility.yul\":2792:2823   */\n      calldataload\n        /* \"#utility.yul\":2850:2868   */\n      0xffffffffffffffff\n        /* \"#utility.yul\":2842:2848   */\n      dup2\n        /* \"#utility.yul\":2839:2869   */\n      gt\n        /* \"#utility.yul\":2836:2953   */\n      iszero\n      tag_143\n      jumpi\n        /* \"#utility.yul\":2872:2951   */\n      tag_144\n      tag_80\n      jump\t// in\n    tag_144:\n        /* \"#utility.yul\":2836:2953   */\n    tag_143:\n        /* \"#utility.yul\":2977:3040   */\n      tag_145\n        /* \"#utility.yul\":3032:3039   */\n      dup5\n        /* \"#utility.yul\":3023:3029   */\n      dup3\n        /* \"#utility.yul\":3012:3021   */\n      dup6\n        /* \"#utility.yul\":3008:3030   */\n      add\n        /* \"#utility.yul\":2977:3040   */\n      tag_90\n      jump\t// in\n    tag_145:\n        /* \"#utility.yul\":2967:3040   */\n      swap2\n      pop\n        /* \"#utility.yul\":2763:3050   */\n      pop\n        /* \"#utility.yul\":2548:3057   */\n      swap3\n      swap2\n      pop\n      pop\n      jump\t// out\n        /* \"#utility.yul\":3063:3200   */\n    tag_91:\n        /* \"#utility.yul\":3153:3159   */\n      0x00\n        /* \"#utility.yul\":3187:3192   */\n      dup2\n        /* \"#utility.yul\":3181:3193   */\n      mload\n        /* \"#utility.yul\":3171:3193   */\n      swap1\n      pop\n        /* \"#utility.yul\":3063:3200   */\n      swap2\n      swap1\n      pop\n      jump\t// out\n        /* \"#utility.yul\":3206:3413   */\n    tag_92:\n        /* \"#utility.yul\":3328:3339   */\n      0x00\n        /* \"#utility.yul\":3362:3368   */\n      dup3\n        /* \"#utility.yul\":3357:3360   */\n      dup3\n        /* \"#utility.yul\":3350:3369   */\n      mstore\n        /* \"#utility.yul\":3402:3406   */\n      0x20\n        /* \"#utility.yul\":3397:3400   */\n      dup3\n        /* \"#utility.yul\":3393:3407   */\n      add\n        /* \"#utility.yul\":3378:3407   */\n      swap1\n      pop\n        /* \"#utility.yul\":3206:3413   */\n      swap3\n      swap2\n      pop\n      pop\n      jump\t// out\n        /* \"#utility.yul\":3419:3574   */\n    tag_93:\n        /* \"#utility.yul\":3509:3513   */\n      0x00\n        /* \"#utility.yul\":3532:3535   */\n      dup2\n        /* \"#utility.yul\":3524:3535   */\n      swap1\n      pop\n        /* \"#utility.yul\":3562:3566   */\n      0x20\n        /* \"#utility.yul\":3557:3560   */\n      dup3\n        /* \"#utility.yul\":3553:3567   */\n      add\n        /* \"#utility.yul\":3545:3567   */\n      swap1\n      pop\n        /* \"#utility.yul\":3419:3574   */\n      swap2\n      swap1\n      pop\n      jump\t// out\n        /* \"#utility.yul\":3580:3679   */\n    tag_94:\n        /* \"#utility.yul\":3632:3638   */\n      0x00\n        /* \"#utility.yul\":3666:3671   */\n      dup2\n        /* \"#utility.yul\":3660:3672   */\n      mload\n        /* \"#utility.yul\":3650:3672   */\n      swap1\n      pop\n        /* \"#utility.yul\":3580:3679   */\n      swap2\n      swap1\n      pop\n      jump\t// out\n        /* \"#utility.yul\":3685:3844   */\n    tag_95:\n        /* \"#utility.yul\":3759:3770   */\n      0x00\n        /* \"#utility.yul\":3793:3799   */\n      dup3\n        /* \"#utility.yul\":3788:3791   */\n      dup3\n        /* \"#utility.yul\":3781:3800   */\n      mstore\n        /* \"#utility.yul\":3833:3837   */\n      0x20\n        /* \"#utility.yul\":3828:3831   */\n      dup3\n        /* \"#utility.yul\":3824:3838   */\n      add\n        /* \"#utility.yul\":3809:3838   */\n      swap1\n      pop\n        /* \"#utility.yul\":3685:3844   */\n      swap3\n      swap2\n      pop\n      pop\n      jump\t// out\n        /* \"#utility.yul\":3850:4157   */\n    tag_96:\n        /* \"#utility.yul\":3918:3919   */\n      0x00\n        /* \"#utility.yul\":3928:4041   */\n    tag_152:\n        /* \"#utility.yul\":3942:3948   */\n      dup4\n        /* \"#utility.yul\":3939:3940   */\n      dup2\n        /* \"#utility.yul\":3936:3949   */\n      lt\n        /* \"#utility.yul\":3928:4041   */\n      iszero\n      tag_154\n      jumpi\n        /* \"#utility.yul\":4027:4028   */\n      dup1\n        /* \"#utility.yul\":4022:4025   */\n      dup3\n        /* \"#utility.yul\":4018:4029   */\n      add\n        /* \"#utility.yul\":4012:4030   */\n      mload\n        /* \"#utility.yul\":4008:4009   */\n      dup2\n        /* \"#utility.yul\":4003:4006   */\n      dup5\n        /* \"#utility.yul\":3999:4010   */\n      add\n        /* \"#utility.yul\":3992:4031   */\n      mstore\n        /* \"#utility.yul\":3964:3966   */\n      0x20\n        /* \"#utility.yul\":3961:3962   */\n      dup2\n        /* \"#utility.yul\":3957:3967   */\n      add\n        /* \"#utility.yul\":3952:3967   */\n      swap1\n      pop\n        /* \"#utility.yul\":3928:4041   */\n      jump(tag_152)\n    tag_154:\n        /* \"#utility.yul\":4059:4065   */\n      dup4\n        /* \"#utility.yul\":4056:4057   */\n      dup2\n        /* \"#utility.yul\":4053:4066   */\n      gt\n        /* \"#utility.yul\":4050:4151   */\n      iszero\n      tag_155\n      jumpi\n        /* \"#utility.yul\":4139:4140   */\n      0x00\n        /* \"#utility.yul\":4130:4136   */\n      dup5\n        /* \"#utility.yul\":4125:4128   */\n      dup5\n        /* \"#utility.yul\":4121:4137   */\n      add\n        /* \"#utility.yul\":4114:4141   */\n      mstore\n        /* \"#utility.yul\":4050:4151   */\n    tag_155:\n        /* \"#utility.yul\":3899:4157   */\n      pop\n        /* \"#utility.yul\":3850:4157   */\n      pop\n      pop\n      pop\n      jump\t// out\n        /* \"#utility.yul\":4163:4507   */\n    tag_97:\n        /* \"#utility.yul\":4241:4244   */\n      0x00\n        /* \"#utility.yul\":4269:4308   */\n      tag_157\n        /* \"#utility.yul\":4302:4307   */\n      dup3\n        /* \"#utility.yul\":4269:4308   */\n      tag_94\n      jump\t// in\n    tag_157:\n        /* \"#utility.yul\":4324:4385   */\n      tag_158\n        /* \"#utility.yul\":4378:4384   */\n      dup2\n        /* \"#utility.yul\":4373:4376   */\n      dup6\n        /* \"#utility.yul\":4324:4385   */\n      tag_95\n      jump\t// in\n    tag_158:\n        /* \"#utility.yul\":4317:4385   */\n      swap4\n      pop\n        /* \"#utility.yul\":4394:4446   */\n      tag_159\n        /* \"#utility.yul\":4439:4445   */\n      dup2\n        /* \"#utility.yul\":4434:4437   */\n      dup6\n        /* \"#utility.yul\":4427:4431   */\n      0x20\n        /* \"#utility.yul\":4420:4425   */\n      dup7\n        /* \"#utility.yul\":4416:4432   */\n      add\n        /* \"#utility.yul\":4394:4446   */\n      tag_96\n      jump\t// in\n    tag_159:\n        /* \"#utility.yul\":4471:4500   */\n      tag_160\n        /* \"#utility.yul\":4493:4499   */\n      dup2\n        /* \"#utility.yul\":4471:4500   */\n      tag_83\n      jump\t// in\n    tag_160:\n        /* \"#utility.yul\":4466:4469   */\n      dup5\n        /* \"#utility.yul\":4462:4501   */\n      add\n        /* \"#utility.yul\":4455:4501   */\n      swap2\n      pop\n        /* \"#utility.yul\":4245:4507   */\n      pop\n        /* \"#utility.yul\":4163:4507   */\n      swap3\n      swap2\n      pop\n      pop\n      jump\t// out\n        /* \"#utility.yul\":4583:5502   */\n    tag_98:\n        /* \"#utility.yul\":4688:4691   */\n      0x00\n        /* \"#utility.yul\":4724:4728   */\n      0x60\n        /* \"#utility.yul\":4719:4722   */\n      dup4\n        /* \"#utility.yul\":4715:4729   */\n      add\n        /* \"#utility.yul\":4818:4822   */\n      0x00\n        /* \"#utility.yul\":4811:4816   */\n      dup4\n        /* \"#utility.yul\":4807:4823   */\n      add\n        /* \"#utility.yul\":4801:4824   */\n      mload\n        /* \"#utility.yul\":4871:4874   */\n      dup5\n        /* \"#utility.yul\":4865:4869   */\n      dup3\n        /* \"#utility.yul\":4861:4875   */\n      sub\n        /* \"#utility.yul\":4854:4858   */\n      0x00\n        /* \"#utility.yul\":4849:4852   */\n      dup7\n        /* \"#utility.yul\":4845:4859   */\n      add\n        /* \"#utility.yul\":4838:4876   */\n      mstore\n        /* \"#utility.yul\":4897:4970   */\n      tag_162\n        /* \"#utility.yul\":4965:4969   */\n      dup3\n        /* \"#utility.yul\":4951:4963   */\n      dup3\n        /* \"#utility.yul\":4897:4970   */\n      tag_97\n      jump\t// in\n    tag_162:\n        /* \"#utility.yul\":4889:4970   */\n      swap2\n      pop\n        /* \"#utility.yul\":4739:4981   */\n      pop\n        /* \"#utility.yul\":5063:5067   */\n      0x20\n        /* \"#utility.yul\":5056:5061   */\n      dup4\n        /* \"#utility.yul\":5052:5068   */\n      add\n        /* \"#utility.yul\":5046:5069   */\n      mload\n        /* \"#utility.yul\":5116:5119   */\n      dup5\n        /* \"#utility.yul\":5110:5114   */\n      dup3\n        /* \"#utility.yul\":5106:5120   */\n      sub\n        /* \"#utility.yul\":5099:5103   */\n      0x20\n        /* \"#utility.yul\":5094:5097   */\n      dup7\n        /* \"#utility.yul\":5090:5104   */\n      add\n        /* \"#utility.yul\":5083:5121   */\n      mstore\n        /* \"#utility.yul\":5142:5215   */\n      tag_163\n        /* \"#utility.yul\":5210:5214   */\n      dup3\n        /* \"#utility.yul\":5196:5208   */\n      dup3\n        /* \"#utility.yul\":5142:5215   */\n      tag_97\n      jump\t// in\n    tag_163:\n        /* \"#utility.yul\":5134:5215   */\n      swap2\n      pop\n        /* \"#utility.yul\":4991:5226   */\n      pop\n        /* \"#utility.yul\":5312:5316   */\n      0x40\n        /* \"#utility.yul\":5305:5310   */\n      dup4\n        /* \"#utility.yul\":5301:5317   */\n      add\n        /* \"#utility.yul\":5295:5318   */\n      mload\n        /* \"#utility.yul\":5365:5368   */\n      dup5\n        /* \"#utility.yul\":5359:5363   */\n      dup3\n        /* \"#utility.yul\":5355:5369   */\n      sub\n        /* \"#utility.yul\":5348:5352   */\n      0x40\n        /* \"#utility.yul\":5343:5346   */\n      dup7\n        /* \"#utility.yul\":5339:5353   */\n      add\n        /* \"#utility.yul\":5332:5370   */\n      mstore\n        /* \"#utility.yul\":5391:5464   */\n      tag_164\n        /* \"#utility.yul\":5459:5463   */\n      dup3\n        /* \"#utility.yul\":5445:5457   */\n      dup3\n        /* \"#utility.yul\":5391:5464   */\n      tag_97\n      jump\t// in\n    tag_164:\n        /* \"#utility.yul\":5383:5464   */\n      swap2\n      pop\n        /* \"#utility.yul\":5236:5475   */\n      pop\n        /* \"#utility.yul\":5492:5496   */\n      dup1\n        /* \"#utility.yul\":5485:5496   */\n      swap2\n      pop\n        /* \"#utility.yul\":4693:5502   */\n      pop\n        /* \"#utility.yul\":4583:5502   */\n      swap3\n      swap2\n      pop\n      pop\n      jump\t// out\n        /* \"#utility.yul\":5508:5756   */\n    tag_99:\n        /* \"#utility.yul\":5623:5633   */\n      0x00\n        /* \"#utility.yul\":5658:5750   */\n      tag_166\n        /* \"#utility.yul\":5746:5749   */\n      dup4\n        /* \"#utility.yul\":5738:5744   */\n      dup4\n        /* \"#utility.yul\":5658:5750   */\n      tag_98\n      jump\t// in\n    tag_166:\n        /* \"#utility.yul\":5644:5750   */\n      swap1\n      pop\n        /* \"#utility.yul\":5508:5756   */\n      swap3\n      swap2\n      pop\n      pop\n      jump\t// out\n        /* \"#utility.yul\":5762:5898   */\n    tag_100:\n        /* \"#utility.yul\":5855:5859   */\n      0x00\n        /* \"#utility.yul\":5887:5891   */\n      0x20\n        /* \"#utility.yul\":5882:5885   */\n      dup3\n        /* \"#utility.yul\":5878:5892   */\n      add\n        /* \"#utility.yul\":5870:5892   */\n      swap1\n      pop\n        /* \"#utility.yul\":5762:5898   */\n      swap2\n      swap1\n      pop\n      jump\t// out\n        /* \"#utility.yul\":5978:7073   */\n    tag_101:\n        /* \"#utility.yul\":6143:6146   */\n      0x00\n        /* \"#utility.yul\":6172:6249   */\n      tag_169\n        /* \"#utility.yul\":6243:6248   */\n      dup3\n        /* \"#utility.yul\":6172:6249   */\n      tag_91\n      jump\t// in\n    tag_169:\n        /* \"#utility.yul\":6265:6374   */\n      tag_170\n        /* \"#utility.yul\":6367:6373   */\n      dup2\n        /* \"#utility.yul\":6362:6365   */\n      dup6\n        /* \"#utility.yul\":6265:6374   */\n      tag_92\n      jump\t// in\n    tag_170:\n        /* \"#utility.yul\":6258:6374   */\n      swap4\n      pop\n        /* \"#utility.yul\":6400:6403   */\n      dup4\n        /* \"#utility.yul\":6445:6449   */\n      0x20\n        /* \"#utility.yul\":6437:6443   */\n      dup3\n        /* \"#utility.yul\":6433:6450   */\n      mul\n        /* \"#utility.yul\":6428:6431   */\n      dup6\n        /* \"#utility.yul\":6424:6451   */\n      add\n        /* \"#utility.yul\":6475:6554   */\n      tag_171\n        /* \"#utility.yul\":6548:6553   */\n      dup6\n        /* \"#utility.yul\":6475:6554   */\n      tag_93\n      jump\t// in\n    tag_171:\n        /* \"#utility.yul\":6577:6584   */\n      dup1\n        /* \"#utility.yul\":6608:6609   */\n      0x00\n        /* \"#utility.yul\":6593:7028   */\n    tag_172:\n        /* \"#utility.yul\":6618:6624   */\n      dup6\n        /* \"#utility.yul\":6615:6616   */\n      dup2\n        /* \"#utility.yul\":6612:6625   */\n      lt\n        /* \"#utility.yul\":6593:7028   */\n      iszero\n      tag_174\n      jumpi\n        /* \"#utility.yul\":6689:6698   */\n      dup5\n        /* \"#utility.yul\":6683:6687   */\n      dup5\n        /* \"#utility.yul\":6679:6699   */\n      sub\n        /* \"#utility.yul\":6674:6677   */\n      dup10\n        /* \"#utility.yul\":6667:6700   */\n      mstore\n        /* \"#utility.yul\":6740:6746   */\n      dup2\n        /* \"#utility.yul\":6734:6747   */\n      mload\n        /* \"#utility.yul\":6768:6878   */\n      tag_175\n        /* \"#utility.yul\":6873:6877   */\n      dup6\n        /* \"#utility.yul\":6858:6871   */\n      dup3\n        /* \"#utility.yul\":6768:6878   */\n      tag_99\n      jump\t// in\n    tag_175:\n        /* \"#utility.yul\":6760:6878   */\n      swap5\n      pop\n        /* \"#utility.yul\":6901:6984   */\n      tag_176\n        /* \"#utility.yul\":6977:6983   */\n      dup4\n        /* \"#utility.yul\":6901:6984   */\n      tag_100\n      jump\t// in\n    tag_176:\n        /* \"#utility.yul\":6891:6984   */\n      swap3\n      pop\n        /* \"#utility.yul\":7013:7017   */\n      0x20\n        /* \"#utility.yul\":7008:7011   */\n      dup11\n        /* \"#utility.yul\":7004:7018   */\n      add\n        /* \"#utility.yul\":6997:7018   */\n      swap10\n      pop\n        /* \"#utility.yul\":6653:7028   */\n      pop\n        /* \"#utility.yul\":6640:6641   */\n      0x01\n        /* \"#utility.yul\":6637:6638   */\n      dup2\n        /* \"#utility.yul\":6633:6642   */\n      add\n        /* \"#utility.yul\":6628:6642   */\n      swap1\n      pop\n        /* \"#utility.yul\":6593:7028   */\n      jump(tag_172)\n    tag_174:\n        /* \"#utility.yul\":6597:6611   */\n      pop\n        /* \"#utility.yul\":7044:7048   */\n      dup3\n        /* \"#utility.yul\":7037:7048   */\n      swap8\n      pop\n        /* \"#utility.yul\":7064:7067   */\n      dup8\n        /* \"#utility.yul\":7057:7067   */\n      swap6\n      pop\n        /* \"#utility.yul\":6148:7073   */\n      pop\n      pop\n      pop\n      pop\n      pop\n        /* \"#utility.yul\":5978:7073   */\n      swap3\n      swap2\n      pop\n      pop\n      jump\t// out\n        /* \"#utility.yul\":7079:7544   */\n    tag_11:\n        /* \"#utility.yul\":7268:7272   */\n      0x00\n        /* \"#utility.yul\":7306:7308   */\n      0x20\n        /* \"#utility.yul\":7295:7304   */\n      dup3\n        /* \"#utility.yul\":7291:7309   */\n      add\n        /* \"#utility.yul\":7283:7309   */\n      swap1\n      pop\n        /* \"#utility.yul\":7355:7364   */\n      dup2\n        /* \"#utility.yul\":7349:7353   */\n      dup2\n        /* \"#utility.yul\":7345:7365   */\n      sub\n        /* \"#utility.yul\":7341:7342   */\n      0x00\n        /* \"#utility.yul\":7330:7339   */\n      dup4\n        /* \"#utility.yul\":7326:7343   */\n      add\n        /* \"#utility.yul\":7319:7366   */\n      mstore\n        /* \"#utility.yul\":7383:7537   */\n      tag_178\n        /* \"#utility.yul\":7532:7536   */\n      dup2\n        /* \"#utility.yul\":7523:7529   */\n      dup5\n        /* \"#utility.yul\":7383:7537   */\n      tag_101\n      jump\t// in\n    tag_178:\n        /* \"#utility.yul\":7375:7537   */\n      swap1\n      pop\n        /* \"#utility.yul\":7079:7544   */\n      swap3\n      swap2\n      pop\n      pop\n      jump\t// out\n        /* \"#utility.yul\":7550:9035   */\n    tag_14:\n        /* \"#utility.yul\":7676:7682   */\n      0x00\n        /* \"#utility.yul\":7684:7690   */\n      dup1\n        /* \"#utility.yul\":7692:7698   */\n      0x00\n        /* \"#utility.yul\":7700:7706   */\n      dup1\n        /* \"#utility.yul\":7749:7752   */\n      0x80\n        /* \"#utility.yul\":7737:7746   */\n      dup6\n        /* \"#utility.yul\":7728:7735   */\n      dup8\n        /* \"#utility.yul\":7724:7747   */\n      sub\n        /* \"#utility.yul\":7720:7753   */\n      slt\n        /* \"#utility.yul\":7717:7837   */\n      iszero\n      tag_180\n      jumpi\n        /* \"#utility.yul\":7756:7835   */\n      tag_181\n      tag_79\n      jump\t// in\n    tag_181:\n        /* \"#utility.yul\":7717:7837   */\n    tag_180:\n        /* \"#utility.yul\":7904:7905   */\n      0x00\n        /* \"#utility.yul\":7893:7902   */\n      dup6\n        /* \"#utility.yul\":7889:7906   */\n      add\n        /* \"#utility.yul\":7876:7907   */\n      calldataload\n        /* \"#utility.yul\":7934:7952   */\n      0xffffffffffffffff\n        /* \"#utility.yul\":7926:7932   */\n      dup2\n        /* \"#utility.yul\":7923:7953   */\n      gt\n        /* \"#utility.yul\":7920:8037   */\n      iszero\n      tag_182\n      jumpi\n        /* \"#utility.yul\":7956:8035   */\n      tag_183\n      tag_80\n      jump\t// in\n    tag_183:\n        /* \"#utility.yul\":7920:8037   */\n    tag_182:\n        /* \"#utility.yul\":8061:8124   */\n      tag_184\n        /* \"#utility.yul\":8116:8123   */\n      dup8\n        /* \"#utility.yul\":8107:8113   */\n      dup3\n        /* \"#utility.yul\":8096:8105   */\n      dup9\n        /* \"#utility.yul\":8092:8114   */\n      add\n        /* \"#utility.yul\":8061:8124   */\n      tag_90\n      jump\t// in\n    tag_184:\n        /* \"#utility.yul\":8051:8124   */\n      swap5\n      pop\n        /* \"#utility.yul\":7847:8134   */\n      pop\n        /* \"#utility.yul\":8201:8203   */\n      0x20\n        /* \"#utility.yul\":8190:8199   */\n      dup6\n        /* \"#utility.yul\":8186:8204   */\n      add\n        /* \"#utility.yul\":8173:8205   */\n      calldataload\n        /* \"#utility.yul\":8232:8250   */\n      0xffffffffffffffff\n        /* \"#utility.yul\":8224:8230   */\n      dup2\n        /* \"#utility.yul\":8221:8251   */\n      gt\n        /* \"#utility.yul\":8218:8335   */\n      iszero\n      tag_185\n      jumpi\n        /* \"#utility.yul\":8254:8333   */\n      tag_186\n      tag_80\n      jump\t// in\n    tag_186:\n        /* \"#utility.yul\":8218:8335   */\n    tag_185:\n        /* \"#utility.yul\":8359:8422   */\n      tag_187\n        /* \"#utility.yul\":8414:8421   */\n      dup8\n        /* \"#utility.yul\":8405:8411   */\n      dup3\n        /* \"#utility.yul\":8394:8403   */\n      dup9\n        /* \"#utility.yul\":8390:8412   */\n      add\n        /* \"#utility.yul\":8359:8422   */\n      tag_90\n      jump\t// in\n    tag_187:\n        /* \"#utility.yul\":8349:8422   */\n      swap4\n      pop\n        /* \"#utility.yul\":8144:8432   */\n      pop\n        /* \"#utility.yul\":8499:8501   */\n      0x40\n        /* \"#utility.yul\":8488:8497   */\n      dup6\n        /* \"#utility.yul\":8484:8502   */\n      add\n        /* \"#utility.yul\":8471:8503   */\n      calldataload\n        /* \"#utility.yul\":8530:8548   */\n      0xffffffffffffffff\n        /* \"#utility.yul\":8522:8528   */\n      dup2\n        /* \"#utility.yul\":8519:8549   */\n      gt\n        /* \"#utility.yul\":8516:8633   */\n      iszero\n      tag_188\n      jumpi\n        /* \"#utility.yul\":8552:8631   */\n      tag_189\n      tag_80\n      jump\t// in\n    tag_189:\n        /* \"#utility.yul\":8516:8633   */\n    tag_188:\n        /* \"#utility.yul\":8657:8720   */\n      tag_190\n        /* \"#utility.yul\":8712:8719   */\n      dup8\n        /* \"#utility.yul\":8703:8709   */\n      dup3\n        /* \"#utility.yul\":8692:8701   */\n      dup9\n        /* \"#utility.yul\":8688:8710   */\n      add\n        /* \"#utility.yul\":8657:8720   */\n      tag_90\n      jump\t// in\n    tag_190:\n        /* \"#utility.yul\":8647:8720   */\n      swap3\n      pop\n        /* \"#utility.yul\":8442:8730   */\n      pop\n        /* \"#utility.yul\":8797:8799   */\n      0x60\n        /* \"#utility.yul\":8786:8795   */\n      dup6\n        /* \"#utility.yul\":8782:8800   */\n      add\n        /* \"#utility.yul\":8769:8801   */\n      calldataload\n        /* \"#utility.yul\":8828:8846   */\n      0xffffffffffffffff\n        /* \"#utility.yul\":8820:8826   */\n      dup2\n        /* \"#utility.yul\":8817:8847   */\n      gt\n        /* \"#utility.yul\":8814:8931   */\n      iszero\n      tag_191\n      jumpi\n        /* \"#utility.yul\":8850:8929   */\n      tag_192\n      tag_80\n      jump\t// in\n    tag_192:\n        /* \"#utility.yul\":8814:8931   */\n    tag_191:\n        /* \"#utility.yul\":8955:9018   */\n      tag_193\n        /* \"#utility.yul\":9010:9017   */\n      dup8\n        /* \"#utility.yul\":9001:9007   */\n      dup3\n        /* \"#utility.yul\":8990:8999   */\n      dup9\n        /* \"#utility.yul\":8986:9008   */\n      add\n        /* \"#utility.yul\":8955:9018   */\n      tag_90\n      jump\t// in\n    tag_193:\n        /* \"#utility.yul\":8945:9018   */\n      swap2\n      pop\n        /* \"#utility.yul\":8740:9028   */\n      pop\n        /* \"#utility.yul\":7550:9035   */\n      swap3\n      swap6\n      swap2\n      swap5\n      pop\n      swap3\n      pop\n      jump\t// out\n        /* \"#utility.yul\":9041:9118   */\n    tag_102:\n        /* \"#utility.yul\":9078:9085   */\n      0x00\n        /* \"#utility.yul\":9107:9112   */\n      dup2\n        /* \"#utility.yul\":9096:9112   */\n      swap1\n      pop\n        /* \"#utility.yul\":9041:9118   */\n      swap2\n      swap1\n      pop\n      jump\t// out\n        /* \"#utility.yul\":9124:9246   */\n    tag_103:\n        /* \"#utility.yul\":9197:9221   */\n      tag_196\n        /* \"#utility.yul\":9215:9220   */\n      dup2\n        /* \"#utility.yul\":9197:9221   */\n      tag_102\n      jump\t// in\n    tag_196:\n        /* \"#utility.yul\":9190:9195   */\n      dup2\n        /* \"#utility.yul\":9187:9222   */\n      eq\n        /* \"#utility.yul\":9177:9240   */\n      tag_197\n      jumpi\n        /* \"#utility.yul\":9236:9237   */\n      0x00\n        /* \"#utility.yul\":9233:9234   */\n      dup1\n        /* \"#utility.yul\":9226:9238   */\n      revert\n        /* \"#utility.yul\":9177:9240   */\n    tag_197:\n        /* \"#utility.yul\":9124:9246   */\n      pop\n      jump\t// out\n        /* \"#utility.yul\":9252:9391   */\n    tag_104:\n        /* \"#utility.yul\":9298:9303   */\n      0x00\n        /* \"#utility.yul\":9336:9342   */\n      dup2\n        /* \"#utility.yul\":9323:9343   */\n      calldataload\n        /* \"#utility.yul\":9314:9343   */\n      swap1\n      pop\n        /* \"#utility.yul\":9352:9385   */\n      tag_199\n        /* \"#utility.yul\":9379:9384   */\n      dup2\n        /* \"#utility.yul\":9352:9385   */\n      tag_103\n      jump\t// in\n    tag_199:\n        /* \"#utility.yul\":9252:9391   */\n      swap3\n      swap2\n      pop\n      pop\n      jump\t// out\n        /* \"#utility.yul\":9397:10051   */\n    tag_18:\n        /* \"#utility.yul\":9475:9481   */\n      0x00\n        /* \"#utility.yul\":9483:9489   */\n      dup1\n        /* \"#utility.yul\":9532:9534   */\n      0x40\n        /* \"#utility.yul\":9520:9529   */\n      dup4\n        /* \"#utility.yul\":9511:9518   */\n      dup6\n        /* \"#utility.yul\":9507:9530   */\n      sub\n        /* \"#utility.yul\":9503:9535   */\n      slt\n        /* \"#utility.yul\":9500:9619   */\n      iszero\n      tag_201\n      jumpi\n        /* \"#utility.yul\":9538:9617   */\n      tag_202\n      tag_79\n      jump\t// in\n    tag_202:\n        /* \"#utility.yul\":9500:9619   */\n    tag_201:\n        /* \"#utility.yul\":9686:9687   */\n      0x00\n        /* \"#utility.yul\":9675:9684   */\n      dup4\n        /* \"#utility.yul\":9671:9688   */\n      add\n        /* \"#utility.yul\":9658:9689   */\n      calldataload\n        /* \"#utility.yul\":9716:9734   */\n      0xffffffffffffffff\n        /* \"#utility.yul\":9708:9714   */\n      dup2\n        /* \"#utility.yul\":9705:9735   */\n      gt\n        /* \"#utility.yul\":9702:9819   */\n      iszero\n      tag_203\n      jumpi\n        /* \"#utility.yul\":9738:9817   */\n      tag_204\n      tag_80\n      jump\t// in\n    tag_204:\n        /* \"#utility.yul\":9702:9819   */\n    tag_203:\n        /* \"#utility.yul\":9843:9906   */\n      tag_205\n        /* \"#utility.yul\":9898:9905   */\n      dup6\n        /* \"#utility.yul\":9889:9895   */\n      dup3\n        /* \"#utility.yul\":9878:9887   */\n      dup7\n        /* \"#utility.yul\":9874:9896   */\n      add\n        /* \"#utility.yul\":9843:9906   */\n      tag_90\n      jump\t// in\n    tag_205:\n        /* \"#utility.yul\":9833:9906   */\n      swap3\n      pop\n        /* \"#utility.yul\":9629:9916   */\n      pop\n        /* \"#utility.yul\":9955:9957   */\n      0x20\n        /* \"#utility.yul\":9981:10034   */\n      tag_206\n        /* \"#utility.yul\":10026:10033   */\n      dup6\n        /* \"#utility.yul\":10017:10023   */\n      dup3\n        /* \"#utility.yul\":10006:10015   */\n      dup7\n        /* \"#utility.yul\":10002:10024   */\n      add\n        /* \"#utility.yul\":9981:10034   */\n      tag_104\n      jump\t// in\n    tag_206:\n        /* \"#utility.yul\":9971:10034   */\n      swap2\n      pop\n        /* \"#utility.yul\":9926:10044   */\n      pop\n        /* \"#utility.yul\":9397:10051   */\n      swap3\n      pop\n      swap3\n      swap1\n      pop\n      jump\t// out\n        /* \"#utility.yul\":10057:10226   */\n    tag_105:\n        /* \"#utility.yul\":10141:10152   */\n      0x00\n        /* \"#utility.yul\":10175:10181   */\n      dup3\n        /* \"#utility.yul\":10170:10173   */\n      dup3\n        /* \"#utility.yul\":10163:10182   */\n      mstore\n        /* \"#utility.yul\":10215:10219   */\n      0x20\n        /* \"#utility.yul\":10210:10213   */\n      dup3\n        /* \"#utility.yul\":10206:10220   */\n      add\n        /* \"#utility.yul\":10191:10220   */\n      swap1\n      pop\n        /* \"#utility.yul\":10057:10226   */\n      swap3\n      swap2\n      pop\n      pop\n      jump\t// out\n        /* \"#utility.yul\":10232:10596   */\n    tag_106:\n        /* \"#utility.yul\":10320:10323   */\n      0x00\n        /* \"#utility.yul\":10348:10387   */\n      tag_209\n        /* \"#utility.yul\":10381:10386   */\n      dup3\n        /* \"#utility.yul\":10348:10387   */\n      tag_94\n      jump\t// in\n    tag_209:\n        /* \"#utility.yul\":10403:10474   */\n      tag_210\n        /* \"#utility.yul\":10467:10473   */\n      dup2\n        /* \"#utility.yul\":10462:10465   */\n      dup6\n        /* \"#utility.yul\":10403:10474   */\n      tag_105\n      jump\t// in\n    tag_210:\n        /* \"#utility.yul\":10396:10474   */\n      swap4\n      pop\n        /* \"#utility.yul\":10483:10535   */\n      tag_211\n        /* \"#utility.yul\":10528:10534   */\n      dup2\n        /* \"#utility.yul\":10523:10526   */\n      dup6\n        /* \"#utility.yul\":10516:10520   */\n      0x20\n        /* \"#utility.yul\":10509:10514   */\n      dup7\n        /* \"#utility.yul\":10505:10521   */\n      add\n        /* \"#utility.yul\":10483:10535   */\n      tag_96\n      jump\t// in\n    tag_211:\n        /* \"#utility.yul\":10560:10589   */\n      tag_212\n        /* \"#utility.yul\":10582:10588   */\n      dup2\n        /* \"#utility.yul\":10560:10589   */\n      tag_83\n      jump\t// in\n    tag_212:\n        /* \"#utility.yul\":10555:10558   */\n      dup5\n        /* \"#utility.yul\":10551:10590   */\n      add\n        /* \"#utility.yul\":10544:10590   */\n      swap2\n      pop\n        /* \"#utility.yul\":10324:10596   */\n      pop\n        /* \"#utility.yul\":10232:10596   */\n      swap3\n      swap2\n      pop\n      pop\n      jump\t// out\n        /* \"#utility.yul\":10602:11317   */\n    tag_21:\n        /* \"#utility.yul\":10811:10815   */\n      0x00\n        /* \"#utility.yul\":10849:10851   */\n      0x60\n        /* \"#utility.yul\":10838:10847   */\n      dup3\n        /* \"#utility.yul\":10834:10852   */\n      add\n        /* \"#utility.yul\":10826:10852   */\n      swap1\n      pop\n        /* \"#utility.yul\":10898:10907   */\n      dup2\n        /* \"#utility.yul\":10892:10896   */\n      dup2\n        /* \"#utility.yul\":10888:10908   */\n      sub\n        /* \"#utility.yul\":10884:10885   */\n      0x00\n        /* \"#utility.yul\":10873:10882   */\n      dup4\n        /* \"#utility.yul\":10869:10886   */\n      add\n        /* \"#utility.yul\":10862:10909   */\n      mstore\n        /* \"#utility.yul\":10926:11004   */\n      tag_214\n        /* \"#utility.yul\":10999:11003   */\n      dup2\n        /* \"#utility.yul\":10990:10996   */\n      dup7\n        /* \"#utility.yul\":10926:11004   */\n      tag_106\n      jump\t// in\n    tag_214:\n        /* \"#utility.yul\":10918:11004   */\n      swap1\n      pop\n        /* \"#utility.yul\":11051:11060   */\n      dup2\n        /* \"#utility.yul\":11045:11049   */\n      dup2\n        /* \"#utility.yul\":11041:11061   */\n      sub\n        /* \"#utility.yul\":11036:11038   */\n      0x20\n        /* \"#utility.yul\":11025:11034   */\n      dup4\n        /* \"#utility.yul\":11021:11039   */\n      add\n        /* \"#utility.yul\":11014:11062   */\n      mstore\n        /* \"#utility.yul\":11079:11157   */\n      tag_215\n        /* \"#utility.yul\":11152:11156   */\n      dup2\n        /* \"#utility.yul\":11143:11149   */\n      dup6\n        /* \"#utility.yul\":11079:11157   */\n      tag_106\n      jump\t// in\n    tag_215:\n        /* \"#utility.yul\":11071:11157   */\n      swap1\n      pop\n        /* \"#utility.yul\":11204:11213   */\n      dup2\n        /* \"#utility.yul\":11198:11202   */\n      dup2\n        /* \"#utility.yul\":11194:11214   */\n      sub\n        /* \"#utility.yul\":11189:11191   */\n      0x40\n        /* \"#utility.yul\":11178:11187   */\n      dup4\n        /* \"#utility.yul\":11174:11192   */\n      add\n        /* \"#utility.yul\":11167:11215   */\n      mstore\n        /* \"#utility.yul\":11232:11310   */\n      tag_216\n        /* \"#utility.yul\":11305:11309   */\n      dup2\n        /* \"#utility.yul\":11296:11302   */\n      dup5\n        /* \"#utility.yul\":11232:11310   */\n      tag_106\n      jump\t// in\n    tag_216:\n        /* \"#utility.yul\":11224:11310   */\n      swap1\n      pop\n        /* \"#utility.yul\":10602:11317   */\n      swap5\n      swap4\n      pop\n      pop\n      pop\n      pop\n      jump\t// out\n        /* \"#utility.yul\":11323:11471   */\n    tag_107:\n        /* \"#utility.yul\":11425:11436   */\n      0x00\n        /* \"#utility.yul\":11462:11465   */\n      dup2\n        /* \"#utility.yul\":11447:11465   */\n      swap1\n      pop\n        /* \"#utility.yul\":11323:11471   */\n      swap3\n      swap2\n      pop\n      pop\n      jump\t// out\n        /* \"#utility.yul\":11477:11854   */\n    tag_108:\n        /* \"#utility.yul\":11583:11586   */\n      0x00\n        /* \"#utility.yul\":11611:11650   */\n      tag_219\n        /* \"#utility.yul\":11644:11649   */\n      dup3\n        /* \"#utility.yul\":11611:11650   */\n      tag_94\n      jump\t// in\n    tag_219:\n        /* \"#utility.yul\":11666:11755   */\n      tag_220\n        /* \"#utility.yul\":11748:11754   */\n      dup2\n        /* \"#utility.yul\":11743:11746   */\n      dup6\n        /* \"#utility.yul\":11666:11755   */\n      tag_107\n      jump\t// in\n    tag_220:\n        /* \"#utility.yul\":11659:11755   */\n      swap4\n      pop\n        /* \"#utility.yul\":11764:11816   */\n      tag_221\n        /* \"#utility.yul\":11809:11815   */\n      dup2\n        /* \"#utility.yul\":11804:11807   */\n      dup6\n        /* \"#utility.yul\":11797:11801   */\n      0x20\n        /* \"#utility.yul\":11790:11795   */\n      dup7\n        /* \"#utility.yul\":11786:11802   */\n      add\n        /* \"#utility.yul\":11764:11816   */\n      tag_96\n      jump\t// in\n    tag_221:\n        /* \"#utility.yul\":11841:11847   */\n      dup1\n        /* \"#utility.yul\":11836:11839   */\n      dup5\n        /* \"#utility.yul\":11832:11848   */\n      add\n        /* \"#utility.yul\":11825:11848   */\n      swap2\n      pop\n        /* \"#utility.yul\":11587:11854   */\n      pop\n        /* \"#utility.yul\":11477:11854   */\n      swap3\n      swap2\n      pop\n      pop\n      jump\t// out\n        /* \"#utility.yul\":11860:12135   */\n    tag_24:\n        /* \"#utility.yul\":11992:11995   */\n      0x00\n        /* \"#utility.yul\":12014:12109   */\n      tag_223\n        /* \"#utility.yul\":12105:12108   */\n      dup3\n        /* \"#utility.yul\":12096:12102   */\n      dup5\n        /* \"#utility.yul\":12014:12109   */\n      tag_108\n      jump\t// in\n    tag_223:\n        /* \"#utility.yul\":12007:12109   */\n      swap2\n      pop\n        /* \"#utility.yul\":12126:12129   */\n      dup2\n        /* \"#utility.yul\":12119:12129   */\n      swap1\n      pop\n        /* \"#utility.yul\":11860:12135   */\n      swap3\n      swap2\n      pop\n      pop\n      jump\t// out\n        /* \"#utility.yul\":12141:12321   */\n    tag_109:\n        /* \"#utility.yul\":12189:12266   */\n      0x4e487b7100000000000000000000000000000000000000000000000000000000\n        /* \"#utility.yul\":12186:12187   */\n      0x00\n        /* \"#utility.yul\":12179:12267   */\n      mstore\n        /* \"#utility.yul\":12286:12290   */\n      0x22\n        /* \"#utility.yul\":12283:12284   */\n      0x04\n        /* \"#utility.yul\":12276:12291   */\n      mstore\n        /* \"#utility.yul\":12310:12314   */\n      0x24\n        /* \"#utility.yul\":12307:12308   */\n      0x00\n        /* \"#utility.yul\":12300:12315   */\n      revert\n        /* \"#utility.yul\":12327:12647   */\n    tag_29:\n        /* \"#utility.yul\":12371:12377   */\n      0x00\n        /* \"#utility.yul\":12408:12409   */\n      0x02\n        /* \"#utility.yul\":12402:12406   */\n      dup3\n        /* \"#utility.yul\":12398:12410   */\n      div\n        /* \"#utility.yul\":12388:12410   */\n      swap1\n      pop\n        /* \"#utility.yul\":12455:12456   */\n      0x01\n        /* \"#utility.yul\":12449:12453   */\n      dup3\n        /* \"#utility.yul\":12445:12457   */\n      and\n        /* \"#utility.yul\":12476:12494   */\n      dup1\n        /* \"#utility.yul\":12466:12547   */\n      tag_226\n      jumpi\n        /* \"#utility.yul\":12532:12536   */\n      0x7f\n        /* \"#utility.yul\":12524:12530   */\n      dup3\n        /* \"#utility.yul\":12520:12537   */\n      and\n        /* \"#utility.yul\":12510:12537   */\n      swap2\n      pop\n        /* \"#utility.yul\":12466:12547   */\n    tag_226:\n        /* \"#utility.yul\":12594:12596   */\n      0x20\n        /* \"#utility.yul\":12586:12592   */\n      dup3\n        /* \"#utility.yul\":12583:12597   */\n      lt\n        /* \"#utility.yul\":12563:12581   */\n      dup2\n        /* \"#utility.yul\":12560:12598   */\n      eq\n        /* \"#utility.yul\":12557:12641   */\n      iszero\n      tag_227\n      jumpi\n        /* \"#utility.yul\":12613:12631   */\n      tag_228\n      tag_109\n      jump\t// in\n    tag_228:\n        /* \"#utility.yul\":12557:12641   */\n    tag_227:\n        /* \"#utility.yul\":12378:12647   */\n      pop\n        /* \"#utility.yul\":12327:12647   */\n      swap2\n      swap1\n      pop\n      jump\t// out\n\n    auxdata: 0xa26469706673582212202cd50cdfd70c4d16bde553b76e921ab256ef1e084e36b9cb100ee9bf986bc19c64736f6c63430008090033\n}\n","bytecode":{"linkReferences":{},"object":"608060405234801561001057600080fd5b50610cac806100206000396000f3fe608060405234801561001057600080fd5b50600436106100415760003560e01c80630615f1bd1461004657806306981aa314610076578063f5accb8e14610092575b600080fd5b610060600480360381019061005b91906107b0565b6100c4565b60405161006d91906109a1565b60405180910390f35b610090600480360381019061008b91906109c3565b6102f7565b005b6100ac60048036038101906100a79190610ad0565b6103be565b6040516100bb93929190610b76565b60405180910390f35b60606000826040516100d69190610bfe565b9081526020016040518091039020805480602002602001604051908101604052809291908181526020016000905b828210156102ec578382906000526020600020906003020160405180606001604052908160008201805461013790610c44565b80601f016020809104026020016040519081016040528092919081815260200182805461016390610c44565b80156101b05780601f10610185576101008083540402835291602001916101b0565b820191906000526020600020905b81548152906001019060200180831161019357829003601f168201915b505050505081526020016001820180546101c990610c44565b80601f01602080910402602001604051908101604052809291908181526020018280546101f590610c44565b80156102425780601f1061021757610100808354040283529160200191610242565b820191906000526020600020905b81548152906001019060200180831161022557829003601f168201915b5050505050815260200160028201805461025b90610c44565b80601f016020809104026020016040519081016040528092919081815260200182805461028790610c44565b80156102d45780601f106102a9576101008083540402835291602001916102d4565b820191906000526020600020905b8154815290600101906020018083116102b757829003601f168201915b50505050508152505081526020019060010190610104565b505050509050919050565b600060405180606001604052808581526020018481526020018381525090506000856040516103269190610bfe565b9081526020016040518091039020819080600181540180825580915050600190039060005260206000209060030201600090919091909150600082015181600001908051906020019061037a9291906105b3565b5060208201518160010190805190602001906103979291906105b3565b5060408201518160020190805190602001906103b49291906105b3565b5050505050505050565b60008280516020810182018051848252602083016020850120818352809550505050505081815481106103f057600080fd5b90600052602060002090600302016000915091505080600001805461041490610c44565b80601f016020809104026020016040519081016040528092919081815260200182805461044090610c44565b801561048d5780601f106104625761010080835404028352916020019161048d565b820191906000526020600020905b81548152906001019060200180831161047057829003601f168201915b5050505050908060010180546104a290610c44565b80601f01602080910402602001604051908101604052809291908181526020018280546104ce90610c44565b801561051b5780601f106104f05761010080835404028352916020019161051b565b820191906000526020600020905b8154815290600101906020018083116104fe57829003601f168201915b50505050509080600201805461053090610c44565b80601f016020809104026020016040519081016040528092919081815260200182805461055c90610c44565b80156105a95780601f1061057e576101008083540402835291602001916105a9565b820191906000526020600020905b81548152906001019060200180831161058c57829003601f168201915b5050505050905083565b8280546105bf90610c44565b90600052602060002090601f0160209004810192826105e15760008555610628565b82601f106105fa57805160ff1916838001178555610628565b82800160010185558215610628579182015b8281111561062757825182559160200191906001019061060c565b5b5090506106359190610639565b5090565b5b8082111561065257600081600090555060010161063a565b5090565b6000604051905090565b600080fd5b600080fd5b600080fd5b600080fd5b6000601f19601f8301169050919050565b7f4e487b7100000000000000000000000000000000000000000000000000000000600052604160045260246000fd5b6106bd82610674565b810181811067ffffffffffffffff821117156106dc576106db610685565b5b80604052505050565b60006106ef610656565b90506106fb82826106b4565b919050565b600067ffffffffffffffff82111561071b5761071a610685565b5b61072482610674565b9050602081019050919050565b82818337600083830152505050565b600061075361074e84610700565b6106e5565b90508281526020810184848401111561076f5761076e61066f565b5b61077a848285610731565b509392505050565b600082601f8301126107975761079661066a565b5b81356107a7848260208601610740565b91505092915050565b6000602082840312156107c6576107c5610660565b5b600082013567ffffffffffffffff8111156107e4576107e3610665565b5b6107f084828501610782565b91505092915050565b600081519050919050565b600082825260208201905092915050565b6000819050602082019050919050565b600081519050919050565b600082825260208201905092915050565b60005b8381101561085f578082015181840152602081019050610844565b8381111561086e576000848401525b50505050565b600061087f82610825565b6108898185610830565b9350610899818560208601610841565b6108a281610674565b840191505092915050565b600060608301600083015184820360008601526108ca8282610874565b915050602083015184820360208601526108e48282610874565b915050604083015184820360408601526108fe8282610874565b9150508091505092915050565b600061091783836108ad565b905092915050565b6000602082019050919050565b6000610937826107f9565b6109418185610804565b93508360208202850161095385610815565b8060005b8581101561098f5784840389528151610970858261090b565b945061097b8361091f565b925060208a01995050600181019050610957565b50829750879550505050505092915050565b600060208201905081810360008301526109bb818461092c565b905092915050565b600080600080608085870312156109dd576109dc610660565b5b600085013567ffffffffffffffff8111156109fb576109fa610665565b5b610a0787828801610782565b945050602085013567ffffffffffffffff811115610a2857610a27610665565b5b610a3487828801610782565b935050604085013567ffffffffffffffff811115610a5557610a54610665565b5b610a6187828801610782565b925050606085013567ffffffffffffffff811115610a8257610a81610665565b5b610a8e87828801610782565b91505092959194509250565b6000819050919050565b610aad81610a9a565b8114610ab857600080fd5b50565b600081359050610aca81610aa4565b92915050565b60008060408385031215610ae757610ae6610660565b5b600083013567ffffffffffffffff811115610b0557610b04610665565b5b610b1185828601610782565b9250506020610b2285828601610abb565b9150509250929050565b600082825260208201905092915050565b6000610b4882610825565b610b528185610b2c565b9350610b62818560208601610841565b610b6b81610674565b840191505092915050565b60006060820190508181036000830152610b908186610b3d565b90508181036020830152610ba48185610b3d565b90508181036040830152610bb88184610b3d565b9050949350505050565b600081905092915050565b6000610bd882610825565b610be28185610bc2565b9350610bf2818560208601610841565b80840191505092915050565b6000610c0a8284610bcd565b915081905092915050565b7f4e487b7100000000000000000000000000000000000000000000000000000000600052602260045260246000fd5b60006002820490506001821680610c5c57607f821691505b60208210811415610c7057610c6f610c15565b5b5091905056fea26469706673582212202cd50cdfd70c4d16bde553b76e921ab256ef1e084e36b9cb100ee9bf986bc19c64736f6c63430008090033","opcodes":"PUSH1 0x80 PUSH1 0x40 MSTORE CALLVALUE DUP1 ISZERO PUSH2 0x10 JUMPI PUSH1 0x0 DUP1 REVERT JUMPDEST POP PUSH2 0xCAC DUP1 PUSH2 0x20 PUSH1 0x0 CODECOPY PUSH1 0x0 RETURN INVALID PUSH1 0x80 PUSH1 0x40 MSTORE CALLVALUE DUP1 ISZERO PUSH2 0x10 JUMPI PUSH1 0x0 DUP1 REVERT JUMPDEST POP PUSH1 0x4 CALLDATASIZE LT PUSH2 0x41 JUMPI PUSH1 0x0 CALLDATALOAD PUSH1 0xE0 SHR DUP1 PUSH4 0x615F1BD EQ PUSH2 0x46 JUMPI DUP1 PUSH4 0x6981AA3 EQ PUSH2 0x76 JUMPI DUP1 PUSH4 0xF5ACCB8E EQ PUSH2 0x92 JUMPI JUMPDEST PUSH1 0x0 DUP1 REVERT JUMPDEST PUSH2 0x60 PUSH1 0x4 DUP1 CALLDATASIZE SUB DUP2 ADD SWAP1 PUSH2 0x5B SWAP2 SWAP1 PUSH2 0x7B0 JUMP JUMPDEST PUSH2 0xC4 JUMP JUMPDEST PUSH1 0x40 MLOAD PUSH2 0x6D SWAP2 SWAP1 PUSH2 0x9A1 JUMP JUMPDEST PUSH1 0x40 MLOAD DUP1 SWAP2 SUB SWAP1 RETURN JUMPDEST PUSH2 0x90 PUSH1 0x4 DUP1 CALLDATASIZE SUB DUP2 ADD SWAP1 PUSH2 0x8B SWAP2 SWAP1 PUSH2 0x9C3 JUMP JUMPDEST PUSH2 0x2F7 JUMP JUMPDEST STOP JUMPDEST PUSH2 0xAC PUSH1 0x4 DUP1 CALLDATASIZE SUB DUP2 ADD SWAP1 PUSH2 0xA7 SWAP2 SWAP1 PUSH2 0xAD0 JUMP JUMPDEST PUSH2 0x3BE JUMP JUMPDEST PUSH1 0x40 MLOAD PUSH2 0xBB SWAP4 SWAP3 SWAP2 SWAP1 PUSH2 0xB76 JUMP JUMPDEST PUSH1 0x40 MLOAD DUP1 SWAP2 SUB SWAP1 RETURN JUMPDEST PUSH1 0x60 PUSH1 0x0 DUP3 PUSH1 0x40 MLOAD PUSH2 0xD6 SWAP2 SWAP1 PUSH2 0xBFE JUMP JUMPDEST SWAP1 DUP2 MSTORE PUSH1 0x20 ADD PUSH1 0x40 MLOAD DUP1 SWAP2 SUB SWAP1 KECCAK256 DUP1 SLOAD DUP1 PUSH1 0x20 MUL PUSH1 0x20 ADD PUSH1 0x40 MLOAD SWAP1 DUP2 ADD PUSH1 0x40 MSTORE DUP1 SWAP3 SWAP2 SWAP1 DUP2 DUP2 MSTORE PUSH1 0x20 ADD PUSH1 0x0 SWAP1 JUMPDEST DUP3 DUP3 LT ISZERO PUSH2 0x2EC JUMPI DUP4 DUP3 SWAP1 PUSH1 0x0 MSTORE PUSH1 0x20 PUSH1 0x0 KECCAK256 SWAP1 PUSH1 0x3 MUL ADD PUSH1 0x40 MLOAD DUP1 PUSH1 0x60 ADD PUSH1 0x40 MSTORE SWAP1 DUP2 PUSH1 0x0 DUP3 ADD DUP1 SLOAD PUSH2 0x137 SWAP1 PUSH2 0xC44 JUMP JUMPDEST DUP1 PUSH1 0x1F ADD PUSH1 0x20 DUP1 SWAP2 DIV MUL PUSH1 0x20 ADD PUSH1 0x40 MLOAD SWAP1 DUP2 ADD PUSH1 0x40 MSTORE DUP1 SWAP3 SWAP2 SWAP1 DUP2 DUP2 MSTORE PUSH1 0x20 ADD DUP3 DUP1 SLOAD PUSH2 0x163 SWAP1 PUSH2 0xC44 JUMP JUMPDEST DUP1 ISZERO PUSH2 0x1B0 JUMPI DUP1 PUSH1 0x1F LT PUSH2 0x185 JUMPI PUSH2 0x100 DUP1 DUP4 SLOAD DIV MUL DUP4 MSTORE SWAP2 PUSH1 0x20 ADD SWAP2 PUSH2 0x1B0 JUMP JUMPDEST DUP3 ADD SWAP2 SWAP1 PUSH1 0x0 MSTORE PUSH1 0x20 PUSH1 0x0 KECCAK256 SWAP1 JUMPDEST DUP2 SLOAD DUP2 MSTORE SWAP1 PUSH1 0x1 ADD SWAP1 PUSH1 0x20 ADD DUP1 DUP4 GT PUSH2 0x193 JUMPI DUP3 SWAP1 SUB PUSH1 0x1F AND DUP3 ADD SWAP2 JUMPDEST POP POP POP POP POP DUP2 MSTORE PUSH1 0x20 ADD PUSH1 0x1 DUP3 ADD DUP1 SLOAD PUSH2 0x1C9 SWAP1 PUSH2 0xC44 JUMP JUMPDEST DUP1 PUSH1 0x1F ADD PUSH1 0x20 DUP1 SWAP2 DIV MUL PUSH1 0x20 ADD PUSH1 0x40 MLOAD SWAP1 DUP2 ADD PUSH1 0x40 MSTORE DUP1 SWAP3 SWAP2 SWAP1 DUP2 DUP2 MSTORE PUSH1 0x20 ADD DUP3 DUP1 SLOAD PUSH2 0x1F5 SWAP1 PUSH2 0xC44 JUMP JUMPDEST DUP1 ISZERO PUSH2 0x242 JUMPI DUP1 PUSH1 0x1F LT PUSH2 0x217 JUMPI PUSH2 0x100 DUP1 DUP4 SLOAD DIV MUL DUP4 MSTORE SWAP2 PUSH1 0x20 ADD SWAP2 PUSH2 0x242 JUMP JUMPDEST DUP3 ADD SWAP2 SWAP1 PUSH1 0x0 MSTORE PUSH1 0x20 PUSH1 0x0 KECCAK256 SWAP1 JUMPDEST DUP2 SLOAD DUP2 MSTORE SWAP1 PUSH1 0x1 ADD SWAP1 PUSH1 0x20 ADD DUP1 DUP4 GT PUSH2 0x225 JUMPI DUP3 SWAP1 SUB PUSH1 0x1F AND DUP3 ADD SWAP2 JUMPDEST POP POP POP POP POP DUP2 MSTORE PUSH1 0x20 ADD PUSH1 0x2 DUP3 ADD DUP1 SLOAD PUSH2 0x25B SWAP1 PUSH2 0xC44 JUMP JUMPDEST DUP1 PUSH1 0x1F ADD PUSH1 0x20 DUP1 SWAP2 DIV MUL PUSH1 0x20 ADD PUSH1 0x40 MLOAD SWAP1 DUP2 ADD PUSH1 0x40 MSTORE DUP1 SWAP3 SWAP2 SWAP1 DUP2 DUP2 MSTORE PUSH1 0x20 ADD DUP3 DUP1 SLOAD PUSH2 0x287 SWAP1 PUSH2 0xC44 JUMP JUMPDEST DUP1 ISZERO PUSH2 0x2D4 JUMPI DUP1 PUSH1 0x1F LT PUSH2 0x2A9 JUMPI PUSH2 0x100 DUP1 DUP4 SLOAD DIV MUL DUP4 MSTORE SWAP2 PUSH1 0x20 ADD SWAP2 PUSH2 0x2D4 JUMP JUMPDEST DUP3 ADD SWAP2 SWAP1 PUSH1 0x0 MSTORE PUSH1 0x20 PUSH1 0x0 KECCAK256 SWAP1 JUMPDEST DUP2 SLOAD DUP2 MSTORE SWAP1 PUSH1 0x1 ADD SWAP1 PUSH1 0x20 ADD DUP1 DUP4 GT PUSH2 0x2B7 JUMPI DUP3 SWAP1 SUB PUSH1 0x1F AND DUP3 ADD SWAP2 JUMPDEST POP POP POP POP POP DUP2 MSTORE POP POP DUP2 MSTORE PUSH1 0x20 ADD SWAP1 PUSH1 0x1 ADD SWAP1 PUSH2 0x104 JUMP JUMPDEST POP POP POP POP SWAP1 POP SWAP2 SWAP1 POP JUMP JUMPDEST PUSH1 0x0 PUSH1 0x40 MLOAD DUP1 PUSH1 0x60 ADD PUSH1 0x40 MSTORE DUP1 DUP6 DUP2 MSTORE PUSH1 0x20 ADD DUP5 DUP2 MSTORE PUSH1 0x20 ADD DUP4 DUP2 MSTORE POP SWAP1 POP PUSH1 0x0 DUP6 PUSH1 0x40 MLOAD PUSH2 0x326 SWAP2 SWAP1 PUSH2 0xBFE JUMP JUMPDEST SWAP1 DUP2 MSTORE PUSH1 0x20 ADD PUSH1 0x40 MLOAD DUP1 SWAP2 SUB SWAP1 KECCAK256 DUP2 SWAP1 DUP1 PUSH1 0x1 DUP2 SLOAD ADD DUP1 DUP3 SSTORE DUP1 SWAP2 POP POP PUSH1 0x1 SWAP1 SUB SWAP1 PUSH1 0x0 MSTORE PUSH1 0x20 PUSH1 0x0 KECCAK256 SWAP1 PUSH1 0x3 MUL ADD PUSH1 0x0 SWAP1 SWAP2 SWAP1 SWAP2 SWAP1 SWAP2 POP PUSH1 0x0 DUP3 ADD MLOAD DUP2 PUSH1 0x0 ADD SWAP1 DUP1 MLOAD SWAP1 PUSH1 0x20 ADD SWAP1 PUSH2 0x37A SWAP3 SWAP2 SWAP1 PUSH2 0x5B3 JUMP JUMPDEST POP PUSH1 0x20 DUP3 ADD MLOAD DUP2 PUSH1 0x1 ADD SWAP1 DUP1 MLOAD SWAP1 PUSH1 0x20 ADD SWAP1 PUSH2 0x397 SWAP3 SWAP2 SWAP1 PUSH2 0x5B3 JUMP JUMPDEST POP PUSH1 0x40 DUP3 ADD MLOAD DUP2 PUSH1 0x2 ADD SWAP1 DUP1 MLOAD SWAP1 PUSH1 0x20 ADD SWAP1 PUSH2 0x3B4 SWAP3 SWAP2 SWAP1 PUSH2 0x5B3 JUMP JUMPDEST POP POP POP POP POP POP POP POP JUMP JUMPDEST PUSH1 0x0 DUP3 DUP1 MLOAD PUSH1 0x20 DUP2 ADD DUP3 ADD DUP1 MLOAD DUP5 DUP3 MSTORE PUSH1 0x20 DUP4 ADD PUSH1 0x20 DUP6 ADD KECCAK256 DUP2 DUP4 MSTORE DUP1 SWAP6 POP POP POP POP POP POP DUP2 DUP2 SLOAD DUP2 LT PUSH2 0x3F0 JUMPI PUSH1 0x0 DUP1 REVERT JUMPDEST SWAP1 PUSH1 0x0 MSTORE PUSH1 0x20 PUSH1 0x0 KECCAK256 SWAP1 PUSH1 0x3 MUL ADD PUSH1 0x0 SWAP2 POP SWAP2 POP POP DUP1 PUSH1 0x0 ADD DUP1 SLOAD PUSH2 0x414 SWAP1 PUSH2 0xC44 JUMP JUMPDEST DUP1 PUSH1 0x1F ADD PUSH1 0x20 DUP1 SWAP2 DIV MUL PUSH1 0x20 ADD PUSH1 0x40 MLOAD SWAP1 DUP2 ADD PUSH1 0x40 MSTORE DUP1 SWAP3 SWAP2 SWAP1 DUP2 DUP2 MSTORE PUSH1 0x20 ADD DUP3 DUP1 SLOAD PUSH2 0x440 SWAP1 PUSH2 0xC44 JUMP JUMPDEST DUP1 ISZERO PUSH2 0x48D JUMPI DUP1 PUSH1 0x1F LT PUSH2 0x462 JUMPI PUSH2 0x100 DUP1 DUP4 SLOAD DIV MUL DUP4 MSTORE SWAP2 PUSH1 0x20 ADD SWAP2 PUSH2 0x48D JUMP JUMPDEST DUP3 ADD SWAP2 SWAP1 PUSH1 0x0 MSTORE PUSH1 0x20 PUSH1 0x0 KECCAK256 SWAP1 JUMPDEST DUP2 SLOAD DUP2 MSTORE SWAP1 PUSH1 0x1 ADD SWAP1 PUSH1 0x20 ADD DUP1 DUP4 GT PUSH2 0x470 JUMPI DUP3 SWAP1 SUB PUSH1 0x1F AND DUP3 ADD SWAP2 JUMPDEST POP POP POP POP POP SWAP1 DUP1 PUSH1 0x1 ADD DUP1 SLOAD PUSH2 0x4A2 SWAP1 PUSH2 0xC44 JUMP JUMPDEST DUP1 PUSH1 0x1F ADD PUSH1 0x20 DUP1 SWAP2 DIV MUL PUSH1 0x20 ADD PUSH1 0x40 MLOAD SWAP1 DUP2 ADD PUSH1 0x40 MSTORE DUP1 SWAP3 SWAP2 SWAP1 DUP2 DUP2 MSTORE PUSH1 0x20 ADD DUP3 DUP1 SLOAD PUSH2 0x4CE SWAP1 PUSH2 0xC44 JUMP JUMPDEST DUP1 ISZERO PUSH2 0x51B JUMPI DUP1 PUSH1 0x1F LT PUSH2 0x4F0 JUMPI PUSH2 0x100 DUP1 DUP4 SLOAD DIV MUL DUP4 MSTORE SWAP2 PUSH1 0x20 ADD SWAP2 PUSH2 0x51B JUMP JUMPDEST DUP3 ADD SWAP2 SWAP1 PUSH1 0x0 MSTORE PUSH1 0x20 PUSH1 0x0 KECCAK256 SWAP1 JUMPDEST DUP2 SLOAD DUP2 MSTORE SWAP1 PUSH1 0x1 ADD SWAP1 PUSH1 0x20 ADD DUP1 DUP4 GT PUSH2 0x4FE JUMPI DUP3 SWAP1 SUB PUSH1 0x1F AND DUP3 ADD SWAP2 JUMPDEST POP POP POP POP POP SWAP1 DUP1 PUSH1 0x2 ADD DUP1 SLOAD PUSH2 0x530 SWAP1 PUSH2 0xC44 JUMP JUMPDEST DUP1 PUSH1 0x1F ADD PUSH1 0x20 DUP1 SWAP2 DIV MUL PUSH1 0x20 ADD PUSH1 0x40 MLOAD SWAP1 DUP2 ADD PUSH1 0x40 MSTORE DUP1 SWAP3 SWAP2 SWAP1 DUP2 DUP2 MSTORE PUSH1 0x20 ADD DUP3 DUP1 SLOAD PUSH2 0x55C SWAP1 PUSH2 0xC44 JUMP JUMPDEST DUP1 ISZERO PUSH2 0x5A9 JUMPI DUP1 PUSH1 0x1F LT PUSH2 0x57E JUMPI PUSH2 0x100 DUP1 DUP4 SLOAD DIV MUL DUP4 MSTORE SWAP2 PUSH1 0x20 ADD SWAP2 PUSH2 0x5A9 JUMP JUMPDEST DUP3 ADD SWAP2 SWAP1 PUSH1 0x0 MSTORE PUSH1 0x20 PUSH1 0x0 KECCAK256 SWAP1 JUMPDEST DUP2 SLOAD DUP2 MSTORE SWAP1 PUSH1 0x1 ADD SWAP1 PUSH1 0x20 ADD DUP1 DUP4 GT PUSH2 0x58C JUMPI DUP3 SWAP1 SUB PUSH1 0x1F AND DUP3 ADD SWAP2 JUMPDEST POP POP POP POP POP SWAP1 POP DUP4 JUMP JUMPDEST DUP3 DUP1 SLOAD PUSH2 0x5BF SWAP1 PUSH2 0xC44 JUMP JUMPDEST SWAP1 PUSH1 0x0 MSTORE PUSH1 0x20 PUSH1 0x0 KECCAK256 SWAP1 PUSH1 0x1F ADD PUSH1 0x20 SWAP1 DIV DUP2 ADD SWAP3 DUP3 PUSH2 0x5E1 JUMPI PUSH1 0x0 DUP6 SSTORE PUSH2 0x628 JUMP JUMPDEST DUP3 PUSH1 0x1F LT PUSH2 0x5FA JUMPI DUP1 MLOAD PUSH1 0xFF NOT AND DUP4 DUP1 ADD OR DUP6 SSTORE PUSH2 0x628 JUMP JUMPDEST DUP3 DUP1 ADD PUSH1 0x1 ADD DUP6 SSTORE DUP3 ISZERO PUSH2 0x628 JUMPI SWAP2 DUP3 ADD JUMPDEST DUP3 DUP2 GT ISZERO PUSH2 0x627 JUMPI DUP3 MLOAD DUP3 SSTORE SWAP2 PUSH1 0x20 ADD SWAP2 SWAP1 PUSH1 0x1 ADD SWAP1 PUSH2 0x60C JUMP JUMPDEST JUMPDEST POP SWAP1 POP PUSH2 0x635 SWAP2 SWAP1 PUSH2 0x639 JUMP JUMPDEST POP SWAP1 JUMP JUMPDEST JUMPDEST DUP1 DUP3 GT ISZERO PUSH2 0x652 JUMPI PUSH1 0x0 DUP2 PUSH1 0x0 SWAP1 SSTORE POP PUSH1 0x1 ADD PUSH2 0x63A JUMP JUMPDEST POP SWAP1 JUMP JUMPDEST PUSH1 0x0 PUSH1 0x40 MLOAD SWAP1 POP SWAP1 JUMP JUMPDEST PUSH1 0x0 DUP1 REVERT JUMPDEST PUSH1 0x0 DUP1 REVERT JUMPDEST PUSH1 0x0 DUP1 REVERT JUMPDEST PUSH1 0x0 DUP1 REVERT JUMPDEST PUSH1 0x0 PUSH1 0x1F NOT PUSH1 0x1F DUP4 ADD AND SWAP1 POP SWAP2 SWAP1 POP JUMP JUMPDEST PUSH32 0x4E487B7100000000000000000000000000000000000000000000000000000000 PUSH1 0x0 MSTORE PUSH1 0x41 PUSH1 0x4 MSTORE PUSH1 0x24 PUSH1 0x0 REVERT JUMPDEST PUSH2 0x6BD DUP3 PUSH2 0x674 JUMP JUMPDEST DUP2 ADD DUP2 DUP2 LT PUSH8 0xFFFFFFFFFFFFFFFF DUP3 GT OR ISZERO PUSH2 0x6DC JUMPI PUSH2 0x6DB PUSH2 0x685 JUMP JUMPDEST JUMPDEST DUP1 PUSH1 0x40 MSTORE POP POP POP JUMP JUMPDEST PUSH1 0x0 PUSH2 0x6EF PUSH2 0x656 JUMP JUMPDEST SWAP1 POP PUSH2 0x6FB DUP3 DUP3 PUSH2 0x6B4 JUMP JUMPDEST SWAP2 SWAP1 POP JUMP JUMPDEST PUSH1 0x0 PUSH8 0xFFFFFFFFFFFFFFFF DUP3 GT ISZERO PUSH2 0x71B JUMPI PUSH2 0x71A PUSH2 0x685 JUMP JUMPDEST JUMPDEST PUSH2 0x724 DUP3 PUSH2 0x674 JUMP JUMPDEST SWAP1 POP PUSH1 0x20 DUP2 ADD SWAP1 POP SWAP2 SWAP1 POP JUMP JUMPDEST DUP3 DUP2 DUP4 CALLDATACOPY PUSH1 0x0 DUP4 DUP4 ADD MSTORE POP POP POP JUMP JUMPDEST PUSH1 0x0 PUSH2 0x753 PUSH2 0x74E DUP5 PUSH2 0x700 JUMP JUMPDEST PUSH2 0x6E5 JUMP JUMPDEST SWAP1 POP DUP3 DUP2 MSTORE PUSH1 0x20 DUP2 ADD DUP5 DUP5 DUP5 ADD GT ISZERO PUSH2 0x76F JUMPI PUSH2 0x76E PUSH2 0x66F JUMP JUMPDEST JUMPDEST PUSH2 0x77A DUP5 DUP3 DUP6 PUSH2 0x731 JUMP JUMPDEST POP SWAP4 SWAP3 POP POP POP JUMP JUMPDEST PUSH1 0x0 DUP3 PUSH1 0x1F DUP4 ADD SLT PUSH2 0x797 JUMPI PUSH2 0x796 PUSH2 0x66A JUMP JUMPDEST JUMPDEST DUP2 CALLDATALOAD PUSH2 0x7A7 DUP5 DUP3 PUSH1 0x20 DUP7 ADD PUSH2 0x740 JUMP JUMPDEST SWAP2 POP POP SWAP3 SWAP2 POP POP JUMP JUMPDEST PUSH1 0x0 PUSH1 0x20 DUP3 DUP5 SUB SLT ISZERO PUSH2 0x7C6 JUMPI PUSH2 0x7C5 PUSH2 0x660 JUMP JUMPDEST JUMPDEST PUSH1 0x0 DUP3 ADD CALLDATALOAD PUSH8 0xFFFFFFFFFFFFFFFF DUP2 GT ISZERO PUSH2 0x7E4 JUMPI PUSH2 0x7E3 PUSH2 0x665 JUMP JUMPDEST JUMPDEST PUSH2 0x7F0 DUP5 DUP3 DUP6 ADD PUSH2 0x782 JUMP JUMPDEST SWAP2 POP POP SWAP3 SWAP2 POP POP JUMP JUMPDEST PUSH1 0x0 DUP2 MLOAD SWAP1 POP SWAP2 SWAP1 POP JUMP JUMPDEST PUSH1 0x0 DUP3 DUP3 MSTORE PUSH1 0x20 DUP3 ADD SWAP1 POP SWAP3 SWAP2 POP POP JUMP JUMPDEST PUSH1 0x0 DUP2 SWAP1 POP PUSH1 0x20 DUP3 ADD SWAP1 POP SWAP2 SWAP1 POP JUMP JUMPDEST PUSH1 0x0 DUP2 MLOAD SWAP1 POP SWAP2 SWAP1 POP JUMP JUMPDEST PUSH1 0x0 DUP3 DUP3 MSTORE PUSH1 0x20 DUP3 ADD SWAP1 POP SWAP3 SWAP2 POP POP JUMP JUMPDEST PUSH1 0x0 JUMPDEST DUP4 DUP2 LT ISZERO PUSH2 0x85F JUMPI DUP1 DUP3 ADD MLOAD DUP2 DUP5 ADD MSTORE PUSH1 0x20 DUP2 ADD SWAP1 POP PUSH2 0x844 JUMP JUMPDEST DUP4 DUP2 GT ISZERO PUSH2 0x86E JUMPI PUSH1 0x0 DUP5 DUP5 ADD MSTORE JUMPDEST POP POP POP POP JUMP JUMPDEST PUSH1 0x0 PUSH2 0x87F DUP3 PUSH2 0x825 JUMP JUMPDEST PUSH2 0x889 DUP2 DUP6 PUSH2 0x830 JUMP JUMPDEST SWAP4 POP PUSH2 0x899 DUP2 DUP6 PUSH1 0x20 DUP7 ADD PUSH2 0x841 JUMP JUMPDEST PUSH2 0x8A2 DUP2 PUSH2 0x674 JUMP JUMPDEST DUP5 ADD SWAP2 POP POP SWAP3 SWAP2 POP POP JUMP JUMPDEST PUSH1 0x0 PUSH1 0x60 DUP4 ADD PUSH1 0x0 DUP4 ADD MLOAD DUP5 DUP3 SUB PUSH1 0x0 DUP7 ADD MSTORE PUSH2 0x8CA DUP3 DUP3 PUSH2 0x874 JUMP JUMPDEST SWAP2 POP POP PUSH1 0x20 DUP4 ADD MLOAD DUP5 DUP3 SUB PUSH1 0x20 DUP7 ADD MSTORE PUSH2 0x8E4 DUP3 DUP3 PUSH2 0x874 JUMP JUMPDEST SWAP2 POP POP PUSH1 0x40 DUP4 ADD MLOAD DUP5 DUP3 SUB PUSH1 0x40 DUP7 ADD MSTORE PUSH2 0x8FE DUP3 DUP3 PUSH2 0x874 JUMP JUMPDEST SWAP2 POP POP DUP1 SWAP2 POP POP SWAP3 SWAP2 POP POP JUMP JUMPDEST PUSH1 0x0 PUSH2 0x917 DUP4 DUP4 PUSH2 0x8AD JUMP JUMPDEST SWAP1 POP SWAP3 SWAP2 POP POP JUMP JUMPDEST PUSH1 0x0 PUSH1 0x20 DUP3 ADD SWAP1 POP SWAP2 SWAP1 POP JUMP JUMPDEST PUSH1 0x0 PUSH2 0x937 DUP3 PUSH2 0x7F9 JUMP JUMPDEST PUSH2 0x941 DUP2 DUP6 PUSH2 0x804 JUMP JUMPDEST SWAP4 POP DUP4 PUSH1 0x20 DUP3 MUL DUP6 ADD PUSH2 0x953 DUP6 PUSH2 0x815 JUMP JUMPDEST DUP1 PUSH1 0x0 JUMPDEST DUP6 DUP2 LT ISZERO PUSH2 0x98F JUMPI DUP5 DUP5 SUB DUP10 MSTORE DUP2 MLOAD PUSH2 0x970 DUP6 DUP3 PUSH2 0x90B JUMP JUMPDEST SWAP5 POP PUSH2 0x97B DUP4 PUSH2 0x91F JUMP JUMPDEST SWAP3 POP PUSH1 0x20 DUP11 ADD SWAP10 POP POP PUSH1 0x1 DUP2 ADD SWAP1 POP PUSH2 0x957 JUMP JUMPDEST POP DUP3 SWAP8 POP DUP8 SWAP6 POP POP POP POP POP POP SWAP3 SWAP2 POP POP JUMP JUMPDEST PUSH1 0x0 PUSH1 0x20 DUP3 ADD SWAP1 POP DUP2 DUP2 SUB PUSH1 0x0 DUP4 ADD MSTORE PUSH2 0x9BB DUP2 DUP5 PUSH2 0x92C JUMP JUMPDEST SWAP1 POP SWAP3 SWAP2 POP POP JUMP JUMPDEST PUSH1 0x0 DUP1 PUSH1 0x0 DUP1 PUSH1 0x80 DUP6 DUP8 SUB SLT ISZERO PUSH2 0x9DD JUMPI PUSH2 0x9DC PUSH2 0x660 JUMP JUMPDEST JUMPDEST PUSH1 0x0 DUP6 ADD CALLDATALOAD PUSH8 0xFFFFFFFFFFFFFFFF DUP2 GT ISZERO PUSH2 0x9FB JUMPI PUSH2 0x9FA PUSH2 0x665 JUMP JUMPDEST JUMPDEST PUSH2 0xA07 DUP8 DUP3 DUP9 ADD PUSH2 0x782 JUMP JUMPDEST SWAP5 POP POP PUSH1 0x20 DUP6 ADD CALLDATALOAD PUSH8 0xFFFFFFFFFFFFFFFF DUP2 GT ISZERO PUSH2 0xA28 JUMPI PUSH2 0xA27 PUSH2 0x665 JUMP JUMPDEST JUMPDEST PUSH2 0xA34 DUP8 DUP3 DUP9 ADD PUSH2 0x782 JUMP JUMPDEST SWAP4 POP POP PUSH1 0x40 DUP6 ADD CALLDATALOAD PUSH8 0xFFFFFFFFFFFFFFFF DUP2 GT ISZERO PUSH2 0xA55 JUMPI PUSH2 0xA54 PUSH2 0x665 JUMP JUMPDEST JUMPDEST PUSH2 0xA61 DUP8 DUP3 DUP9 ADD PUSH2 0x782 JUMP JUMPDEST SWAP3 POP POP PUSH1 0x60 DUP6 ADD CALLDATALOAD PUSH8 0xFFFFFFFFFFFFFFFF DUP2 GT ISZERO PUSH2 0xA82 JUMPI PUSH2 0xA81 PUSH2 0x665 JUMP JUMPDEST JUMPDEST PUSH2 0xA8E DUP8 DUP3 DUP9 ADD PUSH2 0x782 JUMP JUMPDEST SWAP2 POP POP SWAP3 SWAP6 SWAP2 SWAP5 POP SWAP3 POP JUMP JUMPDEST PUSH1 0x0 DUP2 SWAP1 POP SWAP2 SWAP1 POP JUMP JUMPDEST PUSH2 0xAAD DUP2 PUSH2 0xA9A JUMP JUMPDEST DUP2 EQ PUSH2 0xAB8 JUMPI PUSH1 0x0 DUP1 REVERT JUMPDEST POP JUMP JUMPDEST PUSH1 0x0 DUP2 CALLDATALOAD SWAP1 POP PUSH2 0xACA DUP2 PUSH2 0xAA4 JUMP JUMPDEST SWAP3 SWAP2 POP POP JUMP JUMPDEST PUSH1 0x0 DUP1 PUSH1 0x40 DUP4 DUP6 SUB SLT ISZERO PUSH2 0xAE7 JUMPI PUSH2 0xAE6 PUSH2 0x660 JUMP JUMPDEST JUMPDEST PUSH1 0x0 DUP4 ADD CALLDATALOAD PUSH8 0xFFFFFFFFFFFFFFFF DUP2 GT ISZERO PUSH2 0xB05 JUMPI PUSH2 0xB04 PUSH2 0x665 JUMP JUMPDEST JUMPDEST PUSH2 0xB11 DUP6 DUP3 DUP7 ADD PUSH2 0x782 JUMP JUMPDEST SWAP3 POP POP PUSH1 0x20 PUSH2 0xB22 DUP6 DUP3 DUP7 ADD PUSH2 0xABB JUMP JUMPDEST SWAP2 POP POP SWAP3 POP SWAP3 SWAP1 POP JUMP JUMPDEST PUSH1 0x0 DUP3 DUP3 MSTORE PUSH1 0x20 DUP3 ADD SWAP1 POP SWAP3 SWAP2 POP POP JUMP JUMPDEST PUSH1 0x0 PUSH2 0xB48 DUP3 PUSH2 0x825 JUMP JUMPDEST PUSH2 0xB52 DUP2 DUP6 PUSH2 0xB2C JUMP JUMPDEST SWAP4 POP PUSH2 0xB62 DUP2 DUP6 PUSH1 0x20 DUP7 ADD PUSH2 0x841 JUMP JUMPDEST PUSH2 0xB6B DUP2 PUSH2 0x674 JUMP JUMPDEST DUP5 ADD SWAP2 POP POP SWAP3 SWAP2 POP POP JUMP JUMPDEST PUSH1 0x0 PUSH1 0x60 DUP3 ADD SWAP1 POP DUP2 DUP2 SUB PUSH1 0x0 DUP4 ADD MSTORE PUSH2 0xB90 DUP2 DUP7 PUSH2 0xB3D JUMP JUMPDEST SWAP1 POP DUP2 DUP2 SUB PUSH1 0x20 DUP4 ADD MSTORE PUSH2 0xBA4 DUP2 DUP6 PUSH2 0xB3D JUMP JUMPDEST SWAP1 POP DUP2 DUP2 SUB PUSH1 0x40 DUP4 ADD MSTORE PUSH2 0xBB8 DUP2 DUP5 PUSH2 0xB3D JUMP JUMPDEST SWAP1 POP SWAP5 SWAP4 POP POP POP POP JUMP JUMPDEST PUSH1 0x0 DUP2 SWAP1 POP SWAP3 SWAP2 POP POP JUMP JUMPDEST PUSH1 0x0 PUSH2 0xBD8 DUP3 PUSH2 0x825 JUMP JUMPDEST PUSH2 0xBE2 DUP2 DUP6 PUSH2 0xBC2 JUMP JUMPDEST SWAP4 POP PUSH2 0xBF2 DUP2 DUP6 PUSH1 0x20 DUP7 ADD PUSH2 0x841 JUMP JUMPDEST DUP1 DUP5 ADD SWAP2 POP POP SWAP3 SWAP2 POP POP JUMP JUMPDEST PUSH1 0x0 PUSH2 0xC0A DUP3 DUP5 PUSH2 0xBCD JUMP JUMPDEST SWAP2 POP DUP2 SWAP1 POP SWAP3 SWAP2 POP POP JUMP JUMPDEST PUSH32 0x4E487B7100000000000000000000000000000000000000000000000000000000 PUSH1 0x0 MSTORE PUSH1 0x22 PUSH1 0x4 MSTORE PUSH1 0x24 PUSH1 0x0 REVERT JUMPDEST PUSH1 0x0 PUSH1 0x2 DUP3 DIV SWAP1 POP PUSH1 0x1 DUP3 AND DUP1 PUSH2 0xC5C JUMPI PUSH1 0x7F DUP3 AND SWAP2 POP JUMPDEST PUSH1 0x20 DUP3 LT DUP2 EQ ISZERO PUSH2 0xC70 JUMPI PUSH2 0xC6F PUSH2 0xC15 JUMP JUMPDEST JUMPDEST POP SWAP2 SWAP1 POP JUMP INVALID LOG2 PUSH5 0x6970667358 0x22 SLT KECCAK256 0x2C 0xD5 0xC 0xDF 0xD7 0xC 0x4D AND 0xBD 0xE5 MSTORE8 0xB7 PUSH15 0x921AB256EF1E084E36B9CB100EE9BF SWAP9 PUSH12 0xC19C64736F6C634300080900 CALLER "},"gasEstimates":{"creation":{"codeDepositCost":"648800","executionCost":"683","totalCost":"649483"},"external":{"getRatings(string)":"infinite","giveRating(string,string,string,string)":"infinite","rating(string,uint256)":"infinite"}},"methodIdentifiers":{"getRatings(string)":"0615f1bd","giveRating(string,string,string,string)":"06981aa3","rating(string,uint256)":"f5accb8e"}},"storageLayout":{"storage":[{"astId":14,"contract":"CollegeRating.sol:CollegeRating","label":"rating","offset":0,"slot":"0","type":"t_mapping(t_string_memory_ptr,t_array(t_struct(Feedback)8_storage)dyn_storage)"}],"types":{"t_array(t_struct(Feedback)8_storage)dyn_storage":{"base":"t_struct(Feedback)8_storage","encoding":"dynamic_array","label":"struct CollegeRating.Feedback[]","numberOfBytes":"32"},"t_mapping(t_string_memory_ptr,t_array(t_struct(Feedback)8_storage)dyn_storage)":{"encoding":"mapping","key":"t_string_memory_ptr","label":"mapping(string => struct CollegeRating.Feedback[])","numberOfBytes":"32","value":"t_array(t_struct(Feedback)8_storage)dyn_storage"},"t_string_memory_ptr":{"encoding":"bytes","label":"string","numberOfBytes":"32"},"t_string_storage":{"encoding":"bytes","label":"string","numberOfBytes":"32"},"t_struct(Feedback)8_storage":{"encoding":"inplace","label":"struct CollegeRating.Feedback","members":[{"astId":3,"contract":"CollegeRating.sol:CollegeRating","label":"studentName","offset":0,"slot":"0","type":"t_string_storage"},{"astId":5,"contract":"CollegeRating.sol:CollegeRating","label":"star","offset":0,"slot":"1","type":"t_string_storage"},{"astId":7,"contract":"CollegeRating.sol:CollegeRating","label":"feedback","offset":0,"slot":"2","type":"t_string_storage"}],"numberOfBytes":"96"}}},"userdoc":{"kind":"user","methods":{},"version":1}}