{"abi":[{"inputs":[{"internalType":"uint256","name":"","type":"uint256"}],"name":"collegesRatings","outputs":[{"internalType":"string","name":"collegeName","type":"string"},{"internalType":"string","name":"studentName","type":"string"},{"internalType":"string","name":"star","type":"string"},{"internalType":"string","name":"feedback","type":"string"},{"internalType":"string","name":"course","type":"string"}],"stateMutability":"view","type":"function"},{"inputs":[],"name":"getCollegesRatings","outputs":[{"components":[{"internalType":"string","name":"collegeName","type":"string"},{"internalType":"string","name":"studentName","type":"string"},{"internalType":"string","name":"star","type":"string"},{"internalType":"string","name":"feedback","type":"string"},{"internalType":"string","name":"course","type":"string"}],"internalType":"struct CollegeRating.Feedback[]","name":"","type":"tuple[]"}],"stateMutability":"view","type":"function"},{"inputs":[{"internalType":"string","name":"collegeName","type":"string"},{"internalType":"string","name":"studentName","type":"string"},{"internalType":"string","name":"star","type":"string"},{"internalType":"string","name":"feedback","type":"string"},{"internalType":"string","name":"course","type":"string"}],"name":"giveRating","outputs":[],"stateMutability":"nonpayable","type":"function"},{"inputs":[],"name":"totalRatings","outputs":[{"internalType":"uint256","name":"","type":"uint256"}],"stateMutability":"view","type":"function"}],"devdoc":{"kind":"dev","methods":{},"version":1},"evm":{"assembly":"    /* \"CollegeRating.sol\":63:963  contract CollegeRating {... */\n  mstore(0x40, 0x80)\n    /* \"CollegeRating.sol\":327:328  0 */\n  0x00\n    /* \"CollegeRating.sol\":300:328  uint public totalRatings = 0 */\n  0x01\n  sstore\n    /* \"CollegeRating.sol\":63:963  contract CollegeRating {... */\n  callvalue\n  dup1\n  iszero\n  tag_1\n  jumpi\n  0x00\n  dup1\n  revert\ntag_1:\n  pop\n  dataSize(sub_0)\n  dup1\n  dataOffset(sub_0)\n  0x00\n  codecopy\n  0x00\n  return\nstop\n\nsub_0: assembly {\n        /* \"CollegeRating.sol\":63:963  contract CollegeRating {... */\n      mstore(0x40, 0x80)\n      callvalue\n      dup1\n      iszero\n      tag_1\n      jumpi\n      0x00\n      dup1\n      revert\n    tag_1:\n      pop\n      jumpi(tag_2, lt(calldatasize, 0x04))\n      shr(0xe0, calldataload(0x00))\n      dup1\n      0x0ccfcb66\n      eq\n      tag_3\n      jumpi\n      dup1\n      0x2826f6a5\n      eq\n      tag_4\n      jumpi\n      dup1\n      0x4bd81175\n      eq\n      tag_5\n      jumpi\n      dup1\n      0xff782542\n      eq\n      tag_6\n      jumpi\n    tag_2:\n      0x00\n      dup1\n      revert\n        /* \"CollegeRating.sol\":337:841  function giveRating(... */\n    tag_3:\n      tag_7\n      0x04\n      dup1\n      calldatasize\n      sub\n      dup2\n      add\n      swap1\n      tag_8\n      swap2\n      swap1\n      tag_9\n      jump\t// in\n    tag_8:\n      tag_10\n      jump\t// in\n    tag_7:\n      stop\n        /* \"CollegeRating.sol\":300:328  uint public totalRatings = 0 */\n    tag_4:\n      tag_11\n      tag_12\n      jump\t// in\n    tag_11:\n      mload(0x40)\n      tag_13\n      swap2\n      swap1\n      tag_14\n      jump\t// in\n    tag_13:\n      mload(0x40)\n      dup1\n      swap2\n      sub\n      swap1\n      return\n        /* \"CollegeRating.sol\":260:293  Feedback[] public collegesRatings */\n    tag_5:\n      tag_15\n      0x04\n      dup1\n      calldatasize\n      sub\n      dup2\n      add\n      swap1\n      tag_16\n      swap2\n      swap1\n      tag_17\n      jump\t// in\n    tag_16:\n      tag_18\n      jump\t// in\n    tag_15:\n      mload(0x40)\n      tag_19\n      swap6\n      swap5\n      swap4\n      swap3\n      swap2\n      swap1\n      tag_20\n      jump\t// in\n    tag_19:\n      mload(0x40)\n      dup1\n      swap2\n      sub\n      swap1\n      return\n        /* \"CollegeRating.sol\":849:958  function getCollegesRatings() public view returns(Feedback[] memory){... */\n    tag_6:\n      tag_21\n      tag_22\n      jump\t// in\n    tag_21:\n      mload(0x40)\n      tag_23\n      swap2\n      swap1\n      tag_24\n      jump\t// in\n    tag_23:\n      mload(0x40)\n      dup1\n      swap2\n      sub\n      swap1\n      return\n        /* \"CollegeRating.sol\":337:841  function giveRating(... */\n    tag_10:\n        /* \"CollegeRating.sol\":546:573  Feedback memory newFeedback */\n      0x00\n        /* \"CollegeRating.sol\":576:762  Feedback({... */\n      mload(0x40)\n      dup1\n      0xa0\n      add\n      0x40\n      mstore\n      dup1\n        /* \"CollegeRating.sol\":613:624  collegeName */\n      dup8\n        /* \"CollegeRating.sol\":576:762  Feedback({... */\n      dup2\n      mstore\n      0x20\n      add\n        /* \"CollegeRating.sol\":652:663  studentName */\n      dup7\n        /* \"CollegeRating.sol\":576:762  Feedback({... */\n      dup2\n      mstore\n      0x20\n      add\n        /* \"CollegeRating.sol\":684:688  star */\n      dup6\n        /* \"CollegeRating.sol\":576:762  Feedback({... */\n      dup2\n      mstore\n      0x20\n      add\n        /* \"CollegeRating.sol\":713:721  feedback */\n      dup5\n        /* \"CollegeRating.sol\":576:762  Feedback({... */\n      dup2\n      mstore\n      0x20\n      add\n        /* \"CollegeRating.sol\":744:750  course */\n      dup4\n        /* \"CollegeRating.sol\":576:762  Feedback({... */\n      dup2\n      mstore\n      pop\n        /* \"CollegeRating.sol\":546:762  Feedback memory newFeedback = Feedback({... */\n      swap1\n      pop\n        /* \"CollegeRating.sol\":775:790  collegesRatings */\n      0x00\n        /* \"CollegeRating.sol\":796:807  newFeedback */\n      dup2\n        /* \"CollegeRating.sol\":775:808  collegesRatings.push(newFeedback) */\n      swap1\n      dup1\n      0x01\n      dup2\n      sload\n      add\n      dup1\n      dup3\n      sstore\n      dup1\n      swap2\n      pop\n      pop\n      0x01\n      swap1\n      sub\n      swap1\n      0x00\n      mstore\n      keccak256(0x00, 0x20)\n      swap1\n      0x05\n      mul\n      add\n      0x00\n      swap1\n      swap2\n      swap1\n      swap2\n      swap1\n      swap2\n      pop\n      0x00\n      dup3\n      add\n      mload\n      dup2\n      0x00\n      add\n      swap1\n      dup1\n      mload\n      swap1\n      0x20\n      add\n      swap1\n      tag_27\n      swap3\n      swap2\n      swap1\n      tag_28\n      jump\t// in\n    tag_27:\n      pop\n      0x20\n      dup3\n      add\n      mload\n      dup2\n      0x01\n      add\n      swap1\n      dup1\n      mload\n      swap1\n      0x20\n      add\n      swap1\n      tag_29\n      swap3\n      swap2\n      swap1\n      tag_28\n      jump\t// in\n    tag_29:\n      pop\n      0x40\n      dup3\n      add\n      mload\n      dup2\n      0x02\n      add\n      swap1\n      dup1\n      mload\n      swap1\n      0x20\n      add\n      swap1\n      tag_30\n      swap3\n      swap2\n      swap1\n      tag_28\n      jump\t// in\n    tag_30:\n      pop\n      0x60\n      dup3\n      add\n      mload\n      dup2\n      0x03\n      add\n      swap1\n      dup1\n      mload\n      swap1\n      0x20\n      add\n      swap1\n      tag_31\n      swap3\n      swap2\n      swap1\n      tag_28\n      jump\t// in\n    tag_31:\n      pop\n      0x80\n      dup3\n      add\n      mload\n      dup2\n      0x04\n      add\n      swap1\n      dup1\n      mload\n      swap1\n      0x20\n      add\n      swap1\n      tag_32\n      swap3\n      swap2\n      swap1\n      tag_28\n      jump\t// in\n    tag_32:\n      pop\n      pop\n      pop\n        /* \"CollegeRating.sol\":819:831  totalRatings */\n      0x01\n      0x00\n        /* \"CollegeRating.sol\":819:833  totalRatings++ */\n      dup2\n      sload\n      dup1\n      swap3\n      swap2\n      swap1\n      tag_33\n      swap1\n      tag_34\n      jump\t// in\n    tag_33:\n      swap2\n      swap1\n      pop\n      sstore\n      pop\n        /* \"CollegeRating.sol\":535:841  {... */\n      pop\n        /* \"CollegeRating.sol\":337:841  function giveRating(... */\n      pop\n      pop\n      pop\n      pop\n      pop\n      jump\t// out\n        /* \"CollegeRating.sol\":300:328  uint public totalRatings = 0 */\n    tag_12:\n      sload(0x01)\n      dup2\n      jump\t// out\n        /* \"CollegeRating.sol\":260:293  Feedback[] public collegesRatings */\n    tag_18:\n      0x00\n      dup2\n      dup2\n      sload\n      dup2\n      lt\n      tag_35\n      jumpi\n      0x00\n      dup1\n      revert\n    tag_35:\n      swap1\n      0x00\n      mstore\n      keccak256(0x00, 0x20)\n      swap1\n      0x05\n      mul\n      add\n      0x00\n      swap2\n      pop\n      swap1\n      pop\n      dup1\n      0x00\n      add\n      dup1\n      sload\n      tag_37\n      swap1\n      tag_38\n      jump\t// in\n    tag_37:\n      dup1\n      0x1f\n      add\n      0x20\n      dup1\n      swap2\n      div\n      mul\n      0x20\n      add\n      mload(0x40)\n      swap1\n      dup2\n      add\n      0x40\n      mstore\n      dup1\n      swap3\n      swap2\n      swap1\n      dup2\n      dup2\n      mstore\n      0x20\n      add\n      dup3\n      dup1\n      sload\n      tag_39\n      swap1\n      tag_38\n      jump\t// in\n    tag_39:\n      dup1\n      iszero\n      tag_40\n      jumpi\n      dup1\n      0x1f\n      lt\n      tag_41\n      jumpi\n      0x0100\n      dup1\n      dup4\n      sload\n      div\n      mul\n      dup4\n      mstore\n      swap2\n      0x20\n      add\n      swap2\n      jump(tag_40)\n    tag_41:\n      dup3\n      add\n      swap2\n      swap1\n      0x00\n      mstore\n      keccak256(0x00, 0x20)\n      swap1\n    tag_42:\n      dup2\n      sload\n      dup2\n      mstore\n      swap1\n      0x01\n      add\n      swap1\n      0x20\n      add\n      dup1\n      dup4\n      gt\n      tag_42\n      jumpi\n      dup3\n      swap1\n      sub\n      0x1f\n      and\n      dup3\n      add\n      swap2\n    tag_40:\n      pop\n      pop\n      pop\n      pop\n      pop\n      swap1\n      dup1\n      0x01\n      add\n      dup1\n      sload\n      tag_43\n      swap1\n      tag_38\n      jump\t// in\n    tag_43:\n      dup1\n      0x1f\n      add\n      0x20\n      dup1\n      swap2\n      div\n      mul\n      0x20\n      add\n      mload(0x40)\n      swap1\n      dup2\n      add\n      0x40\n      mstore\n      dup1\n      swap3\n      swap2\n      swap1\n      dup2\n      dup2\n      mstore\n      0x20\n      add\n      dup3\n      dup1\n      sload\n      tag_44\n      swap1\n      tag_38\n      jump\t// in\n    tag_44:\n      dup1\n      iszero\n      tag_45\n      jumpi\n      dup1\n      0x1f\n      lt\n      tag_46\n      jumpi\n      0x0100\n      dup1\n      dup4\n      sload\n      div\n      mul\n      dup4\n      mstore\n      swap2\n      0x20\n      add\n      swap2\n      jump(tag_45)\n    tag_46:\n      dup3\n      add\n      swap2\n      swap1\n      0x00\n      mstore\n      keccak256(0x00, 0x20)\n      swap1\n    tag_47:\n      dup2\n      sload\n      dup2\n      mstore\n      swap1\n      0x01\n      add\n      swap1\n      0x20\n      add\n      dup1\n      dup4\n      gt\n      tag_47\n      jumpi\n      dup3\n      swap1\n      sub\n      0x1f\n      and\n      dup3\n      add\n      swap2\n    tag_45:\n      pop\n      pop\n      pop\n      pop\n      pop\n      swap1\n      dup1\n      0x02\n      add\n      dup1\n      sload\n      tag_48\n      swap1\n      tag_38\n      jump\t// in\n    tag_48:\n      dup1\n      0x1f\n      add\n      0x20\n      dup1\n      swap2\n      div\n      mul\n      0x20\n      add\n      mload(0x40)\n      swap1\n      dup2\n      add\n      0x40\n      mstore\n      dup1\n      swap3\n      swap2\n      swap1\n      dup2\n      dup2\n      mstore\n      0x20\n      add\n      dup3\n      dup1\n      sload\n      tag_49\n      swap1\n      tag_38\n      jump\t// in\n    tag_49:\n      dup1\n      iszero\n      tag_50\n      jumpi\n      dup1\n      0x1f\n      lt\n      tag_51\n      jumpi\n      0x0100\n      dup1\n      dup4\n      sload\n      div\n      mul\n      dup4\n      mstore\n      swap2\n      0x20\n      add\n      swap2\n      jump(tag_50)\n    tag_51:\n      dup3\n      add\n      swap2\n      swap1\n      0x00\n      mstore\n      keccak256(0x00, 0x20)\n      swap1\n    tag_52:\n      dup2\n      sload\n      dup2\n      mstore\n      swap1\n      0x01\n      add\n      swap1\n      0x20\n      add\n      dup1\n      dup4\n      gt\n      tag_52\n      jumpi\n      dup3\n      swap1\n      sub\n      0x1f\n      and\n      dup3\n      add\n      swap2\n    tag_50:\n      pop\n      pop\n      pop\n      pop\n      pop\n      swap1\n      dup1\n      0x03\n      add\n      dup1\n      sload\n      tag_53\n      swap1\n      tag_38\n      jump\t// in\n    tag_53:\n      dup1\n      0x1f\n      add\n      0x20\n      dup1\n      swap2\n      div\n      mul\n      0x20\n      add\n      mload(0x40)\n      swap1\n      dup2\n      add\n      0x40\n      mstore\n      dup1\n      swap3\n      swap2\n      swap1\n      dup2\n      dup2\n      mstore\n      0x20\n      add\n      dup3\n      dup1\n      sload\n      tag_54\n      swap1\n      tag_38\n      jump\t// in\n    tag_54:\n      dup1\n      iszero\n      tag_55\n      jumpi\n      dup1\n      0x1f\n      lt\n      tag_56\n      jumpi\n      0x0100\n      dup1\n      dup4\n      sload\n      div\n      mul\n      dup4\n      mstore\n      swap2\n      0x20\n      add\n      swap2\n      jump(tag_55)\n    tag_56:\n      dup3\n      add\n      swap2\n      swap1\n      0x00\n      mstore\n      keccak256(0x00, 0x20)\n      swap1\n    tag_57:\n      dup2\n      sload\n      dup2\n      mstore\n      swap1\n      0x01\n      add\n      swap1\n      0x20\n      add\n      dup1\n      dup4\n      gt\n      tag_57\n      jumpi\n      dup3\n      swap1\n      sub\n      0x1f\n      and\n      dup3\n      add\n      swap2\n    tag_55:\n      pop\n      pop\n      pop\n      pop\n      pop\n      swap1\n      dup1\n      0x04\n      add\n      dup1\n      sload\n      tag_58\n      swap1\n      tag_38\n      jump\t// in\n    tag_58:\n      dup1\n      0x1f\n      add\n      0x20\n      dup1\n      swap2\n      div\n      mul\n      0x20\n      add\n      mload(0x40)\n      swap1\n      dup2\n      add\n      0x40\n      mstore\n      dup1\n      swap3\n      swap2\n      swap1\n      dup2\n      dup2\n      mstore\n      0x20\n      add\n      dup3\n      dup1\n      sload\n      tag_59\n      swap1\n      tag_38\n      jump\t// in\n    tag_59:\n      dup1\n      iszero\n      tag_60\n      jumpi\n      dup1\n      0x1f\n      lt\n      tag_61\n      jumpi\n      0x0100\n      dup1\n      dup4\n      sload\n      div\n      mul\n      dup4\n      mstore\n      swap2\n      0x20\n      add\n      swap2\n      jump(tag_60)\n    tag_61:\n      dup3\n      add\n      swap2\n      swap1\n      0x00\n      mstore\n      keccak256(0x00, 0x20)\n      swap1\n    tag_62:\n      dup2\n      sload\n      dup2\n      mstore\n      swap1\n      0x01\n      add\n      swap1\n      0x20\n      add\n      dup1\n      dup4\n      gt\n      tag_62\n      jumpi\n      dup3\n      swap1\n      sub\n      0x1f\n      and\n      dup3\n      add\n      swap2\n    tag_60:\n      pop\n      pop\n      pop\n      pop\n      pop\n      swap1\n      pop\n      dup6\n      jump\t// out\n        /* \"CollegeRating.sol\":849:958  function getCollegesRatings() public view returns(Feedback[] memory){... */\n    tag_22:\n        /* \"CollegeRating.sol\":899:916  Feedback[] memory */\n      0x60\n        /* \"CollegeRating.sol\":935:950  collegesRatings */\n      0x00\n        /* \"CollegeRating.sol\":928:950  return collegesRatings */\n      dup1\n      sload\n      dup1\n      0x20\n      mul\n      0x20\n      add\n      mload(0x40)\n      swap1\n      dup2\n      add\n      0x40\n      mstore\n      dup1\n      swap3\n      swap2\n      swap1\n      dup2\n      dup2\n      mstore\n      0x20\n      add\n      0x00\n      swap1\n    tag_64:\n      dup3\n      dup3\n      lt\n      iszero\n      tag_65\n      jumpi\n      dup4\n      dup3\n      swap1\n      0x00\n      mstore\n      keccak256(0x00, 0x20)\n      swap1\n      0x05\n      mul\n      add\n      mload(0x40)\n      dup1\n      0xa0\n      add\n      0x40\n      mstore\n      swap1\n      dup2\n      0x00\n      dup3\n      add\n      dup1\n      sload\n      tag_67\n      swap1\n      tag_38\n      jump\t// in\n    tag_67:\n      dup1\n      0x1f\n      add\n      0x20\n      dup1\n      swap2\n      div\n      mul\n      0x20\n      add\n      mload(0x40)\n      swap1\n      dup2\n      add\n      0x40\n      mstore\n      dup1\n      swap3\n      swap2\n      swap1\n      dup2\n      dup2\n      mstore\n      0x20\n      add\n      dup3\n      dup1\n      sload\n      tag_68\n      swap1\n      tag_38\n      jump\t// in\n    tag_68:\n      dup1\n      iszero\n      tag_69\n      jumpi\n      dup1\n      0x1f\n      lt\n      tag_70\n      jumpi\n      0x0100\n      dup1\n      dup4\n      sload\n      div\n      mul\n      dup4\n      mstore\n      swap2\n      0x20\n      add\n      swap2\n      jump(tag_69)\n    tag_70:\n      dup3\n      add\n      swap2\n      swap1\n      0x00\n      mstore\n      keccak256(0x00, 0x20)\n      swap1\n    tag_71:\n      dup2\n      sload\n      dup2\n      mstore\n      swap1\n      0x01\n      add\n      swap1\n      0x20\n      add\n      dup1\n      dup4\n      gt\n      tag_71\n      jumpi\n      dup3\n      swap1\n      sub\n      0x1f\n      and\n      dup3\n      add\n      swap2\n    tag_69:\n      pop\n      pop\n      pop\n      pop\n      pop\n      dup2\n      mstore\n      0x20\n      add\n      0x01\n      dup3\n      add\n      dup1\n      sload\n      tag_72\n      swap1\n      tag_38\n      jump\t// in\n    tag_72:\n      dup1\n      0x1f\n      add\n      0x20\n      dup1\n      swap2\n      div\n      mul\n      0x20\n      add\n      mload(0x40)\n      swap1\n      dup2\n      add\n      0x40\n      mstore\n      dup1\n      swap3\n      swap2\n      swap1\n      dup2\n      dup2\n      mstore\n      0x20\n      add\n      dup3\n      dup1\n      sload\n      tag_73\n      swap1\n      tag_38\n      jump\t// in\n    tag_73:\n      dup1\n      iszero\n      tag_74\n      jumpi\n      dup1\n      0x1f\n      lt\n      tag_75\n      jumpi\n      0x0100\n      dup1\n      dup4\n      sload\n      div\n      mul\n      dup4\n      mstore\n      swap2\n      0x20\n      add\n      swap2\n      jump(tag_74)\n    tag_75:\n      dup3\n      add\n      swap2\n      swap1\n      0x00\n      mstore\n      keccak256(0x00, 0x20)\n      swap1\n    tag_76:\n      dup2\n      sload\n      dup2\n      mstore\n      swap1\n      0x01\n      add\n      swap1\n      0x20\n      add\n      dup1\n      dup4\n      gt\n      tag_76\n      jumpi\n      dup3\n      swap1\n      sub\n      0x1f\n      and\n      dup3\n      add\n      swap2\n    tag_74:\n      pop\n      pop\n      pop\n      pop\n      pop\n      dup2\n      mstore\n      0x20\n      add\n      0x02\n      dup3\n      add\n      dup1\n      sload\n      tag_77\n      swap1\n      tag_38\n      jump\t// in\n    tag_77:\n      dup1\n      0x1f\n      add\n      0x20\n      dup1\n      swap2\n      div\n      mul\n      0x20\n      add\n      mload(0x40)\n      swap1\n      dup2\n      add\n      0x40\n      mstore\n      dup1\n      swap3\n      swap2\n      swap1\n      dup2\n      dup2\n      mstore\n      0x20\n      add\n      dup3\n      dup1\n      sload\n      tag_78\n      swap1\n      tag_38\n      jump\t// in\n    tag_78:\n      dup1\n      iszero\n      tag_79\n      jumpi\n      dup1\n      0x1f\n      lt\n      tag_80\n      jumpi\n      0x0100\n      dup1\n      dup4\n      sload\n      div\n      mul\n      dup4\n      mstore\n      swap2\n      0x20\n      add\n      swap2\n      jump(tag_79)\n    tag_80:\n      dup3\n      add\n      swap2\n      swap1\n      0x00\n      mstore\n      keccak256(0x00, 0x20)\n      swap1\n    tag_81:\n      dup2\n      sload\n      dup2\n      mstore\n      swap1\n      0x01\n      add\n      swap1\n      0x20\n      add\n      dup1\n      dup4\n      gt\n      tag_81\n      jumpi\n      dup3\n      swap1\n      sub\n      0x1f\n      and\n      dup3\n      add\n      swap2\n    tag_79:\n      pop\n      pop\n      pop\n      pop\n      pop\n      dup2\n      mstore\n      0x20\n      add\n      0x03\n      dup3\n      add\n      dup1\n      sload\n      tag_82\n      swap1\n      tag_38\n      jump\t// in\n    tag_82:\n      dup1\n      0x1f\n      add\n      0x20\n      dup1\n      swap2\n      div\n      mul\n      0x20\n      add\n      mload(0x40)\n      swap1\n      dup2\n      add\n      0x40\n      mstore\n      dup1\n      swap3\n      swap2\n      swap1\n      dup2\n      dup2\n      mstore\n      0x20\n      add\n      dup3\n      dup1\n      sload\n      tag_83\n      swap1\n      tag_38\n      jump\t// in\n    tag_83:\n      dup1\n      iszero\n      tag_84\n      jumpi\n      dup1\n      0x1f\n      lt\n      tag_85\n      jumpi\n      0x0100\n      dup1\n      dup4\n      sload\n      div\n      mul\n      dup4\n      mstore\n      swap2\n      0x20\n      add\n      swap2\n      jump(tag_84)\n    tag_85:\n      dup3\n      add\n      swap2\n      swap1\n      0x00\n      mstore\n      keccak256(0x00, 0x20)\n      swap1\n    tag_86:\n      dup2\n      sload\n      dup2\n      mstore\n      swap1\n      0x01\n      add\n      swap1\n      0x20\n      add\n      dup1\n      dup4\n      gt\n      tag_86\n      jumpi\n      dup3\n      swap1\n      sub\n      0x1f\n      and\n      dup3\n      add\n      swap2\n    tag_84:\n      pop\n      pop\n      pop\n      pop\n      pop\n      dup2\n      mstore\n      0x20\n      add\n      0x04\n      dup3\n      add\n      dup1\n      sload\n      tag_87\n      swap1\n      tag_38\n      jump\t// in\n    tag_87:\n      dup1\n      0x1f\n      add\n      0x20\n      dup1\n      swap2\n      div\n      mul\n      0x20\n      add\n      mload(0x40)\n      swap1\n      dup2\n      add\n      0x40\n      mstore\n      dup1\n      swap3\n      swap2\n      swap1\n      dup2\n      dup2\n      mstore\n      0x20\n      add\n      dup3\n      dup1\n      sload\n      tag_88\n      swap1\n      tag_38\n      jump\t// in\n    tag_88:\n      dup1\n      iszero\n      tag_89\n      jumpi\n      dup1\n      0x1f\n      lt\n      tag_90\n      jumpi\n      0x0100\n      dup1\n      dup4\n      sload\n      div\n      mul\n      dup4\n      mstore\n      swap2\n      0x20\n      add\n      swap2\n      jump(tag_89)\n    tag_90:\n      dup3\n      add\n      swap2\n      swap1\n      0x00\n      mstore\n      keccak256(0x00, 0x20)\n      swap1\n    tag_91:\n      dup2\n      sload\n      dup2\n      mstore\n      swap1\n      0x01\n      add\n      swap1\n      0x20\n      add\n      dup1\n      dup4\n      gt\n      tag_91\n      jumpi\n      dup3\n      swap1\n      sub\n      0x1f\n      and\n      dup3\n      add\n      swap2\n    tag_89:\n      pop\n      pop\n      pop\n      pop\n      pop\n      dup2\n      mstore\n      pop\n      pop\n      dup2\n      mstore\n      0x20\n      add\n      swap1\n      0x01\n      add\n      swap1\n      jump(tag_64)\n    tag_65:\n      pop\n      pop\n      pop\n      pop\n      swap1\n      pop\n        /* \"CollegeRating.sol\":849:958  function getCollegesRatings() public view returns(Feedback[] memory){... */\n      swap1\n      jump\t// out\n    tag_28:\n      dup3\n      dup1\n      sload\n      tag_92\n      swap1\n      tag_38\n      jump\t// in\n    tag_92:\n      swap1\n      0x00\n      mstore\n      keccak256(0x00, 0x20)\n      swap1\n      0x1f\n      add\n      0x20\n      swap1\n      div\n      dup2\n      add\n      swap3\n      dup3\n      tag_94\n      jumpi\n      0x00\n      dup6\n      sstore\n      jump(tag_93)\n    tag_94:\n      dup3\n      0x1f\n      lt\n      tag_95\n      jumpi\n      dup1\n      mload\n      not(0xff)\n      and\n      dup4\n      dup1\n      add\n      or\n      dup6\n      sstore\n      jump(tag_93)\n    tag_95:\n      dup3\n      dup1\n      add\n      0x01\n      add\n      dup6\n      sstore\n      dup3\n      iszero\n      tag_93\n      jumpi\n      swap2\n      dup3\n      add\n    tag_96:\n      dup3\n      dup2\n      gt\n      iszero\n      tag_97\n      jumpi\n      dup3\n      mload\n      dup3\n      sstore\n      swap2\n      0x20\n      add\n      swap2\n      swap1\n      0x01\n      add\n      swap1\n      jump(tag_96)\n    tag_97:\n    tag_93:\n      pop\n      swap1\n      pop\n      tag_98\n      swap2\n      swap1\n      tag_99\n      jump\t// in\n    tag_98:\n      pop\n      swap1\n      jump\t// out\n    tag_99:\n    tag_100:\n      dup1\n      dup3\n      gt\n      iszero\n      tag_101\n      jumpi\n      0x00\n      dup2\n      0x00\n      swap1\n      sstore\n      pop\n      0x01\n      add\n      jump(tag_100)\n    tag_101:\n      pop\n      swap1\n      jump\t// out\n        /* \"#utility.yul\":7:82   */\n    tag_102:\n        /* \"#utility.yul\":40:46   */\n      0x00\n        /* \"#utility.yul\":73:75   */\n      0x40\n        /* \"#utility.yul\":67:76   */\n      mload\n        /* \"#utility.yul\":57:76   */\n      swap1\n      pop\n        /* \"#utility.yul\":7:82   */\n      swap1\n      jump\t// out\n        /* \"#utility.yul\":88:205   */\n    tag_103:\n        /* \"#utility.yul\":197:198   */\n      0x00\n        /* \"#utility.yul\":194:195   */\n      dup1\n        /* \"#utility.yul\":187:199   */\n      revert\n        /* \"#utility.yul\":211:328   */\n    tag_104:\n        /* \"#utility.yul\":320:321   */\n      0x00\n        /* \"#utility.yul\":317:318   */\n      dup1\n        /* \"#utility.yul\":310:322   */\n      revert\n        /* \"#utility.yul\":334:451   */\n    tag_105:\n        /* \"#utility.yul\":443:444   */\n      0x00\n        /* \"#utility.yul\":440:441   */\n      dup1\n        /* \"#utility.yul\":433:445   */\n      revert\n        /* \"#utility.yul\":457:574   */\n    tag_106:\n        /* \"#utility.yul\":566:567   */\n      0x00\n        /* \"#utility.yul\":563:564   */\n      dup1\n        /* \"#utility.yul\":556:568   */\n      revert\n        /* \"#utility.yul\":580:682   */\n    tag_107:\n        /* \"#utility.yul\":621:627   */\n      0x00\n        /* \"#utility.yul\":672:674   */\n      0x1f\n        /* \"#utility.yul\":668:675   */\n      not\n        /* \"#utility.yul\":663:665   */\n      0x1f\n        /* \"#utility.yul\":656:661   */\n      dup4\n        /* \"#utility.yul\":652:666   */\n      add\n        /* \"#utility.yul\":648:676   */\n      and\n        /* \"#utility.yul\":638:676   */\n      swap1\n      pop\n        /* \"#utility.yul\":580:682   */\n      swap2\n      swap1\n      pop\n      jump\t// out\n        /* \"#utility.yul\":688:868   */\n    tag_108:\n        /* \"#utility.yul\":736:813   */\n      0x4e487b7100000000000000000000000000000000000000000000000000000000\n        /* \"#utility.yul\":733:734   */\n      0x00\n        /* \"#utility.yul\":726:814   */\n      mstore\n        /* \"#utility.yul\":833:837   */\n      0x41\n        /* \"#utility.yul\":830:831   */\n      0x04\n        /* \"#utility.yul\":823:838   */\n      mstore\n        /* \"#utility.yul\":857:861   */\n      0x24\n        /* \"#utility.yul\":854:855   */\n      0x00\n        /* \"#utility.yul\":847:862   */\n      revert\n        /* \"#utility.yul\":874:1155   */\n    tag_109:\n        /* \"#utility.yul\":957:984   */\n      tag_143\n        /* \"#utility.yul\":979:983   */\n      dup3\n        /* \"#utility.yul\":957:984   */\n      tag_107\n      jump\t// in\n    tag_143:\n        /* \"#utility.yul\":949:955   */\n      dup2\n        /* \"#utility.yul\":945:985   */\n      add\n        /* \"#utility.yul\":1087:1093   */\n      dup2\n        /* \"#utility.yul\":1075:1085   */\n      dup2\n        /* \"#utility.yul\":1072:1094   */\n      lt\n        /* \"#utility.yul\":1051:1069   */\n      0xffffffffffffffff\n        /* \"#utility.yul\":1039:1049   */\n      dup3\n        /* \"#utility.yul\":1036:1070   */\n      gt\n        /* \"#utility.yul\":1033:1095   */\n      or\n        /* \"#utility.yul\":1030:1118   */\n      iszero\n      tag_144\n      jumpi\n        /* \"#utility.yul\":1098:1116   */\n      tag_145\n      tag_108\n      jump\t// in\n    tag_145:\n        /* \"#utility.yul\":1030:1118   */\n    tag_144:\n        /* \"#utility.yul\":1138:1148   */\n      dup1\n        /* \"#utility.yul\":1134:1136   */\n      0x40\n        /* \"#utility.yul\":1127:1149   */\n      mstore\n        /* \"#utility.yul\":917:1155   */\n      pop\n        /* \"#utility.yul\":874:1155   */\n      pop\n      pop\n      jump\t// out\n        /* \"#utility.yul\":1161:1290   */\n    tag_110:\n        /* \"#utility.yul\":1195:1201   */\n      0x00\n        /* \"#utility.yul\":1222:1242   */\n      tag_147\n      tag_102\n      jump\t// in\n    tag_147:\n        /* \"#utility.yul\":1212:1242   */\n      swap1\n      pop\n        /* \"#utility.yul\":1251:1284   */\n      tag_148\n        /* \"#utility.yul\":1279:1283   */\n      dup3\n        /* \"#utility.yul\":1271:1277   */\n      dup3\n        /* \"#utility.yul\":1251:1284   */\n      tag_109\n      jump\t// in\n    tag_148:\n        /* \"#utility.yul\":1161:1290   */\n      swap2\n      swap1\n      pop\n      jump\t// out\n        /* \"#utility.yul\":1296:1604   */\n    tag_111:\n        /* \"#utility.yul\":1358:1362   */\n      0x00\n        /* \"#utility.yul\":1448:1466   */\n      0xffffffffffffffff\n        /* \"#utility.yul\":1440:1446   */\n      dup3\n        /* \"#utility.yul\":1437:1467   */\n      gt\n        /* \"#utility.yul\":1434:1490   */\n      iszero\n      tag_150\n      jumpi\n        /* \"#utility.yul\":1470:1488   */\n      tag_151\n      tag_108\n      jump\t// in\n    tag_151:\n        /* \"#utility.yul\":1434:1490   */\n    tag_150:\n        /* \"#utility.yul\":1508:1537   */\n      tag_152\n        /* \"#utility.yul\":1530:1536   */\n      dup3\n        /* \"#utility.yul\":1508:1537   */\n      tag_107\n      jump\t// in\n    tag_152:\n        /* \"#utility.yul\":1500:1537   */\n      swap1\n      pop\n        /* \"#utility.yul\":1592:1596   */\n      0x20\n        /* \"#utility.yul\":1586:1590   */\n      dup2\n        /* \"#utility.yul\":1582:1597   */\n      add\n        /* \"#utility.yul\":1574:1597   */\n      swap1\n      pop\n        /* \"#utility.yul\":1296:1604   */\n      swap2\n      swap1\n      pop\n      jump\t// out\n        /* \"#utility.yul\":1610:1764   */\n    tag_112:\n        /* \"#utility.yul\":1694:1700   */\n      dup3\n        /* \"#utility.yul\":1689:1692   */\n      dup2\n        /* \"#utility.yul\":1684:1687   */\n      dup4\n        /* \"#utility.yul\":1671:1701   */\n      calldatacopy\n        /* \"#utility.yul\":1756:1757   */\n      0x00\n        /* \"#utility.yul\":1747:1753   */\n      dup4\n        /* \"#utility.yul\":1742:1745   */\n      dup4\n        /* \"#utility.yul\":1738:1754   */\n      add\n        /* \"#utility.yul\":1731:1758   */\n      mstore\n        /* \"#utility.yul\":1610:1764   */\n      pop\n      pop\n      pop\n      jump\t// out\n        /* \"#utility.yul\":1770:2182   */\n    tag_113:\n        /* \"#utility.yul\":1848:1853   */\n      0x00\n        /* \"#utility.yul\":1873:1939   */\n      tag_155\n        /* \"#utility.yul\":1889:1938   */\n      tag_156\n        /* \"#utility.yul\":1931:1937   */\n      dup5\n        /* \"#utility.yul\":1889:1938   */\n      tag_111\n      jump\t// in\n    tag_156:\n        /* \"#utility.yul\":1873:1939   */\n      tag_110\n      jump\t// in\n    tag_155:\n        /* \"#utility.yul\":1864:1939   */\n      swap1\n      pop\n        /* \"#utility.yul\":1962:1968   */\n      dup3\n        /* \"#utility.yul\":1955:1960   */\n      dup2\n        /* \"#utility.yul\":1948:1969   */\n      mstore\n        /* \"#utility.yul\":2000:2004   */\n      0x20\n        /* \"#utility.yul\":1993:1998   */\n      dup2\n        /* \"#utility.yul\":1989:2005   */\n      add\n        /* \"#utility.yul\":2038:2041   */\n      dup5\n        /* \"#utility.yul\":2029:2035   */\n      dup5\n        /* \"#utility.yul\":2024:2027   */\n      dup5\n        /* \"#utility.yul\":2020:2036   */\n      add\n        /* \"#utility.yul\":2017:2042   */\n      gt\n        /* \"#utility.yul\":2014:2126   */\n      iszero\n      tag_157\n      jumpi\n        /* \"#utility.yul\":2045:2124   */\n      tag_158\n      tag_106\n      jump\t// in\n    tag_158:\n        /* \"#utility.yul\":2014:2126   */\n    tag_157:\n        /* \"#utility.yul\":2135:2176   */\n      tag_159\n        /* \"#utility.yul\":2169:2175   */\n      dup5\n        /* \"#utility.yul\":2164:2167   */\n      dup3\n        /* \"#utility.yul\":2159:2162   */\n      dup6\n        /* \"#utility.yul\":2135:2176   */\n      tag_112\n      jump\t// in\n    tag_159:\n        /* \"#utility.yul\":1854:2182   */\n      pop\n        /* \"#utility.yul\":1770:2182   */\n      swap4\n      swap3\n      pop\n      pop\n      pop\n      jump\t// out\n        /* \"#utility.yul\":2202:2542   */\n    tag_114:\n        /* \"#utility.yul\":2258:2263   */\n      0x00\n        /* \"#utility.yul\":2307:2310   */\n      dup3\n        /* \"#utility.yul\":2300:2304   */\n      0x1f\n        /* \"#utility.yul\":2292:2298   */\n      dup4\n        /* \"#utility.yul\":2288:2305   */\n      add\n        /* \"#utility.yul\":2284:2311   */\n      slt\n        /* \"#utility.yul\":2274:2396   */\n      tag_161\n      jumpi\n        /* \"#utility.yul\":2315:2394   */\n      tag_162\n      tag_105\n      jump\t// in\n    tag_162:\n        /* \"#utility.yul\":2274:2396   */\n    tag_161:\n        /* \"#utility.yul\":2432:2438   */\n      dup2\n        /* \"#utility.yul\":2419:2439   */\n      calldataload\n        /* \"#utility.yul\":2457:2536   */\n      tag_163\n        /* \"#utility.yul\":2532:2535   */\n      dup5\n        /* \"#utility.yul\":2524:2530   */\n      dup3\n        /* \"#utility.yul\":2517:2521   */\n      0x20\n        /* \"#utility.yul\":2509:2515   */\n      dup7\n        /* \"#utility.yul\":2505:2522   */\n      add\n        /* \"#utility.yul\":2457:2536   */\n      tag_113\n      jump\t// in\n    tag_163:\n        /* \"#utility.yul\":2448:2536   */\n      swap2\n      pop\n        /* \"#utility.yul\":2264:2542   */\n      pop\n        /* \"#utility.yul\":2202:2542   */\n      swap3\n      swap2\n      pop\n      pop\n      jump\t// out\n        /* \"#utility.yul\":2548:4359   */\n    tag_9:\n        /* \"#utility.yul\":2693:2699   */\n      0x00\n        /* \"#utility.yul\":2701:2707   */\n      dup1\n        /* \"#utility.yul\":2709:2715   */\n      0x00\n        /* \"#utility.yul\":2717:2723   */\n      dup1\n        /* \"#utility.yul\":2725:2731   */\n      0x00\n        /* \"#utility.yul\":2774:2777   */\n      0xa0\n        /* \"#utility.yul\":2762:2771   */\n      dup7\n        /* \"#utility.yul\":2753:2760   */\n      dup9\n        /* \"#utility.yul\":2749:2772   */\n      sub\n        /* \"#utility.yul\":2745:2778   */\n      slt\n        /* \"#utility.yul\":2742:2862   */\n      iszero\n      tag_165\n      jumpi\n        /* \"#utility.yul\":2781:2860   */\n      tag_166\n      tag_103\n      jump\t// in\n    tag_166:\n        /* \"#utility.yul\":2742:2862   */\n    tag_165:\n        /* \"#utility.yul\":2929:2930   */\n      0x00\n        /* \"#utility.yul\":2918:2927   */\n      dup7\n        /* \"#utility.yul\":2914:2931   */\n      add\n        /* \"#utility.yul\":2901:2932   */\n      calldataload\n        /* \"#utility.yul\":2959:2977   */\n      0xffffffffffffffff\n        /* \"#utility.yul\":2951:2957   */\n      dup2\n        /* \"#utility.yul\":2948:2978   */\n      gt\n        /* \"#utility.yul\":2945:3062   */\n      iszero\n      tag_167\n      jumpi\n        /* \"#utility.yul\":2981:3060   */\n      tag_168\n      tag_104\n      jump\t// in\n    tag_168:\n        /* \"#utility.yul\":2945:3062   */\n    tag_167:\n        /* \"#utility.yul\":3086:3149   */\n      tag_169\n        /* \"#utility.yul\":3141:3148   */\n      dup9\n        /* \"#utility.yul\":3132:3138   */\n      dup3\n        /* \"#utility.yul\":3121:3130   */\n      dup10\n        /* \"#utility.yul\":3117:3139   */\n      add\n        /* \"#utility.yul\":3086:3149   */\n      tag_114\n      jump\t// in\n    tag_169:\n        /* \"#utility.yul\":3076:3149   */\n      swap6\n      pop\n        /* \"#utility.yul\":2872:3159   */\n      pop\n        /* \"#utility.yul\":3226:3228   */\n      0x20\n        /* \"#utility.yul\":3215:3224   */\n      dup7\n        /* \"#utility.yul\":3211:3229   */\n      add\n        /* \"#utility.yul\":3198:3230   */\n      calldataload\n        /* \"#utility.yul\":3257:3275   */\n      0xffffffffffffffff\n        /* \"#utility.yul\":3249:3255   */\n      dup2\n        /* \"#utility.yul\":3246:3276   */\n      gt\n        /* \"#utility.yul\":3243:3360   */\n      iszero\n      tag_170\n      jumpi\n        /* \"#utility.yul\":3279:3358   */\n      tag_171\n      tag_104\n      jump\t// in\n    tag_171:\n        /* \"#utility.yul\":3243:3360   */\n    tag_170:\n        /* \"#utility.yul\":3384:3447   */\n      tag_172\n        /* \"#utility.yul\":3439:3446   */\n      dup9\n        /* \"#utility.yul\":3430:3436   */\n      dup3\n        /* \"#utility.yul\":3419:3428   */\n      dup10\n        /* \"#utility.yul\":3415:3437   */\n      add\n        /* \"#utility.yul\":3384:3447   */\n      tag_114\n      jump\t// in\n    tag_172:\n        /* \"#utility.yul\":3374:3447   */\n      swap5\n      pop\n        /* \"#utility.yul\":3169:3457   */\n      pop\n        /* \"#utility.yul\":3524:3526   */\n      0x40\n        /* \"#utility.yul\":3513:3522   */\n      dup7\n        /* \"#utility.yul\":3509:3527   */\n      add\n        /* \"#utility.yul\":3496:3528   */\n      calldataload\n        /* \"#utility.yul\":3555:3573   */\n      0xffffffffffffffff\n        /* \"#utility.yul\":3547:3553   */\n      dup2\n        /* \"#utility.yul\":3544:3574   */\n      gt\n        /* \"#utility.yul\":3541:3658   */\n      iszero\n      tag_173\n      jumpi\n        /* \"#utility.yul\":3577:3656   */\n      tag_174\n      tag_104\n      jump\t// in\n    tag_174:\n        /* \"#utility.yul\":3541:3658   */\n    tag_173:\n        /* \"#utility.yul\":3682:3745   */\n      tag_175\n        /* \"#utility.yul\":3737:3744   */\n      dup9\n        /* \"#utility.yul\":3728:3734   */\n      dup3\n        /* \"#utility.yul\":3717:3726   */\n      dup10\n        /* \"#utility.yul\":3713:3735   */\n      add\n        /* \"#utility.yul\":3682:3745   */\n      tag_114\n      jump\t// in\n    tag_175:\n        /* \"#utility.yul\":3672:3745   */\n      swap4\n      pop\n        /* \"#utility.yul\":3467:3755   */\n      pop\n        /* \"#utility.yul\":3822:3824   */\n      0x60\n        /* \"#utility.yul\":3811:3820   */\n      dup7\n        /* \"#utility.yul\":3807:3825   */\n      add\n        /* \"#utility.yul\":3794:3826   */\n      calldataload\n        /* \"#utility.yul\":3853:3871   */\n      0xffffffffffffffff\n        /* \"#utility.yul\":3845:3851   */\n      dup2\n        /* \"#utility.yul\":3842:3872   */\n      gt\n        /* \"#utility.yul\":3839:3956   */\n      iszero\n      tag_176\n      jumpi\n        /* \"#utility.yul\":3875:3954   */\n      tag_177\n      tag_104\n      jump\t// in\n    tag_177:\n        /* \"#utility.yul\":3839:3956   */\n    tag_176:\n        /* \"#utility.yul\":3980:4043   */\n      tag_178\n        /* \"#utility.yul\":4035:4042   */\n      dup9\n        /* \"#utility.yul\":4026:4032   */\n      dup3\n        /* \"#utility.yul\":4015:4024   */\n      dup10\n        /* \"#utility.yul\":4011:4033   */\n      add\n        /* \"#utility.yul\":3980:4043   */\n      tag_114\n      jump\t// in\n    tag_178:\n        /* \"#utility.yul\":3970:4043   */\n      swap3\n      pop\n        /* \"#utility.yul\":3765:4053   */\n      pop\n        /* \"#utility.yul\":4120:4123   */\n      0x80\n        /* \"#utility.yul\":4109:4118   */\n      dup7\n        /* \"#utility.yul\":4105:4124   */\n      add\n        /* \"#utility.yul\":4092:4125   */\n      calldataload\n        /* \"#utility.yul\":4152:4170   */\n      0xffffffffffffffff\n        /* \"#utility.yul\":4144:4150   */\n      dup2\n        /* \"#utility.yul\":4141:4171   */\n      gt\n        /* \"#utility.yul\":4138:4255   */\n      iszero\n      tag_179\n      jumpi\n        /* \"#utility.yul\":4174:4253   */\n      tag_180\n      tag_104\n      jump\t// in\n    tag_180:\n        /* \"#utility.yul\":4138:4255   */\n    tag_179:\n        /* \"#utility.yul\":4279:4342   */\n      tag_181\n        /* \"#utility.yul\":4334:4341   */\n      dup9\n        /* \"#utility.yul\":4325:4331   */\n      dup3\n        /* \"#utility.yul\":4314:4323   */\n      dup10\n        /* \"#utility.yul\":4310:4332   */\n      add\n        /* \"#utility.yul\":4279:4342   */\n      tag_114\n      jump\t// in\n    tag_181:\n        /* \"#utility.yul\":4269:4342   */\n      swap2\n      pop\n        /* \"#utility.yul\":4063:4352   */\n      pop\n        /* \"#utility.yul\":2548:4359   */\n      swap3\n      swap6\n      pop\n      swap3\n      swap6\n      swap1\n      swap4\n      pop\n      jump\t// out\n        /* \"#utility.yul\":4365:4442   */\n    tag_115:\n        /* \"#utility.yul\":4402:4409   */\n      0x00\n        /* \"#utility.yul\":4431:4436   */\n      dup2\n        /* \"#utility.yul\":4420:4436   */\n      swap1\n      pop\n        /* \"#utility.yul\":4365:4442   */\n      swap2\n      swap1\n      pop\n      jump\t// out\n        /* \"#utility.yul\":4448:4566   */\n    tag_116:\n        /* \"#utility.yul\":4535:4559   */\n      tag_184\n        /* \"#utility.yul\":4553:4558   */\n      dup2\n        /* \"#utility.yul\":4535:4559   */\n      tag_115\n      jump\t// in\n    tag_184:\n        /* \"#utility.yul\":4530:4533   */\n      dup3\n        /* \"#utility.yul\":4523:4560   */\n      mstore\n        /* \"#utility.yul\":4448:4566   */\n      pop\n      pop\n      jump\t// out\n        /* \"#utility.yul\":4572:4794   */\n    tag_14:\n        /* \"#utility.yul\":4665:4669   */\n      0x00\n        /* \"#utility.yul\":4703:4705   */\n      0x20\n        /* \"#utility.yul\":4692:4701   */\n      dup3\n        /* \"#utility.yul\":4688:4706   */\n      add\n        /* \"#utility.yul\":4680:4706   */\n      swap1\n      pop\n        /* \"#utility.yul\":4716:4787   */\n      tag_186\n        /* \"#utility.yul\":4784:4785   */\n      0x00\n        /* \"#utility.yul\":4773:4782   */\n      dup4\n        /* \"#utility.yul\":4769:4786   */\n      add\n        /* \"#utility.yul\":4760:4766   */\n      dup5\n        /* \"#utility.yul\":4716:4787   */\n      tag_116\n      jump\t// in\n    tag_186:\n        /* \"#utility.yul\":4572:4794   */\n      swap3\n      swap2\n      pop\n      pop\n      jump\t// out\n        /* \"#utility.yul\":4800:4922   */\n    tag_117:\n        /* \"#utility.yul\":4873:4897   */\n      tag_188\n        /* \"#utility.yul\":4891:4896   */\n      dup2\n        /* \"#utility.yul\":4873:4897   */\n      tag_115\n      jump\t// in\n    tag_188:\n        /* \"#utility.yul\":4866:4871   */\n      dup2\n        /* \"#utility.yul\":4863:4898   */\n      eq\n        /* \"#utility.yul\":4853:4916   */\n      tag_189\n      jumpi\n        /* \"#utility.yul\":4912:4913   */\n      0x00\n        /* \"#utility.yul\":4909:4910   */\n      dup1\n        /* \"#utility.yul\":4902:4914   */\n      revert\n        /* \"#utility.yul\":4853:4916   */\n    tag_189:\n        /* \"#utility.yul\":4800:4922   */\n      pop\n      jump\t// out\n        /* \"#utility.yul\":4928:5067   */\n    tag_118:\n        /* \"#utility.yul\":4974:4979   */\n      0x00\n        /* \"#utility.yul\":5012:5018   */\n      dup2\n        /* \"#utility.yul\":4999:5019   */\n      calldataload\n        /* \"#utility.yul\":4990:5019   */\n      swap1\n      pop\n        /* \"#utility.yul\":5028:5061   */\n      tag_191\n        /* \"#utility.yul\":5055:5060   */\n      dup2\n        /* \"#utility.yul\":5028:5061   */\n      tag_117\n      jump\t// in\n    tag_191:\n        /* \"#utility.yul\":4928:5067   */\n      swap3\n      swap2\n      pop\n      pop\n      jump\t// out\n        /* \"#utility.yul\":5073:5402   */\n    tag_17:\n        /* \"#utility.yul\":5132:5138   */\n      0x00\n        /* \"#utility.yul\":5181:5183   */\n      0x20\n        /* \"#utility.yul\":5169:5178   */\n      dup3\n        /* \"#utility.yul\":5160:5167   */\n      dup5\n        /* \"#utility.yul\":5156:5179   */\n      sub\n        /* \"#utility.yul\":5152:5184   */\n      slt\n        /* \"#utility.yul\":5149:5268   */\n      iszero\n      tag_193\n      jumpi\n        /* \"#utility.yul\":5187:5266   */\n      tag_194\n      tag_103\n      jump\t// in\n    tag_194:\n        /* \"#utility.yul\":5149:5268   */\n    tag_193:\n        /* \"#utility.yul\":5307:5308   */\n      0x00\n        /* \"#utility.yul\":5332:5385   */\n      tag_195\n        /* \"#utility.yul\":5377:5384   */\n      dup5\n        /* \"#utility.yul\":5368:5374   */\n      dup3\n        /* \"#utility.yul\":5357:5366   */\n      dup6\n        /* \"#utility.yul\":5353:5375   */\n      add\n        /* \"#utility.yul\":5332:5385   */\n      tag_118\n      jump\t// in\n    tag_195:\n        /* \"#utility.yul\":5322:5385   */\n      swap2\n      pop\n        /* \"#utility.yul\":5278:5395   */\n      pop\n        /* \"#utility.yul\":5073:5402   */\n      swap3\n      swap2\n      pop\n      pop\n      jump\t// out\n        /* \"#utility.yul\":5408:5507   */\n    tag_119:\n        /* \"#utility.yul\":5460:5466   */\n      0x00\n        /* \"#utility.yul\":5494:5499   */\n      dup2\n        /* \"#utility.yul\":5488:5500   */\n      mload\n        /* \"#utility.yul\":5478:5500   */\n      swap1\n      pop\n        /* \"#utility.yul\":5408:5507   */\n      swap2\n      swap1\n      pop\n      jump\t// out\n        /* \"#utility.yul\":5513:5682   */\n    tag_120:\n        /* \"#utility.yul\":5597:5608   */\n      0x00\n        /* \"#utility.yul\":5631:5637   */\n      dup3\n        /* \"#utility.yul\":5626:5629   */\n      dup3\n        /* \"#utility.yul\":5619:5638   */\n      mstore\n        /* \"#utility.yul\":5671:5675   */\n      0x20\n        /* \"#utility.yul\":5666:5669   */\n      dup3\n        /* \"#utility.yul\":5662:5676   */\n      add\n        /* \"#utility.yul\":5647:5676   */\n      swap1\n      pop\n        /* \"#utility.yul\":5513:5682   */\n      swap3\n      swap2\n      pop\n      pop\n      jump\t// out\n        /* \"#utility.yul\":5688:5995   */\n    tag_121:\n        /* \"#utility.yul\":5756:5757   */\n      0x00\n        /* \"#utility.yul\":5766:5879   */\n    tag_199:\n        /* \"#utility.yul\":5780:5786   */\n      dup4\n        /* \"#utility.yul\":5777:5778   */\n      dup2\n        /* \"#utility.yul\":5774:5787   */\n      lt\n        /* \"#utility.yul\":5766:5879   */\n      iszero\n      tag_201\n      jumpi\n        /* \"#utility.yul\":5865:5866   */\n      dup1\n        /* \"#utility.yul\":5860:5863   */\n      dup3\n        /* \"#utility.yul\":5856:5867   */\n      add\n        /* \"#utility.yul\":5850:5868   */\n      mload\n        /* \"#utility.yul\":5846:5847   */\n      dup2\n        /* \"#utility.yul\":5841:5844   */\n      dup5\n        /* \"#utility.yul\":5837:5848   */\n      add\n        /* \"#utility.yul\":5830:5869   */\n      mstore\n        /* \"#utility.yul\":5802:5804   */\n      0x20\n        /* \"#utility.yul\":5799:5800   */\n      dup2\n        /* \"#utility.yul\":5795:5805   */\n      add\n        /* \"#utility.yul\":5790:5805   */\n      swap1\n      pop\n        /* \"#utility.yul\":5766:5879   */\n      jump(tag_199)\n    tag_201:\n        /* \"#utility.yul\":5897:5903   */\n      dup4\n        /* \"#utility.yul\":5894:5895   */\n      dup2\n        /* \"#utility.yul\":5891:5904   */\n      gt\n        /* \"#utility.yul\":5888:5989   */\n      iszero\n      tag_202\n      jumpi\n        /* \"#utility.yul\":5977:5978   */\n      0x00\n        /* \"#utility.yul\":5968:5974   */\n      dup5\n        /* \"#utility.yul\":5963:5966   */\n      dup5\n        /* \"#utility.yul\":5959:5975   */\n      add\n        /* \"#utility.yul\":5952:5979   */\n      mstore\n        /* \"#utility.yul\":5888:5989   */\n    tag_202:\n        /* \"#utility.yul\":5737:5995   */\n      pop\n        /* \"#utility.yul\":5688:5995   */\n      pop\n      pop\n      pop\n      jump\t// out\n        /* \"#utility.yul\":6001:6365   */\n    tag_122:\n        /* \"#utility.yul\":6089:6092   */\n      0x00\n        /* \"#utility.yul\":6117:6156   */\n      tag_204\n        /* \"#utility.yul\":6150:6155   */\n      dup3\n        /* \"#utility.yul\":6117:6156   */\n      tag_119\n      jump\t// in\n    tag_204:\n        /* \"#utility.yul\":6172:6243   */\n      tag_205\n        /* \"#utility.yul\":6236:6242   */\n      dup2\n        /* \"#utility.yul\":6231:6234   */\n      dup6\n        /* \"#utility.yul\":6172:6243   */\n      tag_120\n      jump\t// in\n    tag_205:\n        /* \"#utility.yul\":6165:6243   */\n      swap4\n      pop\n        /* \"#utility.yul\":6252:6304   */\n      tag_206\n        /* \"#utility.yul\":6297:6303   */\n      dup2\n        /* \"#utility.yul\":6292:6295   */\n      dup6\n        /* \"#utility.yul\":6285:6289   */\n      0x20\n        /* \"#utility.yul\":6278:6283   */\n      dup7\n        /* \"#utility.yul\":6274:6290   */\n      add\n        /* \"#utility.yul\":6252:6304   */\n      tag_121\n      jump\t// in\n    tag_206:\n        /* \"#utility.yul\":6329:6358   */\n      tag_207\n        /* \"#utility.yul\":6351:6357   */\n      dup2\n        /* \"#utility.yul\":6329:6358   */\n      tag_107\n      jump\t// in\n    tag_207:\n        /* \"#utility.yul\":6324:6327   */\n      dup5\n        /* \"#utility.yul\":6320:6359   */\n      add\n        /* \"#utility.yul\":6313:6359   */\n      swap2\n      pop\n        /* \"#utility.yul\":6093:6365   */\n      pop\n        /* \"#utility.yul\":6001:6365   */\n      swap3\n      swap2\n      pop\n      pop\n      jump\t// out\n        /* \"#utility.yul\":6371:7490   */\n    tag_20:\n        /* \"#utility.yul\":6676:6680   */\n      0x00\n        /* \"#utility.yul\":6714:6717   */\n      0xa0\n        /* \"#utility.yul\":6703:6712   */\n      dup3\n        /* \"#utility.yul\":6699:6718   */\n      add\n        /* \"#utility.yul\":6691:6718   */\n      swap1\n      pop\n        /* \"#utility.yul\":6764:6773   */\n      dup2\n        /* \"#utility.yul\":6758:6762   */\n      dup2\n        /* \"#utility.yul\":6754:6774   */\n      sub\n        /* \"#utility.yul\":6750:6751   */\n      0x00\n        /* \"#utility.yul\":6739:6748   */\n      dup4\n        /* \"#utility.yul\":6735:6752   */\n      add\n        /* \"#utility.yul\":6728:6775   */\n      mstore\n        /* \"#utility.yul\":6792:6870   */\n      tag_209\n        /* \"#utility.yul\":6865:6869   */\n      dup2\n        /* \"#utility.yul\":6856:6862   */\n      dup9\n        /* \"#utility.yul\":6792:6870   */\n      tag_122\n      jump\t// in\n    tag_209:\n        /* \"#utility.yul\":6784:6870   */\n      swap1\n      pop\n        /* \"#utility.yul\":6917:6926   */\n      dup2\n        /* \"#utility.yul\":6911:6915   */\n      dup2\n        /* \"#utility.yul\":6907:6927   */\n      sub\n        /* \"#utility.yul\":6902:6904   */\n      0x20\n        /* \"#utility.yul\":6891:6900   */\n      dup4\n        /* \"#utility.yul\":6887:6905   */\n      add\n        /* \"#utility.yul\":6880:6928   */\n      mstore\n        /* \"#utility.yul\":6945:7023   */\n      tag_210\n        /* \"#utility.yul\":7018:7022   */\n      dup2\n        /* \"#utility.yul\":7009:7015   */\n      dup8\n        /* \"#utility.yul\":6945:7023   */\n      tag_122\n      jump\t// in\n    tag_210:\n        /* \"#utility.yul\":6937:7023   */\n      swap1\n      pop\n        /* \"#utility.yul\":7070:7079   */\n      dup2\n        /* \"#utility.yul\":7064:7068   */\n      dup2\n        /* \"#utility.yul\":7060:7080   */\n      sub\n        /* \"#utility.yul\":7055:7057   */\n      0x40\n        /* \"#utility.yul\":7044:7053   */\n      dup4\n        /* \"#utility.yul\":7040:7058   */\n      add\n        /* \"#utility.yul\":7033:7081   */\n      mstore\n        /* \"#utility.yul\":7098:7176   */\n      tag_211\n        /* \"#utility.yul\":7171:7175   */\n      dup2\n        /* \"#utility.yul\":7162:7168   */\n      dup7\n        /* \"#utility.yul\":7098:7176   */\n      tag_122\n      jump\t// in\n    tag_211:\n        /* \"#utility.yul\":7090:7176   */\n      swap1\n      pop\n        /* \"#utility.yul\":7223:7232   */\n      dup2\n        /* \"#utility.yul\":7217:7221   */\n      dup2\n        /* \"#utility.yul\":7213:7233   */\n      sub\n        /* \"#utility.yul\":7208:7210   */\n      0x60\n        /* \"#utility.yul\":7197:7206   */\n      dup4\n        /* \"#utility.yul\":7193:7211   */\n      add\n        /* \"#utility.yul\":7186:7234   */\n      mstore\n        /* \"#utility.yul\":7251:7329   */\n      tag_212\n        /* \"#utility.yul\":7324:7328   */\n      dup2\n        /* \"#utility.yul\":7315:7321   */\n      dup6\n        /* \"#utility.yul\":7251:7329   */\n      tag_122\n      jump\t// in\n    tag_212:\n        /* \"#utility.yul\":7243:7329   */\n      swap1\n      pop\n        /* \"#utility.yul\":7377:7386   */\n      dup2\n        /* \"#utility.yul\":7371:7375   */\n      dup2\n        /* \"#utility.yul\":7367:7387   */\n      sub\n        /* \"#utility.yul\":7361:7364   */\n      0x80\n        /* \"#utility.yul\":7350:7359   */\n      dup4\n        /* \"#utility.yul\":7346:7365   */\n      add\n        /* \"#utility.yul\":7339:7388   */\n      mstore\n        /* \"#utility.yul\":7405:7483   */\n      tag_213\n        /* \"#utility.yul\":7478:7482   */\n      dup2\n        /* \"#utility.yul\":7469:7475   */\n      dup5\n        /* \"#utility.yul\":7405:7483   */\n      tag_122\n      jump\t// in\n    tag_213:\n        /* \"#utility.yul\":7397:7483   */\n      swap1\n      pop\n        /* \"#utility.yul\":6371:7490   */\n      swap7\n      swap6\n      pop\n      pop\n      pop\n      pop\n      pop\n      pop\n      jump\t// out\n        /* \"#utility.yul\":7496:7634   */\n    tag_123:\n        /* \"#utility.yul\":7587:7593   */\n      0x00\n        /* \"#utility.yul\":7621:7626   */\n      dup2\n        /* \"#utility.yul\":7615:7627   */\n      mload\n        /* \"#utility.yul\":7605:7627   */\n      swap1\n      pop\n        /* \"#utility.yul\":7496:7634   */\n      swap2\n      swap1\n      pop\n      jump\t// out\n        /* \"#utility.yul\":7640:7848   */\n    tag_124:\n        /* \"#utility.yul\":7763:7774   */\n      0x00\n        /* \"#utility.yul\":7797:7803   */\n      dup3\n        /* \"#utility.yul\":7792:7795   */\n      dup3\n        /* \"#utility.yul\":7785:7804   */\n      mstore\n        /* \"#utility.yul\":7837:7841   */\n      0x20\n        /* \"#utility.yul\":7832:7835   */\n      dup3\n        /* \"#utility.yul\":7828:7842   */\n      add\n        /* \"#utility.yul\":7813:7842   */\n      swap1\n      pop\n        /* \"#utility.yul\":7640:7848   */\n      swap3\n      swap2\n      pop\n      pop\n      jump\t// out\n        /* \"#utility.yul\":7854:8010   */\n    tag_125:\n        /* \"#utility.yul\":7945:7949   */\n      0x00\n        /* \"#utility.yul\":7968:7971   */\n      dup2\n        /* \"#utility.yul\":7960:7971   */\n      swap1\n      pop\n        /* \"#utility.yul\":7998:8002   */\n      0x20\n        /* \"#utility.yul\":7993:7996   */\n      dup3\n        /* \"#utility.yul\":7989:8003   */\n      add\n        /* \"#utility.yul\":7981:8003   */\n      swap1\n      pop\n        /* \"#utility.yul\":7854:8010   */\n      swap2\n      swap1\n      pop\n      jump\t// out\n        /* \"#utility.yul\":8016:8175   */\n    tag_126:\n        /* \"#utility.yul\":8090:8101   */\n      0x00\n        /* \"#utility.yul\":8124:8130   */\n      dup3\n        /* \"#utility.yul\":8119:8122   */\n      dup3\n        /* \"#utility.yul\":8112:8131   */\n      mstore\n        /* \"#utility.yul\":8164:8168   */\n      0x20\n        /* \"#utility.yul\":8159:8162   */\n      dup3\n        /* \"#utility.yul\":8155:8169   */\n      add\n        /* \"#utility.yul\":8140:8169   */\n      swap1\n      pop\n        /* \"#utility.yul\":8016:8175   */\n      swap3\n      swap2\n      pop\n      pop\n      jump\t// out\n        /* \"#utility.yul\":8181:8525   */\n    tag_127:\n        /* \"#utility.yul\":8259:8262   */\n      0x00\n        /* \"#utility.yul\":8287:8326   */\n      tag_219\n        /* \"#utility.yul\":8320:8325   */\n      dup3\n        /* \"#utility.yul\":8287:8326   */\n      tag_119\n      jump\t// in\n    tag_219:\n        /* \"#utility.yul\":8342:8403   */\n      tag_220\n        /* \"#utility.yul\":8396:8402   */\n      dup2\n        /* \"#utility.yul\":8391:8394   */\n      dup6\n        /* \"#utility.yul\":8342:8403   */\n      tag_126\n      jump\t// in\n    tag_220:\n        /* \"#utility.yul\":8335:8403   */\n      swap4\n      pop\n        /* \"#utility.yul\":8412:8464   */\n      tag_221\n        /* \"#utility.yul\":8457:8463   */\n      dup2\n        /* \"#utility.yul\":8452:8455   */\n      dup6\n        /* \"#utility.yul\":8445:8449   */\n      0x20\n        /* \"#utility.yul\":8438:8443   */\n      dup7\n        /* \"#utility.yul\":8434:8450   */\n      add\n        /* \"#utility.yul\":8412:8464   */\n      tag_121\n      jump\t// in\n    tag_221:\n        /* \"#utility.yul\":8489:8518   */\n      tag_222\n        /* \"#utility.yul\":8511:8517   */\n      dup2\n        /* \"#utility.yul\":8489:8518   */\n      tag_107\n      jump\t// in\n    tag_222:\n        /* \"#utility.yul\":8484:8487   */\n      dup5\n        /* \"#utility.yul\":8480:8519   */\n      add\n        /* \"#utility.yul\":8473:8519   */\n      swap2\n      pop\n        /* \"#utility.yul\":8263:8525   */\n      pop\n        /* \"#utility.yul\":8181:8525   */\n      swap3\n      swap2\n      pop\n      pop\n      jump\t// out\n        /* \"#utility.yul\":8601:10021   */\n    tag_128:\n        /* \"#utility.yul\":8708:8711   */\n      0x00\n        /* \"#utility.yul\":8744:8748   */\n      0xa0\n        /* \"#utility.yul\":8739:8742   */\n      dup4\n        /* \"#utility.yul\":8735:8749   */\n      add\n        /* \"#utility.yul\":8838:8842   */\n      0x00\n        /* \"#utility.yul\":8831:8836   */\n      dup4\n        /* \"#utility.yul\":8827:8843   */\n      add\n        /* \"#utility.yul\":8821:8844   */\n      mload\n        /* \"#utility.yul\":8891:8894   */\n      dup5\n        /* \"#utility.yul\":8885:8889   */\n      dup3\n        /* \"#utility.yul\":8881:8895   */\n      sub\n        /* \"#utility.yul\":8874:8878   */\n      0x00\n        /* \"#utility.yul\":8869:8872   */\n      dup7\n        /* \"#utility.yul\":8865:8879   */\n      add\n        /* \"#utility.yul\":8858:8896   */\n      mstore\n        /* \"#utility.yul\":8917:8990   */\n      tag_224\n        /* \"#utility.yul\":8985:8989   */\n      dup3\n        /* \"#utility.yul\":8971:8983   */\n      dup3\n        /* \"#utility.yul\":8917:8990   */\n      tag_127\n      jump\t// in\n    tag_224:\n        /* \"#utility.yul\":8909:8990   */\n      swap2\n      pop\n        /* \"#utility.yul\":8759:9001   */\n      pop\n        /* \"#utility.yul\":9090:9094   */\n      0x20\n        /* \"#utility.yul\":9083:9088   */\n      dup4\n        /* \"#utility.yul\":9079:9095   */\n      add\n        /* \"#utility.yul\":9073:9096   */\n      mload\n        /* \"#utility.yul\":9143:9146   */\n      dup5\n        /* \"#utility.yul\":9137:9141   */\n      dup3\n        /* \"#utility.yul\":9133:9147   */\n      sub\n        /* \"#utility.yul\":9126:9130   */\n      0x20\n        /* \"#utility.yul\":9121:9124   */\n      dup7\n        /* \"#utility.yul\":9117:9131   */\n      add\n        /* \"#utility.yul\":9110:9148   */\n      mstore\n        /* \"#utility.yul\":9169:9242   */\n      tag_225\n        /* \"#utility.yul\":9237:9241   */\n      dup3\n        /* \"#utility.yul\":9223:9235   */\n      dup3\n        /* \"#utility.yul\":9169:9242   */\n      tag_127\n      jump\t// in\n    tag_225:\n        /* \"#utility.yul\":9161:9242   */\n      swap2\n      pop\n        /* \"#utility.yul\":9011:9253   */\n      pop\n        /* \"#utility.yul\":9335:9339   */\n      0x40\n        /* \"#utility.yul\":9328:9333   */\n      dup4\n        /* \"#utility.yul\":9324:9340   */\n      add\n        /* \"#utility.yul\":9318:9341   */\n      mload\n        /* \"#utility.yul\":9388:9391   */\n      dup5\n        /* \"#utility.yul\":9382:9386   */\n      dup3\n        /* \"#utility.yul\":9378:9392   */\n      sub\n        /* \"#utility.yul\":9371:9375   */\n      0x40\n        /* \"#utility.yul\":9366:9369   */\n      dup7\n        /* \"#utility.yul\":9362:9376   */\n      add\n        /* \"#utility.yul\":9355:9393   */\n      mstore\n        /* \"#utility.yul\":9414:9487   */\n      tag_226\n        /* \"#utility.yul\":9482:9486   */\n      dup3\n        /* \"#utility.yul\":9468:9480   */\n      dup3\n        /* \"#utility.yul\":9414:9487   */\n      tag_127\n      jump\t// in\n    tag_226:\n        /* \"#utility.yul\":9406:9487   */\n      swap2\n      pop\n        /* \"#utility.yul\":9263:9498   */\n      pop\n        /* \"#utility.yul\":9584:9588   */\n      0x60\n        /* \"#utility.yul\":9577:9582   */\n      dup4\n        /* \"#utility.yul\":9573:9589   */\n      add\n        /* \"#utility.yul\":9567:9590   */\n      mload\n        /* \"#utility.yul\":9637:9640   */\n      dup5\n        /* \"#utility.yul\":9631:9635   */\n      dup3\n        /* \"#utility.yul\":9627:9641   */\n      sub\n        /* \"#utility.yul\":9620:9624   */\n      0x60\n        /* \"#utility.yul\":9615:9618   */\n      dup7\n        /* \"#utility.yul\":9611:9625   */\n      add\n        /* \"#utility.yul\":9604:9642   */\n      mstore\n        /* \"#utility.yul\":9663:9736   */\n      tag_227\n        /* \"#utility.yul\":9731:9735   */\n      dup3\n        /* \"#utility.yul\":9717:9729   */\n      dup3\n        /* \"#utility.yul\":9663:9736   */\n      tag_127\n      jump\t// in\n    tag_227:\n        /* \"#utility.yul\":9655:9736   */\n      swap2\n      pop\n        /* \"#utility.yul\":9508:9747   */\n      pop\n        /* \"#utility.yul\":9831:9835   */\n      0x80\n        /* \"#utility.yul\":9824:9829   */\n      dup4\n        /* \"#utility.yul\":9820:9836   */\n      add\n        /* \"#utility.yul\":9814:9837   */\n      mload\n        /* \"#utility.yul\":9884:9887   */\n      dup5\n        /* \"#utility.yul\":9878:9882   */\n      dup3\n        /* \"#utility.yul\":9874:9888   */\n      sub\n        /* \"#utility.yul\":9867:9871   */\n      0x80\n        /* \"#utility.yul\":9862:9865   */\n      dup7\n        /* \"#utility.yul\":9858:9872   */\n      add\n        /* \"#utility.yul\":9851:9889   */\n      mstore\n        /* \"#utility.yul\":9910:9983   */\n      tag_228\n        /* \"#utility.yul\":9978:9982   */\n      dup3\n        /* \"#utility.yul\":9964:9976   */\n      dup3\n        /* \"#utility.yul\":9910:9983   */\n      tag_127\n      jump\t// in\n    tag_228:\n        /* \"#utility.yul\":9902:9983   */\n      swap2\n      pop\n        /* \"#utility.yul\":9757:9994   */\n      pop\n        /* \"#utility.yul\":10011:10015   */\n      dup1\n        /* \"#utility.yul\":10004:10015   */\n      swap2\n      pop\n        /* \"#utility.yul\":8713:10021   */\n      pop\n        /* \"#utility.yul\":8601:10021   */\n      swap3\n      swap2\n      pop\n      pop\n      jump\t// out\n        /* \"#utility.yul\":10027:10279   */\n    tag_129:\n        /* \"#utility.yul\":10144:10154   */\n      0x00\n        /* \"#utility.yul\":10179:10273   */\n      tag_230\n        /* \"#utility.yul\":10269:10272   */\n      dup4\n        /* \"#utility.yul\":10261:10267   */\n      dup4\n        /* \"#utility.yul\":10179:10273   */\n      tag_128\n      jump\t// in\n    tag_230:\n        /* \"#utility.yul\":10165:10273   */\n      swap1\n      pop\n        /* \"#utility.yul\":10027:10279   */\n      swap3\n      swap2\n      pop\n      pop\n      jump\t// out\n        /* \"#utility.yul\":10285:10422   */\n    tag_130:\n        /* \"#utility.yul\":10379:10383   */\n      0x00\n        /* \"#utility.yul\":10411:10415   */\n      0x20\n        /* \"#utility.yul\":10406:10409   */\n      dup3\n        /* \"#utility.yul\":10402:10416   */\n      add\n        /* \"#utility.yul\":10394:10416   */\n      swap1\n      pop\n        /* \"#utility.yul\":10285:10422   */\n      swap2\n      swap1\n      pop\n      jump\t// out\n        /* \"#utility.yul\":10502:11605   */\n    tag_131:\n        /* \"#utility.yul\":10669:10672   */\n      0x00\n        /* \"#utility.yul\":10698:10776   */\n      tag_233\n        /* \"#utility.yul\":10770:10775   */\n      dup3\n        /* \"#utility.yul\":10698:10776   */\n      tag_123\n      jump\t// in\n    tag_233:\n        /* \"#utility.yul\":10792:10902   */\n      tag_234\n        /* \"#utility.yul\":10895:10901   */\n      dup2\n        /* \"#utility.yul\":10890:10893   */\n      dup6\n        /* \"#utility.yul\":10792:10902   */\n      tag_124\n      jump\t// in\n    tag_234:\n        /* \"#utility.yul\":10785:10902   */\n      swap4\n      pop\n        /* \"#utility.yul\":10928:10931   */\n      dup4\n        /* \"#utility.yul\":10973:10977   */\n      0x20\n        /* \"#utility.yul\":10965:10971   */\n      dup3\n        /* \"#utility.yul\":10961:10978   */\n      mul\n        /* \"#utility.yul\":10956:10959   */\n      dup6\n        /* \"#utility.yul\":10952:10979   */\n      add\n        /* \"#utility.yul\":11003:11083   */\n      tag_235\n        /* \"#utility.yul\":11077:11082   */\n      dup6\n        /* \"#utility.yul\":11003:11083   */\n      tag_125\n      jump\t// in\n    tag_235:\n        /* \"#utility.yul\":11106:11113   */\n      dup1\n        /* \"#utility.yul\":11137:11138   */\n      0x00\n        /* \"#utility.yul\":11122:11560   */\n    tag_236:\n        /* \"#utility.yul\":11147:11153   */\n      dup6\n        /* \"#utility.yul\":11144:11145   */\n      dup2\n        /* \"#utility.yul\":11141:11154   */\n      lt\n        /* \"#utility.yul\":11122:11560   */\n      iszero\n      tag_238\n      jumpi\n        /* \"#utility.yul\":11218:11227   */\n      dup5\n        /* \"#utility.yul\":11212:11216   */\n      dup5\n        /* \"#utility.yul\":11208:11228   */\n      sub\n        /* \"#utility.yul\":11203:11206   */\n      dup10\n        /* \"#utility.yul\":11196:11229   */\n      mstore\n        /* \"#utility.yul\":11269:11275   */\n      dup2\n        /* \"#utility.yul\":11263:11276   */\n      mload\n        /* \"#utility.yul\":11297:11409   */\n      tag_239\n        /* \"#utility.yul\":11404:11408   */\n      dup6\n        /* \"#utility.yul\":11389:11402   */\n      dup3\n        /* \"#utility.yul\":11297:11409   */\n      tag_129\n      jump\t// in\n    tag_239:\n        /* \"#utility.yul\":11289:11409   */\n      swap5\n      pop\n        /* \"#utility.yul\":11432:11516   */\n      tag_240\n        /* \"#utility.yul\":11509:11515   */\n      dup4\n        /* \"#utility.yul\":11432:11516   */\n      tag_130\n      jump\t// in\n    tag_240:\n        /* \"#utility.yul\":11422:11516   */\n      swap3\n      pop\n        /* \"#utility.yul\":11545:11549   */\n      0x20\n        /* \"#utility.yul\":11540:11543   */\n      dup11\n        /* \"#utility.yul\":11536:11550   */\n      add\n        /* \"#utility.yul\":11529:11550   */\n      swap10\n      pop\n        /* \"#utility.yul\":11182:11560   */\n      pop\n        /* \"#utility.yul\":11169:11170   */\n      0x01\n        /* \"#utility.yul\":11166:11167   */\n      dup2\n        /* \"#utility.yul\":11162:11171   */\n      add\n        /* \"#utility.yul\":11157:11171   */\n      swap1\n      pop\n        /* \"#utility.yul\":11122:11560   */\n      jump(tag_236)\n    tag_238:\n        /* \"#utility.yul\":11126:11140   */\n      pop\n        /* \"#utility.yul\":11576:11580   */\n      dup3\n        /* \"#utility.yul\":11569:11580   */\n      swap8\n      pop\n        /* \"#utility.yul\":11596:11599   */\n      dup8\n        /* \"#utility.yul\":11589:11599   */\n      swap6\n      pop\n        /* \"#utility.yul\":10674:11605   */\n      pop\n      pop\n      pop\n      pop\n      pop\n        /* \"#utility.yul\":10502:11605   */\n      swap3\n      swap2\n      pop\n      pop\n      jump\t// out\n        /* \"#utility.yul\":11611:12080   */\n    tag_24:\n        /* \"#utility.yul\":11802:11806   */\n      0x00\n        /* \"#utility.yul\":11840:11842   */\n      0x20\n        /* \"#utility.yul\":11829:11838   */\n      dup3\n        /* \"#utility.yul\":11825:11843   */\n      add\n        /* \"#utility.yul\":11817:11843   */\n      swap1\n      pop\n        /* \"#utility.yul\":11889:11898   */\n      dup2\n        /* \"#utility.yul\":11883:11887   */\n      dup2\n        /* \"#utility.yul\":11879:11899   */\n      sub\n        /* \"#utility.yul\":11875:11876   */\n      0x00\n        /* \"#utility.yul\":11864:11873   */\n      dup4\n        /* \"#utility.yul\":11860:11877   */\n      add\n        /* \"#utility.yul\":11853:11900   */\n      mstore\n        /* \"#utility.yul\":11917:12073   */\n      tag_242\n        /* \"#utility.yul\":12068:12072   */\n      dup2\n        /* \"#utility.yul\":12059:12065   */\n      dup5\n        /* \"#utility.yul\":11917:12073   */\n      tag_131\n      jump\t// in\n    tag_242:\n        /* \"#utility.yul\":11909:12073   */\n      swap1\n      pop\n        /* \"#utility.yul\":11611:12080   */\n      swap3\n      swap2\n      pop\n      pop\n      jump\t// out\n        /* \"#utility.yul\":12086:12266   */\n    tag_132:\n        /* \"#utility.yul\":12134:12211   */\n      0x4e487b7100000000000000000000000000000000000000000000000000000000\n        /* \"#utility.yul\":12131:12132   */\n      0x00\n        /* \"#utility.yul\":12124:12212   */\n      mstore\n        /* \"#utility.yul\":12231:12235   */\n      0x11\n        /* \"#utility.yul\":12228:12229   */\n      0x04\n        /* \"#utility.yul\":12221:12236   */\n      mstore\n        /* \"#utility.yul\":12255:12259   */\n      0x24\n        /* \"#utility.yul\":12252:12253   */\n      0x00\n        /* \"#utility.yul\":12245:12260   */\n      revert\n        /* \"#utility.yul\":12272:12505   */\n    tag_34:\n        /* \"#utility.yul\":12311:12314   */\n      0x00\n        /* \"#utility.yul\":12334:12358   */\n      tag_245\n        /* \"#utility.yul\":12352:12357   */\n      dup3\n        /* \"#utility.yul\":12334:12358   */\n      tag_115\n      jump\t// in\n    tag_245:\n        /* \"#utility.yul\":12325:12358   */\n      swap2\n      pop\n        /* \"#utility.yul\":12380:12446   */\n      0xffffffffffffffffffffffffffffffffffffffffffffffffffffffffffffffff\n        /* \"#utility.yul\":12373:12378   */\n      dup3\n        /* \"#utility.yul\":12370:12447   */\n      eq\n        /* \"#utility.yul\":12367:12470   */\n      iszero\n      tag_246\n      jumpi\n        /* \"#utility.yul\":12450:12468   */\n      tag_247\n      tag_132\n      jump\t// in\n    tag_247:\n        /* \"#utility.yul\":12367:12470   */\n    tag_246:\n        /* \"#utility.yul\":12497:12498   */\n      0x01\n        /* \"#utility.yul\":12490:12495   */\n      dup3\n        /* \"#utility.yul\":12486:12499   */\n      add\n        /* \"#utility.yul\":12479:12499   */\n      swap1\n      pop\n        /* \"#utility.yul\":12272:12505   */\n      swap2\n      swap1\n      pop\n      jump\t// out\n        /* \"#utility.yul\":12511:12691   */\n    tag_133:\n        /* \"#utility.yul\":12559:12636   */\n      0x4e487b7100000000000000000000000000000000000000000000000000000000\n        /* \"#utility.yul\":12556:12557   */\n      0x00\n        /* \"#utility.yul\":12549:12637   */\n      mstore\n        /* \"#utility.yul\":12656:12660   */\n      0x22\n        /* \"#utility.yul\":12653:12654   */\n      0x04\n        /* \"#utility.yul\":12646:12661   */\n      mstore\n        /* \"#utility.yul\":12680:12684   */\n      0x24\n        /* \"#utility.yul\":12677:12678   */\n      0x00\n        /* \"#utility.yul\":12670:12685   */\n      revert\n        /* \"#utility.yul\":12697:13017   */\n    tag_38:\n        /* \"#utility.yul\":12741:12747   */\n      0x00\n        /* \"#utility.yul\":12778:12779   */\n      0x02\n        /* \"#utility.yul\":12772:12776   */\n      dup3\n        /* \"#utility.yul\":12768:12780   */\n      div\n        /* \"#utility.yul\":12758:12780   */\n      swap1\n      pop\n        /* \"#utility.yul\":12825:12826   */\n      0x01\n        /* \"#utility.yul\":12819:12823   */\n      dup3\n        /* \"#utility.yul\":12815:12827   */\n      and\n        /* \"#utility.yul\":12846:12864   */\n      dup1\n        /* \"#utility.yul\":12836:12917   */\n      tag_250\n      jumpi\n        /* \"#utility.yul\":12902:12906   */\n      0x7f\n        /* \"#utility.yul\":12894:12900   */\n      dup3\n        /* \"#utility.yul\":12890:12907   */\n      and\n        /* \"#utility.yul\":12880:12907   */\n      swap2\n      pop\n        /* \"#utility.yul\":12836:12917   */\n    tag_250:\n        /* \"#utility.yul\":12964:12966   */\n      0x20\n        /* \"#utility.yul\":12956:12962   */\n      dup3\n        /* \"#utility.yul\":12953:12967   */\n      lt\n        /* \"#utility.yul\":12933:12951   */\n      dup2\n        /* \"#utility.yul\":12930:12968   */\n      eq\n        /* \"#utility.yul\":12927:13011   */\n      iszero\n      tag_251\n      jumpi\n        /* \"#utility.yul\":12983:13001   */\n      tag_252\n      tag_133\n      jump\t// in\n    tag_252:\n        /* \"#utility.yul\":12927:13011   */\n    tag_251:\n        /* \"#utility.yul\":12748:13017   */\n      pop\n        /* \"#utility.yul\":12697:13017   */\n      swap2\n      swap1\n      pop\n      jump\t// out\n\n    auxdata: 0xa264697066735822122079a405553adedf395cd52c467164e4985cf7d6100faca5b9d4ed3e7884de65f864736f6c63430008090033\n}\n","bytecode":{"linkReferences":{},"object":"6080604052600060015534801561001557600080fd5b50610f72806100256000396000f3fe608060405234801561001057600080fd5b506004361061004c5760003560e01c80630ccfcb66146100515780632826f6a51461006d5780634bd811751461008b578063ff782542146100bf575b600080fd5b61006b60048036038101906100669190610a11565b6100dd565b005b6100756101e7565b6040516100829190610b31565b60405180910390f35b6100a560048036038101906100a09190610b78565b6101ed565b6040516100b6959493929190610c2d565b60405180910390f35b6100c76104db565b6040516100d49190610e41565b60405180910390f35b60006040518060a0016040528087815260200186815260200185815260200184815260200183815250905060008190806001815401808255809150506001900390600052602060002090600502016000909190919091506000820151816000019080519060200190610150929190610814565b50602082015181600101908051906020019061016d929190610814565b50604082015181600201908051906020019061018a929190610814565b5060608201518160030190805190602001906101a7929190610814565b5060808201518160040190805190602001906101c4929190610814565b505050600160008154809291906101da90610e92565b9190505550505050505050565b60015481565b600081815481106101fd57600080fd5b906000526020600020906005020160009150905080600001805461022090610f0a565b80601f016020809104026020016040519081016040528092919081815260200182805461024c90610f0a565b80156102995780601f1061026e57610100808354040283529160200191610299565b820191906000526020600020905b81548152906001019060200180831161027c57829003601f168201915b5050505050908060010180546102ae90610f0a565b80601f01602080910402602001604051908101604052809291908181526020018280546102da90610f0a565b80156103275780601f106102fc57610100808354040283529160200191610327565b820191906000526020600020905b81548152906001019060200180831161030a57829003601f168201915b50505050509080600201805461033c90610f0a565b80601f016020809104026020016040519081016040528092919081815260200182805461036890610f0a565b80156103b55780601f1061038a576101008083540402835291602001916103b5565b820191906000526020600020905b81548152906001019060200180831161039857829003601f168201915b5050505050908060030180546103ca90610f0a565b80601f01602080910402602001604051908101604052809291908181526020018280546103f690610f0a565b80156104435780601f1061041857610100808354040283529160200191610443565b820191906000526020600020905b81548152906001019060200180831161042657829003601f168201915b50505050509080600401805461045890610f0a565b80601f016020809104026020016040519081016040528092919081815260200182805461048490610f0a565b80156104d15780601f106104a6576101008083540402835291602001916104d1565b820191906000526020600020905b8154815290600101906020018083116104b457829003601f168201915b5050505050905085565b60606000805480602002602001604051908101604052809291908181526020016000905b8282101561080b57838290600052602060002090600502016040518060a001604052908160008201805461053290610f0a565b80601f016020809104026020016040519081016040528092919081815260200182805461055e90610f0a565b80156105ab5780601f10610580576101008083540402835291602001916105ab565b820191906000526020600020905b81548152906001019060200180831161058e57829003601f168201915b505050505081526020016001820180546105c490610f0a565b80601f01602080910402602001604051908101604052809291908181526020018280546105f090610f0a565b801561063d5780601f106106125761010080835404028352916020019161063d565b820191906000526020600020905b81548152906001019060200180831161062057829003601f168201915b5050505050815260200160028201805461065690610f0a565b80601f016020809104026020016040519081016040528092919081815260200182805461068290610f0a565b80156106cf5780601f106106a4576101008083540402835291602001916106cf565b820191906000526020600020905b8154815290600101906020018083116106b257829003601f168201915b505050505081526020016003820180546106e890610f0a565b80601f016020809104026020016040519081016040528092919081815260200182805461071490610f0a565b80156107615780601f1061073657610100808354040283529160200191610761565b820191906000526020600020905b81548152906001019060200180831161074457829003601f168201915b5050505050815260200160048201805461077a90610f0a565b80601f01602080910402602001604051908101604052809291908181526020018280546107a690610f0a565b80156107f35780601f106107c8576101008083540402835291602001916107f3565b820191906000526020600020905b8154815290600101906020018083116107d657829003601f168201915b505050505081525050815260200190600101906104ff565b50505050905090565b82805461082090610f0a565b90600052602060002090601f0160209004810192826108425760008555610889565b82601f1061085b57805160ff1916838001178555610889565b82800160010185558215610889579182015b8281111561088857825182559160200191906001019061086d565b5b509050610896919061089a565b5090565b5b808211156108b357600081600090555060010161089b565b5090565b6000604051905090565b600080fd5b600080fd5b600080fd5b600080fd5b6000601f19601f8301169050919050565b7f4e487b7100000000000000000000000000000000000000000000000000000000600052604160045260246000fd5b61091e826108d5565b810181811067ffffffffffffffff8211171561093d5761093c6108e6565b5b80604052505050565b60006109506108b7565b905061095c8282610915565b919050565b600067ffffffffffffffff82111561097c5761097b6108e6565b5b610985826108d5565b9050602081019050919050565b82818337600083830152505050565b60006109b46109af84610961565b610946565b9050828152602081018484840111156109d0576109cf6108d0565b5b6109db848285610992565b509392505050565b600082601f8301126109f8576109f76108cb565b5b8135610a088482602086016109a1565b91505092915050565b600080600080600060a08688031215610a2d57610a2c6108c1565b5b600086013567ffffffffffffffff811115610a4b57610a4a6108c6565b5b610a57888289016109e3565b955050602086013567ffffffffffffffff811115610a7857610a776108c6565b5b610a84888289016109e3565b945050604086013567ffffffffffffffff811115610aa557610aa46108c6565b5b610ab1888289016109e3565b935050606086013567ffffffffffffffff811115610ad257610ad16108c6565b5b610ade888289016109e3565b925050608086013567ffffffffffffffff811115610aff57610afe6108c6565b5b610b0b888289016109e3565b9150509295509295909350565b6000819050919050565b610b2b81610b18565b82525050565b6000602082019050610b466000830184610b22565b92915050565b610b5581610b18565b8114610b6057600080fd5b50565b600081359050610b7281610b4c565b92915050565b600060208284031215610b8e57610b8d6108c1565b5b6000610b9c84828501610b63565b91505092915050565b600081519050919050565b600082825260208201905092915050565b60005b83811015610bdf578082015181840152602081019050610bc4565b83811115610bee576000848401525b50505050565b6000610bff82610ba5565b610c098185610bb0565b9350610c19818560208601610bc1565b610c22816108d5565b840191505092915050565b600060a0820190508181036000830152610c478188610bf4565b90508181036020830152610c5b8187610bf4565b90508181036040830152610c6f8186610bf4565b90508181036060830152610c838185610bf4565b90508181036080830152610c978184610bf4565b90509695505050505050565b600081519050919050565b600082825260208201905092915050565b6000819050602082019050919050565b600082825260208201905092915050565b6000610ceb82610ba5565b610cf58185610ccf565b9350610d05818560208601610bc1565b610d0e816108d5565b840191505092915050565b600060a0830160008301518482036000860152610d368282610ce0565b91505060208301518482036020860152610d508282610ce0565b91505060408301518482036040860152610d6a8282610ce0565b91505060608301518482036060860152610d848282610ce0565b91505060808301518482036080860152610d9e8282610ce0565b9150508091505092915050565b6000610db78383610d19565b905092915050565b6000602082019050919050565b6000610dd782610ca3565b610de18185610cae565b935083602082028501610df385610cbf565b8060005b85811015610e2f5784840389528151610e108582610dab565b9450610e1b83610dbf565b925060208a01995050600181019050610df7565b50829750879550505050505092915050565b60006020820190508181036000830152610e5b8184610dcc565b905092915050565b7f4e487b7100000000000000000000000000000000000000000000000000000000600052601160045260246000fd5b6000610e9d82610b18565b91507fffffffffffffffffffffffffffffffffffffffffffffffffffffffffffffffff821415610ed057610ecf610e63565b5b600182019050919050565b7f4e487b7100000000000000000000000000000000000000000000000000000000600052602260045260246000fd5b60006002820490506001821680610f2257607f821691505b60208210811415610f3657610f35610edb565b5b5091905056fea264697066735822122079a405553adedf395cd52c467164e4985cf7d6100faca5b9d4ed3e7884de65f864736f6c63430008090033","opcodes":"PUSH1 0x80 PUSH1 0x40 MSTORE PUSH1 0x0 PUSH1 0x1 SSTORE CALLVALUE DUP1 ISZERO PUSH2 0x15 JUMPI PUSH1 0x0 DUP1 REVERT JUMPDEST POP PUSH2 0xF72 DUP1 PUSH2 0x25 PUSH1 0x0 CODECOPY PUSH1 0x0 RETURN INVALID PUSH1 0x80 PUSH1 0x40 MSTORE CALLVALUE DUP1 ISZERO PUSH2 0x10 JUMPI PUSH1 0x0 DUP1 REVERT JUMPDEST POP PUSH1 0x4 CALLDATASIZE LT PUSH2 0x4C JUMPI PUSH1 0x0 CALLDATALOAD PUSH1 0xE0 SHR DUP1 PUSH4 0xCCFCB66 EQ PUSH2 0x51 JUMPI DUP1 PUSH4 0x2826F6A5 EQ PUSH2 0x6D JUMPI DUP1 PUSH4 0x4BD81175 EQ PUSH2 0x8B JUMPI DUP1 PUSH4 0xFF782542 EQ PUSH2 0xBF JUMPI JUMPDEST PUSH1 0x0 DUP1 REVERT JUMPDEST PUSH2 0x6B PUSH1 0x4 DUP1 CALLDATASIZE SUB DUP2 ADD SWAP1 PUSH2 0x66 SWAP2 SWAP1 PUSH2 0xA11 JUMP JUMPDEST PUSH2 0xDD JUMP JUMPDEST STOP JUMPDEST PUSH2 0x75 PUSH2 0x1E7 JUMP JUMPDEST PUSH1 0x40 MLOAD PUSH2 0x82 SWAP2 SWAP1 PUSH2 0xB31 JUMP JUMPDEST PUSH1 0x40 MLOAD DUP1 SWAP2 SUB SWAP1 RETURN JUMPDEST PUSH2 0xA5 PUSH1 0x4 DUP1 CALLDATASIZE SUB DUP2 ADD SWAP1 PUSH2 0xA0 SWAP2 SWAP1 PUSH2 0xB78 JUMP JUMPDEST PUSH2 0x1ED JUMP JUMPDEST PUSH1 0x40 MLOAD PUSH2 0xB6 SWAP6 SWAP5 SWAP4 SWAP3 SWAP2 SWAP1 PUSH2 0xC2D JUMP JUMPDEST PUSH1 0x40 MLOAD DUP1 SWAP2 SUB SWAP1 RETURN JUMPDEST PUSH2 0xC7 PUSH2 0x4DB JUMP JUMPDEST PUSH1 0x40 MLOAD PUSH2 0xD4 SWAP2 SWAP1 PUSH2 0xE41 JUMP JUMPDEST PUSH1 0x40 MLOAD DUP1 SWAP2 SUB SWAP1 RETURN JUMPDEST PUSH1 0x0 PUSH1 0x40 MLOAD DUP1 PUSH1 0xA0 ADD PUSH1 0x40 MSTORE DUP1 DUP8 DUP2 MSTORE PUSH1 0x20 ADD DUP7 DUP2 MSTORE PUSH1 0x20 ADD DUP6 DUP2 MSTORE PUSH1 0x20 ADD DUP5 DUP2 MSTORE PUSH1 0x20 ADD DUP4 DUP2 MSTORE POP SWAP1 POP PUSH1 0x0 DUP2 SWAP1 DUP1 PUSH1 0x1 DUP2 SLOAD ADD DUP1 DUP3 SSTORE DUP1 SWAP2 POP POP PUSH1 0x1 SWAP1 SUB SWAP1 PUSH1 0x0 MSTORE PUSH1 0x20 PUSH1 0x0 KECCAK256 SWAP1 PUSH1 0x5 MUL ADD PUSH1 0x0 SWAP1 SWAP2 SWAP1 SWAP2 SWAP1 SWAP2 POP PUSH1 0x0 DUP3 ADD MLOAD DUP2 PUSH1 0x0 ADD SWAP1 DUP1 MLOAD SWAP1 PUSH1 0x20 ADD SWAP1 PUSH2 0x150 SWAP3 SWAP2 SWAP1 PUSH2 0x814 JUMP JUMPDEST POP PUSH1 0x20 DUP3 ADD MLOAD DUP2 PUSH1 0x1 ADD SWAP1 DUP1 MLOAD SWAP1 PUSH1 0x20 ADD SWAP1 PUSH2 0x16D SWAP3 SWAP2 SWAP1 PUSH2 0x814 JUMP JUMPDEST POP PUSH1 0x40 DUP3 ADD MLOAD DUP2 PUSH1 0x2 ADD SWAP1 DUP1 MLOAD SWAP1 PUSH1 0x20 ADD SWAP1 PUSH2 0x18A SWAP3 SWAP2 SWAP1 PUSH2 0x814 JUMP JUMPDEST POP PUSH1 0x60 DUP3 ADD MLOAD DUP2 PUSH1 0x3 ADD SWAP1 DUP1 MLOAD SWAP1 PUSH1 0x20 ADD SWAP1 PUSH2 0x1A7 SWAP3 SWAP2 SWAP1 PUSH2 0x814 JUMP JUMPDEST POP PUSH1 0x80 DUP3 ADD MLOAD DUP2 PUSH1 0x4 ADD SWAP1 DUP1 MLOAD SWAP1 PUSH1 0x20 ADD SWAP1 PUSH2 0x1C4 SWAP3 SWAP2 SWAP1 PUSH2 0x814 JUMP JUMPDEST POP POP POP PUSH1 0x1 PUSH1 0x0 DUP2 SLOAD DUP1 SWAP3 SWAP2 SWAP1 PUSH2 0x1DA SWAP1 PUSH2 0xE92 JUMP JUMPDEST SWAP2 SWAP1 POP SSTORE POP POP POP POP POP POP POP JUMP JUMPDEST PUSH1 0x1 SLOAD DUP2 JUMP JUMPDEST PUSH1 0x0 DUP2 DUP2 SLOAD DUP2 LT PUSH2 0x1FD JUMPI PUSH1 0x0 DUP1 REVERT JUMPDEST SWAP1 PUSH1 0x0 MSTORE PUSH1 0x20 PUSH1 0x0 KECCAK256 SWAP1 PUSH1 0x5 MUL ADD PUSH1 0x0 SWAP2 POP SWAP1 POP DUP1 PUSH1 0x0 ADD DUP1 SLOAD PUSH2 0x220 SWAP1 PUSH2 0xF0A JUMP JUMPDEST DUP1 PUSH1 0x1F ADD PUSH1 0x20 DUP1 SWAP2 DIV MUL PUSH1 0x20 ADD PUSH1 0x40 MLOAD SWAP1 DUP2 ADD PUSH1 0x40 MSTORE DUP1 SWAP3 SWAP2 SWAP1 DUP2 DUP2 MSTORE PUSH1 0x20 ADD DUP3 DUP1 SLOAD PUSH2 0x24C SWAP1 PUSH2 0xF0A JUMP JUMPDEST DUP1 ISZERO PUSH2 0x299 JUMPI DUP1 PUSH1 0x1F LT PUSH2 0x26E JUMPI PUSH2 0x100 DUP1 DUP4 SLOAD DIV MUL DUP4 MSTORE SWAP2 PUSH1 0x20 ADD SWAP2 PUSH2 0x299 JUMP JUMPDEST DUP3 ADD SWAP2 SWAP1 PUSH1 0x0 MSTORE PUSH1 0x20 PUSH1 0x0 KECCAK256 SWAP1 JUMPDEST DUP2 SLOAD DUP2 MSTORE SWAP1 PUSH1 0x1 ADD SWAP1 PUSH1 0x20 ADD DUP1 DUP4 GT PUSH2 0x27C JUMPI DUP3 SWAP1 SUB PUSH1 0x1F AND DUP3 ADD SWAP2 JUMPDEST POP POP POP POP POP SWAP1 DUP1 PUSH1 0x1 ADD DUP1 SLOAD PUSH2 0x2AE SWAP1 PUSH2 0xF0A JUMP JUMPDEST DUP1 PUSH1 0x1F ADD PUSH1 0x20 DUP1 SWAP2 DIV MUL PUSH1 0x20 ADD PUSH1 0x40 MLOAD SWAP1 DUP2 ADD PUSH1 0x40 MSTORE DUP1 SWAP3 SWAP2 SWAP1 DUP2 DUP2 MSTORE PUSH1 0x20 ADD DUP3 DUP1 SLOAD PUSH2 0x2DA SWAP1 PUSH2 0xF0A JUMP JUMPDEST DUP1 ISZERO PUSH2 0x327 JUMPI DUP1 PUSH1 0x1F LT PUSH2 0x2FC JUMPI PUSH2 0x100 DUP1 DUP4 SLOAD DIV MUL DUP4 MSTORE SWAP2 PUSH1 0x20 ADD SWAP2 PUSH2 0x327 JUMP JUMPDEST DUP3 ADD SWAP2 SWAP1 PUSH1 0x0 MSTORE PUSH1 0x20 PUSH1 0x0 KECCAK256 SWAP1 JUMPDEST DUP2 SLOAD DUP2 MSTORE SWAP1 PUSH1 0x1 ADD SWAP1 PUSH1 0x20 ADD DUP1 DUP4 GT PUSH2 0x30A JUMPI DUP3 SWAP1 SUB PUSH1 0x1F AND DUP3 ADD SWAP2 JUMPDEST POP POP POP POP POP SWAP1 DUP1 PUSH1 0x2 ADD DUP1 SLOAD PUSH2 0x33C SWAP1 PUSH2 0xF0A JUMP JUMPDEST DUP1 PUSH1 0x1F ADD PUSH1 0x20 DUP1 SWAP2 DIV MUL PUSH1 0x20 ADD PUSH1 0x40 MLOAD SWAP1 DUP2 ADD PUSH1 0x40 MSTORE DUP1 SWAP3 SWAP2 SWAP1 DUP2 DUP2 MSTORE PUSH1 0x20 ADD DUP3 DUP1 SLOAD PUSH2 0x368 SWAP1 PUSH2 0xF0A JUMP JUMPDEST DUP1 ISZERO PUSH2 0x3B5 JUMPI DUP1 PUSH1 0x1F LT PUSH2 0x38A JUMPI PUSH2 0x100 DUP1 DUP4 SLOAD DIV MUL DUP4 MSTORE SWAP2 PUSH1 0x20 ADD SWAP2 PUSH2 0x3B5 JUMP JUMPDEST DUP3 ADD SWAP2 SWAP1 PUSH1 0x0 MSTORE PUSH1 0x20 PUSH1 0x0 KECCAK256 SWAP1 JUMPDEST DUP2 SLOAD DUP2 MSTORE SWAP1 PUSH1 0x1 ADD SWAP1 PUSH1 0x20 ADD DUP1 DUP4 GT PUSH2 0x398 JUMPI DUP3 SWAP1 SUB PUSH1 0x1F AND DUP3 ADD SWAP2 JUMPDEST POP POP POP POP POP SWAP1 DUP1 PUSH1 0x3 ADD DUP1 SLOAD PUSH2 0x3CA SWAP1 PUSH2 0xF0A JUMP JUMPDEST DUP1 PUSH1 0x1F ADD PUSH1 0x20 DUP1 SWAP2 DIV MUL PUSH1 0x20 ADD PUSH1 0x40 MLOAD SWAP1 DUP2 ADD PUSH1 0x40 MSTORE DUP1 SWAP3 SWAP2 SWAP1 DUP2 DUP2 MSTORE PUSH1 0x20 ADD DUP3 DUP1 SLOAD PUSH2 0x3F6 SWAP1 PUSH2 0xF0A JUMP JUMPDEST DUP1 ISZERO PUSH2 0x443 JUMPI DUP1 PUSH1 0x1F LT PUSH2 0x418 JUMPI PUSH2 0x100 DUP1 DUP4 SLOAD DIV MUL DUP4 MSTORE SWAP2 PUSH1 0x20 ADD SWAP2 PUSH2 0x443 JUMP JUMPDEST DUP3 ADD SWAP2 SWAP1 PUSH1 0x0 MSTORE PUSH1 0x20 PUSH1 0x0 KECCAK256 SWAP1 JUMPDEST DUP2 SLOAD DUP2 MSTORE SWAP1 PUSH1 0x1 ADD SWAP1 PUSH1 0x20 ADD DUP1 DUP4 GT PUSH2 0x426 JUMPI DUP3 SWAP1 SUB PUSH1 0x1F AND DUP3 ADD SWAP2 JUMPDEST POP POP POP POP POP SWAP1 DUP1 PUSH1 0x4 ADD DUP1 SLOAD PUSH2 0x458 SWAP1 PUSH2 0xF0A JUMP JUMPDEST DUP1 PUSH1 0x1F ADD PUSH1 0x20 DUP1 SWAP2 DIV MUL PUSH1 0x20 ADD PUSH1 0x40 MLOAD SWAP1 DUP2 ADD PUSH1 0x40 MSTORE DUP1 SWAP3 SWAP2 SWAP1 DUP2 DUP2 MSTORE PUSH1 0x20 ADD DUP3 DUP1 SLOAD PUSH2 0x484 SWAP1 PUSH2 0xF0A JUMP JUMPDEST DUP1 ISZERO PUSH2 0x4D1 JUMPI DUP1 PUSH1 0x1F LT PUSH2 0x4A6 JUMPI PUSH2 0x100 DUP1 DUP4 SLOAD DIV MUL DUP4 MSTORE SWAP2 PUSH1 0x20 ADD SWAP2 PUSH2 0x4D1 JUMP JUMPDEST DUP3 ADD SWAP2 SWAP1 PUSH1 0x0 MSTORE PUSH1 0x20 PUSH1 0x0 KECCAK256 SWAP1 JUMPDEST DUP2 SLOAD DUP2 MSTORE SWAP1 PUSH1 0x1 ADD SWAP1 PUSH1 0x20 ADD DUP1 DUP4 GT PUSH2 0x4B4 JUMPI DUP3 SWAP1 SUB PUSH1 0x1F AND DUP3 ADD SWAP2 JUMPDEST POP POP POP POP POP SWAP1 POP DUP6 JUMP JUMPDEST PUSH1 0x60 PUSH1 0x0 DUP1 SLOAD DUP1 PUSH1 0x20 MUL PUSH1 0x20 ADD PUSH1 0x40 MLOAD SWAP1 DUP2 ADD PUSH1 0x40 MSTORE DUP1 SWAP3 SWAP2 SWAP1 DUP2 DUP2 MSTORE PUSH1 0x20 ADD PUSH1 0x0 SWAP1 JUMPDEST DUP3 DUP3 LT ISZERO PUSH2 0x80B JUMPI DUP4 DUP3 SWAP1 PUSH1 0x0 MSTORE PUSH1 0x20 PUSH1 0x0 KECCAK256 SWAP1 PUSH1 0x5 MUL ADD PUSH1 0x40 MLOAD DUP1 PUSH1 0xA0 ADD PUSH1 0x40 MSTORE SWAP1 DUP2 PUSH1 0x0 DUP3 ADD DUP1 SLOAD PUSH2 0x532 SWAP1 PUSH2 0xF0A JUMP JUMPDEST DUP1 PUSH1 0x1F ADD PUSH1 0x20 DUP1 SWAP2 DIV MUL PUSH1 0x20 ADD PUSH1 0x40 MLOAD SWAP1 DUP2 ADD PUSH1 0x40 MSTORE DUP1 SWAP3 SWAP2 SWAP1 DUP2 DUP2 MSTORE PUSH1 0x20 ADD DUP3 DUP1 SLOAD PUSH2 0x55E SWAP1 PUSH2 0xF0A JUMP JUMPDEST DUP1 ISZERO PUSH2 0x5AB JUMPI DUP1 PUSH1 0x1F LT PUSH2 0x580 JUMPI PUSH2 0x100 DUP1 DUP4 SLOAD DIV MUL DUP4 MSTORE SWAP2 PUSH1 0x20 ADD SWAP2 PUSH2 0x5AB JUMP JUMPDEST DUP3 ADD SWAP2 SWAP1 PUSH1 0x0 MSTORE PUSH1 0x20 PUSH1 0x0 KECCAK256 SWAP1 JUMPDEST DUP2 SLOAD DUP2 MSTORE SWAP1 PUSH1 0x1 ADD SWAP1 PUSH1 0x20 ADD DUP1 DUP4 GT PUSH2 0x58E JUMPI DUP3 SWAP1 SUB PUSH1 0x1F AND DUP3 ADD SWAP2 JUMPDEST POP POP POP POP POP DUP2 MSTORE PUSH1 0x20 ADD PUSH1 0x1 DUP3 ADD DUP1 SLOAD PUSH2 0x5C4 SWAP1 PUSH2 0xF0A JUMP JUMPDEST DUP1 PUSH1 0x1F ADD PUSH1 0x20 DUP1 SWAP2 DIV MUL PUSH1 0x20 ADD PUSH1 0x40 MLOAD SWAP1 DUP2 ADD PUSH1 0x40 MSTORE DUP1 SWAP3 SWAP2 SWAP1 DUP2 DUP2 MSTORE PUSH1 0x20 ADD DUP3 DUP1 SLOAD PUSH2 0x5F0 SWAP1 PUSH2 0xF0A JUMP JUMPDEST DUP1 ISZERO PUSH2 0x63D JUMPI DUP1 PUSH1 0x1F LT PUSH2 0x612 JUMPI PUSH2 0x100 DUP1 DUP4 SLOAD DIV MUL DUP4 MSTORE SWAP2 PUSH1 0x20 ADD SWAP2 PUSH2 0x63D JUMP JUMPDEST DUP3 ADD SWAP2 SWAP1 PUSH1 0x0 MSTORE PUSH1 0x20 PUSH1 0x0 KECCAK256 SWAP1 JUMPDEST DUP2 SLOAD DUP2 MSTORE SWAP1 PUSH1 0x1 ADD SWAP1 PUSH1 0x20 ADD DUP1 DUP4 GT PUSH2 0x620 JUMPI DUP3 SWAP1 SUB PUSH1 0x1F AND DUP3 ADD SWAP2 JUMPDEST POP POP POP POP POP DUP2 MSTORE PUSH1 0x20 ADD PUSH1 0x2 DUP3 ADD DUP1 SLOAD PUSH2 0x656 SWAP1 PUSH2 0xF0A JUMP JUMPDEST DUP1 PUSH1 0x1F ADD PUSH1 0x20 DUP1 SWAP2 DIV MUL PUSH1 0x20 ADD PUSH1 0x40 MLOAD SWAP1 DUP2 ADD PUSH1 0x40 MSTORE DUP1 SWAP3 SWAP2 SWAP1 DUP2 DUP2 MSTORE PUSH1 0x20 ADD DUP3 DUP1 SLOAD PUSH2 0x682 SWAP1 PUSH2 0xF0A JUMP JUMPDEST DUP1 ISZERO PUSH2 0x6CF JUMPI DUP1 PUSH1 0x1F LT PUSH2 0x6A4 JUMPI PUSH2 0x100 DUP1 DUP4 SLOAD DIV MUL DUP4 MSTORE SWAP2 PUSH1 0x20 ADD SWAP2 PUSH2 0x6CF JUMP JUMPDEST DUP3 ADD SWAP2 SWAP1 PUSH1 0x0 MSTORE PUSH1 0x20 PUSH1 0x0 KECCAK256 SWAP1 JUMPDEST DUP2 SLOAD DUP2 MSTORE SWAP1 PUSH1 0x1 ADD SWAP1 PUSH1 0x20 ADD DUP1 DUP4 GT PUSH2 0x6B2 JUMPI DUP3 SWAP1 SUB PUSH1 0x1F AND DUP3 ADD SWAP2 JUMPDEST POP POP POP POP POP DUP2 MSTORE PUSH1 0x20 ADD PUSH1 0x3 DUP3 ADD DUP1 SLOAD PUSH2 0x6E8 SWAP1 PUSH2 0xF0A JUMP JUMPDEST DUP1 PUSH1 0x1F ADD PUSH1 0x20 DUP1 SWAP2 DIV MUL PUSH1 0x20 ADD PUSH1 0x40 MLOAD SWAP1 DUP2 ADD PUSH1 0x40 MSTORE DUP1 SWAP3 SWAP2 SWAP1 DUP2 DUP2 MSTORE PUSH1 0x20 ADD DUP3 DUP1 SLOAD PUSH2 0x714 SWAP1 PUSH2 0xF0A JUMP JUMPDEST DUP1 ISZERO PUSH2 0x761 JUMPI DUP1 PUSH1 0x1F LT PUSH2 0x736 JUMPI PUSH2 0x100 DUP1 DUP4 SLOAD DIV MUL DUP4 MSTORE SWAP2 PUSH1 0x20 ADD SWAP2 PUSH2 0x761 JUMP JUMPDEST DUP3 ADD SWAP2 SWAP1 PUSH1 0x0 MSTORE PUSH1 0x20 PUSH1 0x0 KECCAK256 SWAP1 JUMPDEST DUP2 SLOAD DUP2 MSTORE SWAP1 PUSH1 0x1 ADD SWAP1 PUSH1 0x20 ADD DUP1 DUP4 GT PUSH2 0x744 JUMPI DUP3 SWAP1 SUB PUSH1 0x1F AND DUP3 ADD SWAP2 JUMPDEST POP POP POP POP POP DUP2 MSTORE PUSH1 0x20 ADD PUSH1 0x4 DUP3 ADD DUP1 SLOAD PUSH2 0x77A SWAP1 PUSH2 0xF0A JUMP JUMPDEST DUP1 PUSH1 0x1F ADD PUSH1 0x20 DUP1 SWAP2 DIV MUL PUSH1 0x20 ADD PUSH1 0x40 MLOAD SWAP1 DUP2 ADD PUSH1 0x40 MSTORE DUP1 SWAP3 SWAP2 SWAP1 DUP2 DUP2 MSTORE PUSH1 0x20 ADD DUP3 DUP1 SLOAD PUSH2 0x7A6 SWAP1 PUSH2 0xF0A JUMP JUMPDEST DUP1 ISZERO PUSH2 0x7F3 JUMPI DUP1 PUSH1 0x1F LT PUSH2 0x7C8 JUMPI PUSH2 0x100 DUP1 DUP4 SLOAD DIV MUL DUP4 MSTORE SWAP2 PUSH1 0x20 ADD SWAP2 PUSH2 0x7F3 JUMP JUMPDEST DUP3 ADD SWAP2 SWAP1 PUSH1 0x0 MSTORE PUSH1 0x20 PUSH1 0x0 KECCAK256 SWAP1 JUMPDEST DUP2 SLOAD DUP2 MSTORE SWAP1 PUSH1 0x1 ADD SWAP1 PUSH1 0x20 ADD DUP1 DUP4 GT PUSH2 0x7D6 JUMPI DUP3 SWAP1 SUB PUSH1 0x1F AND DUP3 ADD SWAP2 JUMPDEST POP POP POP POP POP DUP2 MSTORE POP POP DUP2 MSTORE PUSH1 0x20 ADD SWAP1 PUSH1 0x1 ADD SWAP1 PUSH2 0x4FF JUMP JUMPDEST POP POP POP POP SWAP1 POP SWAP1 JUMP JUMPDEST DUP3 DUP1 SLOAD PUSH2 0x820 SWAP1 PUSH2 0xF0A JUMP JUMPDEST SWAP1 PUSH1 0x0 MSTORE PUSH1 0x20 PUSH1 0x0 KECCAK256 SWAP1 PUSH1 0x1F ADD PUSH1 0x20 SWAP1 DIV DUP2 ADD SWAP3 DUP3 PUSH2 0x842 JUMPI PUSH1 0x0 DUP6 SSTORE PUSH2 0x889 JUMP JUMPDEST DUP3 PUSH1 0x1F LT PUSH2 0x85B JUMPI DUP1 MLOAD PUSH1 0xFF NOT AND DUP4 DUP1 ADD OR DUP6 SSTORE PUSH2 0x889 JUMP JUMPDEST DUP3 DUP1 ADD PUSH1 0x1 ADD DUP6 SSTORE DUP3 ISZERO PUSH2 0x889 JUMPI SWAP2 DUP3 ADD JUMPDEST DUP3 DUP2 GT ISZERO PUSH2 0x888 JUMPI DUP3 MLOAD DUP3 SSTORE SWAP2 PUSH1 0x20 ADD SWAP2 SWAP1 PUSH1 0x1 ADD SWAP1 PUSH2 0x86D JUMP JUMPDEST JUMPDEST POP SWAP1 POP PUSH2 0x896 SWAP2 SWAP1 PUSH2 0x89A JUMP JUMPDEST POP SWAP1 JUMP JUMPDEST JUMPDEST DUP1 DUP3 GT ISZERO PUSH2 0x8B3 JUMPI PUSH1 0x0 DUP2 PUSH1 0x0 SWAP1 SSTORE POP PUSH1 0x1 ADD PUSH2 0x89B JUMP JUMPDEST POP SWAP1 JUMP JUMPDEST PUSH1 0x0 PUSH1 0x40 MLOAD SWAP1 POP SWAP1 JUMP JUMPDEST PUSH1 0x0 DUP1 REVERT JUMPDEST PUSH1 0x0 DUP1 REVERT JUMPDEST PUSH1 0x0 DUP1 REVERT JUMPDEST PUSH1 0x0 DUP1 REVERT JUMPDEST PUSH1 0x0 PUSH1 0x1F NOT PUSH1 0x1F DUP4 ADD AND SWAP1 POP SWAP2 SWAP1 POP JUMP JUMPDEST PUSH32 0x4E487B7100000000000000000000000000000000000000000000000000000000 PUSH1 0x0 MSTORE PUSH1 0x41 PUSH1 0x4 MSTORE PUSH1 0x24 PUSH1 0x0 REVERT JUMPDEST PUSH2 0x91E DUP3 PUSH2 0x8D5 JUMP JUMPDEST DUP2 ADD DUP2 DUP2 LT PUSH8 0xFFFFFFFFFFFFFFFF DUP3 GT OR ISZERO PUSH2 0x93D JUMPI PUSH2 0x93C PUSH2 0x8E6 JUMP JUMPDEST JUMPDEST DUP1 PUSH1 0x40 MSTORE POP POP POP JUMP JUMPDEST PUSH1 0x0 PUSH2 0x950 PUSH2 0x8B7 JUMP JUMPDEST SWAP1 POP PUSH2 0x95C DUP3 DUP3 PUSH2 0x915 JUMP JUMPDEST SWAP2 SWAP1 POP JUMP JUMPDEST PUSH1 0x0 PUSH8 0xFFFFFFFFFFFFFFFF DUP3 GT ISZERO PUSH2 0x97C JUMPI PUSH2 0x97B PUSH2 0x8E6 JUMP JUMPDEST JUMPDEST PUSH2 0x985 DUP3 PUSH2 0x8D5 JUMP JUMPDEST SWAP1 POP PUSH1 0x20 DUP2 ADD SWAP1 POP SWAP2 SWAP1 POP JUMP JUMPDEST DUP3 DUP2 DUP4 CALLDATACOPY PUSH1 0x0 DUP4 DUP4 ADD MSTORE POP POP POP JUMP JUMPDEST PUSH1 0x0 PUSH2 0x9B4 PUSH2 0x9AF DUP5 PUSH2 0x961 JUMP JUMPDEST PUSH2 0x946 JUMP JUMPDEST SWAP1 POP DUP3 DUP2 MSTORE PUSH1 0x20 DUP2 ADD DUP5 DUP5 DUP5 ADD GT ISZERO PUSH2 0x9D0 JUMPI PUSH2 0x9CF PUSH2 0x8D0 JUMP JUMPDEST JUMPDEST PUSH2 0x9DB DUP5 DUP3 DUP6 PUSH2 0x992 JUMP JUMPDEST POP SWAP4 SWAP3 POP POP POP JUMP JUMPDEST PUSH1 0x0 DUP3 PUSH1 0x1F DUP4 ADD SLT PUSH2 0x9F8 JUMPI PUSH2 0x9F7 PUSH2 0x8CB JUMP JUMPDEST JUMPDEST DUP2 CALLDATALOAD PUSH2 0xA08 DUP5 DUP3 PUSH1 0x20 DUP7 ADD PUSH2 0x9A1 JUMP JUMPDEST SWAP2 POP POP SWAP3 SWAP2 POP POP JUMP JUMPDEST PUSH1 0x0 DUP1 PUSH1 0x0 DUP1 PUSH1 0x0 PUSH1 0xA0 DUP7 DUP9 SUB SLT ISZERO PUSH2 0xA2D JUMPI PUSH2 0xA2C PUSH2 0x8C1 JUMP JUMPDEST JUMPDEST PUSH1 0x0 DUP7 ADD CALLDATALOAD PUSH8 0xFFFFFFFFFFFFFFFF DUP2 GT ISZERO PUSH2 0xA4B JUMPI PUSH2 0xA4A PUSH2 0x8C6 JUMP JUMPDEST JUMPDEST PUSH2 0xA57 DUP9 DUP3 DUP10 ADD PUSH2 0x9E3 JUMP JUMPDEST SWAP6 POP POP PUSH1 0x20 DUP7 ADD CALLDATALOAD PUSH8 0xFFFFFFFFFFFFFFFF DUP2 GT ISZERO PUSH2 0xA78 JUMPI PUSH2 0xA77 PUSH2 0x8C6 JUMP JUMPDEST JUMPDEST PUSH2 0xA84 DUP9 DUP3 DUP10 ADD PUSH2 0x9E3 JUMP JUMPDEST SWAP5 POP POP PUSH1 0x40 DUP7 ADD CALLDATALOAD PUSH8 0xFFFFFFFFFFFFFFFF DUP2 GT ISZERO PUSH2 0xAA5 JUMPI PUSH2 0xAA4 PUSH2 0x8C6 JUMP JUMPDEST JUMPDEST PUSH2 0xAB1 DUP9 DUP3 DUP10 ADD PUSH2 0x9E3 JUMP JUMPDEST SWAP4 POP POP PUSH1 0x60 DUP7 ADD CALLDATALOAD PUSH8 0xFFFFFFFFFFFFFFFF DUP2 GT ISZERO PUSH2 0xAD2 JUMPI PUSH2 0xAD1 PUSH2 0x8C6 JUMP JUMPDEST JUMPDEST PUSH2 0xADE DUP9 DUP3 DUP10 ADD PUSH2 0x9E3 JUMP JUMPDEST SWAP3 POP POP PUSH1 0x80 DUP7 ADD CALLDATALOAD PUSH8 0xFFFFFFFFFFFFFFFF DUP2 GT ISZERO PUSH2 0xAFF JUMPI PUSH2 0xAFE PUSH2 0x8C6 JUMP JUMPDEST JUMPDEST PUSH2 0xB0B DUP9 DUP3 DUP10 ADD PUSH2 0x9E3 JUMP JUMPDEST SWAP2 POP POP SWAP3 SWAP6 POP SWAP3 SWAP6 SWAP1 SWAP4 POP JUMP JUMPDEST PUSH1 0x0 DUP2 SWAP1 POP SWAP2 SWAP1 POP JUMP JUMPDEST PUSH2 0xB2B DUP2 PUSH2 0xB18 JUMP JUMPDEST DUP3 MSTORE POP POP JUMP JUMPDEST PUSH1 0x0 PUSH1 0x20 DUP3 ADD SWAP1 POP PUSH2 0xB46 PUSH1 0x0 DUP4 ADD DUP5 PUSH2 0xB22 JUMP JUMPDEST SWAP3 SWAP2 POP POP JUMP JUMPDEST PUSH2 0xB55 DUP2 PUSH2 0xB18 JUMP JUMPDEST DUP2 EQ PUSH2 0xB60 JUMPI PUSH1 0x0 DUP1 REVERT JUMPDEST POP JUMP JUMPDEST PUSH1 0x0 DUP2 CALLDATALOAD SWAP1 POP PUSH2 0xB72 DUP2 PUSH2 0xB4C JUMP JUMPDEST SWAP3 SWAP2 POP POP JUMP JUMPDEST PUSH1 0x0 PUSH1 0x20 DUP3 DUP5 SUB SLT ISZERO PUSH2 0xB8E JUMPI PUSH2 0xB8D PUSH2 0x8C1 JUMP JUMPDEST JUMPDEST PUSH1 0x0 PUSH2 0xB9C DUP5 DUP3 DUP6 ADD PUSH2 0xB63 JUMP JUMPDEST SWAP2 POP POP SWAP3 SWAP2 POP POP JUMP JUMPDEST PUSH1 0x0 DUP2 MLOAD SWAP1 POP SWAP2 SWAP1 POP JUMP JUMPDEST PUSH1 0x0 DUP3 DUP3 MSTORE PUSH1 0x20 DUP3 ADD SWAP1 POP SWAP3 SWAP2 POP POP JUMP JUMPDEST PUSH1 0x0 JUMPDEST DUP4 DUP2 LT ISZERO PUSH2 0xBDF JUMPI DUP1 DUP3 ADD MLOAD DUP2 DUP5 ADD MSTORE PUSH1 0x20 DUP2 ADD SWAP1 POP PUSH2 0xBC4 JUMP JUMPDEST DUP4 DUP2 GT ISZERO PUSH2 0xBEE JUMPI PUSH1 0x0 DUP5 DUP5 ADD MSTORE JUMPDEST POP POP POP POP JUMP JUMPDEST PUSH1 0x0 PUSH2 0xBFF DUP3 PUSH2 0xBA5 JUMP JUMPDEST PUSH2 0xC09 DUP2 DUP6 PUSH2 0xBB0 JUMP JUMPDEST SWAP4 POP PUSH2 0xC19 DUP2 DUP6 PUSH1 0x20 DUP7 ADD PUSH2 0xBC1 JUMP JUMPDEST PUSH2 0xC22 DUP2 PUSH2 0x8D5 JUMP JUMPDEST DUP5 ADD SWAP2 POP POP SWAP3 SWAP2 POP POP JUMP JUMPDEST PUSH1 0x0 PUSH1 0xA0 DUP3 ADD SWAP1 POP DUP2 DUP2 SUB PUSH1 0x0 DUP4 ADD MSTORE PUSH2 0xC47 DUP2 DUP9 PUSH2 0xBF4 JUMP JUMPDEST SWAP1 POP DUP2 DUP2 SUB PUSH1 0x20 DUP4 ADD MSTORE PUSH2 0xC5B DUP2 DUP8 PUSH2 0xBF4 JUMP JUMPDEST SWAP1 POP DUP2 DUP2 SUB PUSH1 0x40 DUP4 ADD MSTORE PUSH2 0xC6F DUP2 DUP7 PUSH2 0xBF4 JUMP JUMPDEST SWAP1 POP DUP2 DUP2 SUB PUSH1 0x60 DUP4 ADD MSTORE PUSH2 0xC83 DUP2 DUP6 PUSH2 0xBF4 JUMP JUMPDEST SWAP1 POP DUP2 DUP2 SUB PUSH1 0x80 DUP4 ADD MSTORE PUSH2 0xC97 DUP2 DUP5 PUSH2 0xBF4 JUMP JUMPDEST SWAP1 POP SWAP7 SWAP6 POP POP POP POP POP POP JUMP JUMPDEST PUSH1 0x0 DUP2 MLOAD SWAP1 POP SWAP2 SWAP1 POP JUMP JUMPDEST PUSH1 0x0 DUP3 DUP3 MSTORE PUSH1 0x20 DUP3 ADD SWAP1 POP SWAP3 SWAP2 POP POP JUMP JUMPDEST PUSH1 0x0 DUP2 SWAP1 POP PUSH1 0x20 DUP3 ADD SWAP1 POP SWAP2 SWAP1 POP JUMP JUMPDEST PUSH1 0x0 DUP3 DUP3 MSTORE PUSH1 0x20 DUP3 ADD SWAP1 POP SWAP3 SWAP2 POP POP JUMP JUMPDEST PUSH1 0x0 PUSH2 0xCEB DUP3 PUSH2 0xBA5 JUMP JUMPDEST PUSH2 0xCF5 DUP2 DUP6 PUSH2 0xCCF JUMP JUMPDEST SWAP4 POP PUSH2 0xD05 DUP2 DUP6 PUSH1 0x20 DUP7 ADD PUSH2 0xBC1 JUMP JUMPDEST PUSH2 0xD0E DUP2 PUSH2 0x8D5 JUMP JUMPDEST DUP5 ADD SWAP2 POP POP SWAP3 SWAP2 POP POP JUMP JUMPDEST PUSH1 0x0 PUSH1 0xA0 DUP4 ADD PUSH1 0x0 DUP4 ADD MLOAD DUP5 DUP3 SUB PUSH1 0x0 DUP7 ADD MSTORE PUSH2 0xD36 DUP3 DUP3 PUSH2 0xCE0 JUMP JUMPDEST SWAP2 POP POP PUSH1 0x20 DUP4 ADD MLOAD DUP5 DUP3 SUB PUSH1 0x20 DUP7 ADD MSTORE PUSH2 0xD50 DUP3 DUP3 PUSH2 0xCE0 JUMP JUMPDEST SWAP2 POP POP PUSH1 0x40 DUP4 ADD MLOAD DUP5 DUP3 SUB PUSH1 0x40 DUP7 ADD MSTORE PUSH2 0xD6A DUP3 DUP3 PUSH2 0xCE0 JUMP JUMPDEST SWAP2 POP POP PUSH1 0x60 DUP4 ADD MLOAD DUP5 DUP3 SUB PUSH1 0x60 DUP7 ADD MSTORE PUSH2 0xD84 DUP3 DUP3 PUSH2 0xCE0 JUMP JUMPDEST SWAP2 POP POP PUSH1 0x80 DUP4 ADD MLOAD DUP5 DUP3 SUB PUSH1 0x80 DUP7 ADD MSTORE PUSH2 0xD9E DUP3 DUP3 PUSH2 0xCE0 JUMP JUMPDEST SWAP2 POP POP DUP1 SWAP2 POP POP SWAP3 SWAP2 POP POP JUMP JUMPDEST PUSH1 0x0 PUSH2 0xDB7 DUP4 DUP4 PUSH2 0xD19 JUMP JUMPDEST SWAP1 POP SWAP3 SWAP2 POP POP JUMP JUMPDEST PUSH1 0x0 PUSH1 0x20 DUP3 ADD SWAP1 POP SWAP2 SWAP1 POP JUMP JUMPDEST PUSH1 0x0 PUSH2 0xDD7 DUP3 PUSH2 0xCA3 JUMP JUMPDEST PUSH2 0xDE1 DUP2 DUP6 PUSH2 0xCAE JUMP JUMPDEST SWAP4 POP DUP4 PUSH1 0x20 DUP3 MUL DUP6 ADD PUSH2 0xDF3 DUP6 PUSH2 0xCBF JUMP JUMPDEST DUP1 PUSH1 0x0 JUMPDEST DUP6 DUP2 LT ISZERO PUSH2 0xE2F JUMPI DUP5 DUP5 SUB DUP10 MSTORE DUP2 MLOAD PUSH2 0xE10 DUP6 DUP3 PUSH2 0xDAB JUMP JUMPDEST SWAP5 POP PUSH2 0xE1B DUP4 PUSH2 0xDBF JUMP JUMPDEST SWAP3 POP PUSH1 0x20 DUP11 ADD SWAP10 POP POP PUSH1 0x1 DUP2 ADD SWAP1 POP PUSH2 0xDF7 JUMP JUMPDEST POP DUP3 SWAP8 POP DUP8 SWAP6 POP POP POP POP POP POP SWAP3 SWAP2 POP POP JUMP JUMPDEST PUSH1 0x0 PUSH1 0x20 DUP3 ADD SWAP1 POP DUP2 DUP2 SUB PUSH1 0x0 DUP4 ADD MSTORE PUSH2 0xE5B DUP2 DUP5 PUSH2 0xDCC JUMP JUMPDEST SWAP1 POP SWAP3 SWAP2 POP POP JUMP JUMPDEST PUSH32 0x4E487B7100000000000000000000000000000000000000000000000000000000 PUSH1 0x0 MSTORE PUSH1 0x11 PUSH1 0x4 MSTORE PUSH1 0x24 PUSH1 0x0 REVERT JUMPDEST PUSH1 0x0 PUSH2 0xE9D DUP3 PUSH2 0xB18 JUMP JUMPDEST SWAP2 POP PUSH32 0xFFFFFFFFFFFFFFFFFFFFFFFFFFFFFFFFFFFFFFFFFFFFFFFFFFFFFFFFFFFFFFFF DUP3 EQ ISZERO PUSH2 0xED0 JUMPI PUSH2 0xECF PUSH2 0xE63 JUMP JUMPDEST JUMPDEST PUSH1 0x1 DUP3 ADD SWAP1 POP SWAP2 SWAP1 POP JUMP JUMPDEST PUSH32 0x4E487B7100000000000000000000000000000000000000000000000000000000 PUSH1 0x0 MSTORE PUSH1 0x22 PUSH1 0x4 MSTORE PUSH1 0x24 PUSH1 0x0 REVERT JUMPDEST PUSH1 0x0 PUSH1 0x2 DUP3 DIV SWAP1 POP PUSH1 0x1 DUP3 AND DUP1 PUSH2 0xF22 JUMPI PUSH1 0x7F DUP3 AND SWAP2 POP JUMPDEST PUSH1 0x20 DUP3 LT DUP2 EQ ISZERO PUSH2 0xF36 JUMPI PUSH2 0xF35 PUSH2 0xEDB JUMP JUMPDEST JUMPDEST POP SWAP2 SWAP1 POP JUMP INVALID LOG2 PUSH5 0x6970667358 0x22 SLT KECCAK256 PUSH26 0xA405553ADEDF395CD52C467164E4985CF7D6100FACA5B9D4ED3E PUSH25 0x84DE65F864736F6C6343000809003300000000000000000000 "},"gasEstimates":{"creation":{"codeDepositCost":"790800","executionCost":"5831","totalCost":"796631"},"external":{"collegesRatings(uint256)":"infinite","getCollegesRatings()":"infinite","giveRating(string,string,string,string,string)":"infinite","totalRatings()":"2429"}},"methodIdentifiers":{"collegesRatings(uint256)":"4bd81175","getCollegesRatings()":"ff782542","giveRating(string,string,string,string,string)":"0ccfcb66","totalRatings()":"2826f6a5"}},"storageLayout":{"storage":[{"astId":16,"contract":"CollegeRating.sol:CollegeRating","label":"collegesRatings","offset":0,"slot":"0","type":"t_array(t_struct(Feedback)12_storage)dyn_storage"},{"astId":19,"contract":"CollegeRating.sol:CollegeRating","label":"totalRatings","offset":0,"slot":"1","type":"t_uint256"}],"types":{"t_array(t_struct(Feedback)12_storage)dyn_storage":{"base":"t_struct(Feedback)12_storage","encoding":"dynamic_array","label":"struct CollegeRating.Feedback[]","numberOfBytes":"32"},"t_string_storage":{"encoding":"bytes","label":"string","numberOfBytes":"32"},"t_struct(Feedback)12_storage":{"encoding":"inplace","label":"struct CollegeRating.Feedback","members":[{"astId":3,"contract":"CollegeRating.sol:CollegeRating","label":"collegeName","offset":0,"slot":"0","type":"t_string_storage"},{"astId":5,"contract":"CollegeRating.sol:CollegeRating","label":"studentName","offset":0,"slot":"1","type":"t_string_storage"},{"astId":7,"contract":"CollegeRating.sol:CollegeRating","label":"star","offset":0,"slot":"2","type":"t_string_storage"},{"astId":9,"contract":"CollegeRating.sol:CollegeRating","label":"feedback","offset":0,"slot":"3","type":"t_string_storage"},{"astId":11,"contract":"CollegeRating.sol:CollegeRating","label":"course","offset":0,"slot":"4","type":"t_string_storage"}],"numberOfBytes":"160"},"t_uint256":{"encoding":"inplace","label":"uint256","numberOfBytes":"32"}}},"userdoc":{"kind":"user","methods":{},"version":1}}